:020000040000FA
:100000000C94CF060C9400070C9400070C94000786
:100010000C9400070C9400070C9400070C94000744
:100020000C9400070C9400070C9400070C94000734
:100030000C9400070C9400070C9400070C94000724
:100040000C9400070C9400070C9400070C94000714
:100050000C9400070C9400070C9400070C94041BEC
:100060000C9400070C9400070C9400070C940007F4
:100070000C9400070C9400070C9400070C940007E4
:100080000C9400070C9400070C9400070C940007D4
:100090000C9400070C9400070C9400070C944E1B62
:1000A0000C9400070C9400070C9400070C940007B4
:1000B0000C9400070C9400070C9400070C940007A4
:1000C0000C9400070C9400070C9400070C94000794
:1000D0000C9400070C9400070C9400070C94000784
:1000E0000C940007036EDB363D9A9999993DABAAB3
:1000F000AA2A3E000000803F084AD73B3BCE016E53
:1001000084BCBFFDC12F3D6C74319ABD56833DDA6E
:100110003D00C77F11BED9E4BB4C3E916BAAAABE7D
:10012000000000803F07634236B79BD8A71A3968A2
:100130005618AEBAAB558C1D3CB7CC5763BD6DEDB0
:10014000FD753EF6177231BF000000803F072C7A24
:10015000A5BA6CC590DA3B9365FC8BBC53F810FDD7
:100160003C5692834DBD879D3AB63DCBC9BF5BBE21
:1001700073DA0FC93F05A84CCDB2D44EB93836A9B1
:10018000020C50B9918688083CA6AAAA2ABE000093
:1001900000803F08000000BE922449123EABAAAA8C
:1001A0002ABECDCCCC4C3E00000080BEABAAAAAA91
:1001B0003E00000000BF000000803F000000000083
:1001C000084178D3BB4387D1133D190E3CC3BD42D0
:1001D00082AD2B3E68EC8276BED98FE1A93E4C8081
:1001E000EFFFBE01C4FF7F3F0000000000028988CE
:1001F000083CABAAAA2A3E000000803F028988087A
:100200003EABAAAAAABE000000803F000C942607BD
:100210000C94A20C0C94360B0C942B090C945F0BD1
:100220000C9449070C94350B0C945B070C94580BF9
:100230000C9445070C9453070C94CE0A0C94610857
:100240000C9457070C9461070C945E0D0C94600895
:100250000C942E070C9435070C9420070C94721CF8
:100260000C9460070C942F090C943B070C948C0B96
:100270000C9427090C943F070C9465070C943207E3
:100280000C945F080C94450B0C944D070C942A07B2
:100290004E414E494E495459494E46CDCCCC3D0A6B
:1002A000D7233C17B7D13877CC2B329595E6241F4E
:1002B000B14F0A000020410000C84200401C462007
:1002C000BCBE4CCA1B0E5AAEC59D7400407A10F3DA
:1002D0005A00A0724E18090010A5D4E80000E87674
:1002E00048170000E40B54020000CA9A3B000000CB
:1002F000E1F505000080969800000040420F0000E4
:1003000000A08601000000102700000000E80300A4
:100310000000006400000000000A0000000000016E
:1003200000000000002C76D888DC674F0823DFC16E
:10033000DFAE59E1B1B796E5E3E453C63AE6519929
:100340007696E8E6C28426EB898C9B62ED407C6F52
:10035000FCEFBC9C9F40F2BAA56FA5F490055A2A09
:10036000F75C936B6CF9676DC11BFCE0E40D47FE15
:10037000F520E6B500D0ED902E030094357705000A
:1003800080841E080000204E0A000000C80C333391
:1003900033330F986E12831141EF8D2114893BE6A0
:1003A0005516CFFEE6DB18D1844B381BF77C1D9029
:1003B0001DA4BBE424203284725E228100C9F12492
:1003C000ECA1E53D270073717274286162293D73C9
:1003D000717274612A620044657269763A312F281D
:1003E00032737172747829007371727428782920BD
:1003F0003D20785E302E35200073717274283429C8
:1004000020203D2032202020200073717274287833
:10041000293A2078203E3D20302000004465726952
:10042000766565203A20312F78202020006C6E28D8
:10043000615E6E293D6E2A6C6E28612920006C6E0B
:1004400028612A62293D6C6E612B6C6E6220006C03
:100450006E28652920203D203120202020202000EA
:100460006C6E28312920203D2030202020202020A3
:10047000006C6E287829203A2078203E20302020F9
:1004800000003D6C6E2878292F6C6E2831302920B1
:100490002020006C6F6731302831303029203D201A
:1004A000322020006C6F6731302831302920203D08
:1004B00020312020006C6F67313028312920202026
:1004C0003D20302020006C6F673130203A2062617F
:1004D000736520313020000044657269763A20311E
:1004E0002F636F735E32202000506572696F646500
:1004F0003A20504920202020200074616E28343595
:1005000064656729203D2031202000556E646566B2
:1005100020736920636F733D3020200074616E3D4D
:1005200073696E2878292F636F732020000044655B
:100530007269763A202D73696E2878292020005040
:100540006572696F64653A20322A50492020200084
:10055000636F7328393064656729203D203020207F
:1005600000636F73283029203D2031202020202077
:10057000200056616C657572733A205B2D312C2B0F
:10058000315D00636F73287829206F7363696C6C29
:1005900061742E0000203266322B2E2E2E2B666EBA
:1005A000292020202000533D682F332A2866302B35
:1005B0003466312B202000683D28622D61292F6E82
:1005C00020202020202020006E3D31303020696E18
:1005D00074657276616C6C6573004D6574686F64E8
:1005E000652053696D70736F6E2000496E743D61B4
:1005F00069726520736F7573206620000044657210
:10060000697665653A20636F732878292000506504
:1006100072696F64653A20322A50492020200073A5
:10062000696E28393064656729203D20312020001B
:1006300073696E283029203D203020202020202082
:100640000056616C657572733A205B2D312C2B312D
:100650005D0073696E287829206F7363696C6C6123
:10066000742E000028757629273D7527762B757620
:10067000272020200028785E6E2927203D206E2A22
:10068000785E6E2D310068203D20302E30303030C5
:100690003120202020200020206628782D68295D28
:1006A000202F20326820200066277E5B6628782B6A
:1006B00068292D2020202020004D6574686F646516
:1006C000206E756D657269712E0066272878293D48
:1006D00074617578207661722E2000002020202021
:1006E000203D20302028636F6E742E290065783AF3
:1006F000206C696D20782D3E3020785E32004C21D0
:100700003D52203D3E20706173206C696D20004C8D
:100710003D52203D3E206C696D2065786973740000
:10072000417070726F2E2064726F69746520202092
:1007300000417070726F2E206761756368652020BC
:1007400020006C696D20782D3E6120662878293D57
:100750004C200048592000534820005D007C005B7D
:10076000004D6F64653A20434F4D50207C20444536
:1007700047002D2D2D204249454E56454E554520CA
:100780002D2D2D0043616C63756C61747269636516
:100790002076322E300053414E444552532020499A
:1007A0004100496E74656772616C657C4578706C58
:1007B0006971004C696D6974657C44657269766520
:1007C0006520200020202049412020200051756113
:1007D000647261743A206178322B2E2E2E004C699F
:1007E0006E6561697265203A61782B623D30004523
:1007F00051554154494F4E0044455420494E5620CE
:10080000545241203278322F33783300414444200F
:10081000535542204D554C202020202000204D4192
:100820005452494345002B202D202A202F205E20A2
:1008300073696E2E2E0043616C63756C2073746156
:100840006E6461726420002020434F4D50202000D0
:100850002020202020202020202020202020202098
:10086000003E3E204D4F4445203A202020202020AD
:1008700020004D6178203438206361722E00457865
:1008800070722074726F70206C6F6E677565003EB9
:100890003E20537569746520726573756C743A00F7
:1008A000526573756C746174204F4B00507265749F
:1008B0000045666661636500414E5320696E73654D
:1008C00072650044657465726D696E616E74206353
:1008D000616C6300646574284129203D005361699F
:1008E000736972204D61747269636520420061789A
:1008F0002B623D30202D3E20783D2D622F6100324D
:1009000020736F6C7574696F6E73204F4B00443D9C
:100910000078323D0078313D00443D3020646F75F1
:10092000626C6520726163696E650078313D783272
:100930003D20004469736372696D696E616E742055
:10094000443D00443C303A2070617320736F6C75F5
:1009500074696F6E006178322B62782B633D3020B2
:100960002020202020004C696E6561697265206F2F
:100970006B00783D0061782B623D3020536F6C75C1
:1009800074696F6E3A0053696D70736F6E206E3DBF
:1009900031303020202000646966662E2063656E49
:1009A0007472616C6520200066287829203D200043
:1009B000506173206465206C696D69746521006CF9
:1009C000696D203D20002020443A2000473A200055
:1009D0000A04F903E803D703C603C50371046004DE
:1009E0004F043E042D041C041B04C604B504A404D7
:1009F0009304820481041C050B05FA04E904D8045D
:100A0000D70483057205610550053F052E052D05A8
:100A100000002100240027002A002D0030003300B0
:100A200001010000040107010A0100002200250065
:100A300028002B002E0031003400020100000501C7
:100A400008010B01000020002300260029002C00D3
:100A50002F00320000010000030106010901050515
:100A60000505070508080808020202020A0A080824
:100A70000404040401010101010101010303030352
:100A800003030303040707070C0C0C0C0C0C0C0CE1
:100A90000202020206060606060606060B0B0B0BF2
:100AA0000B0B0B0B01021020200808102040102017
:100AB0004080020102010804020101020408102022
:100AC0004080804020100804020180040201804020
:100AD0002010080402010804020101020408102089
:100AE0004080010204081020408000000A0B020927
:100AF0000C0D0E08070304010000000000000000B8
:100B000000000000000000000000000000000000E5
:100B100000000000000012111000000000000000A2
:100B200000000000000000000000000000000000C5
:100B3000EB05DA05C805B705A60595059405520627
:100B4000410630061F060E06FD05FC05CA06B9065D
:100B5000A8069706860675066406630642073107EF
:100B600020070F07FE06ED06DC06DB065F202020CF
:100B70002020202020202020003E205F2020202038
:100B800020202020202020202000426F726E65202F
:100B900062203D203F202020202000426F726E65A1
:100BA0002061203D203F202020202000662728783B
:100BB0002920656E2078203D203F2020006C696D43
:100BC0002078202D3E203F20202020202000203C87
:100BD00000203E0029002F00202800202020202077
:100BE0002020202020202020202020006628782976
:100BF0003D3F20202020202020202020005B2B5D56
:100C00006F70205B2F5D7461696C6C6500AD04B121
:100C100004B504B904BD04C1044F703A2000780043
:100C20004D4F4445204D41545249434520005265A3
:100C300073756C7461743A0030002D496E66002B38
:100C4000496E66004E614E002020414E533D00200B
:100C500048595000205348494654005D005B002D20
:100C6000004D6F64653A20005F2020202000633D26
:100C70003F20202020202020202020202020006233
:100C80003D3F202020202020202020202020200048
:100C9000613D3F20202020202020202020202020D7
:100CA0000045712E2071756164726174697175659A
:100CB0002000623D3F2020202020202020202020D6
:100CC000202000613D3F20202020202020202020C7
:100CD0002020200045712E206C696E656169726567
:100CE00020202020005B3D5D3A76616C696465726E
:100CF00020202020003C203E3A6E617669677565B1
:100D000072202020005F005D3D002C004D5B0078CC
:100D1000004D617472696365200065666661636594
:100D2000722065727265757220200041707075794D
:100D30006572205B435D20706F7572002121204534
:100D40005252455552202121202020200045712E4D
:100D5000206178322B62782B633D300045712E2064
:100D600061782B623D3020202020005B2B5D3A63B0
:100D700068616E6765722074797065005B3D5D3AED
:100D8000636F6E6669726D657220200053616973CE
:100D9000697220613D3F202020202000721C112418
:100DA0001FBECFEFD1E2DEBFCDBF00E00CBF28E019
:100DB000AAEEB4E001C01D92A533B207E1F714E03A
:100DC000A0E0B2E0E2ECF6E800E00BBF02C0079062
:100DD0000D92AA3EB107D9F716E0CFECD6E000E0BD
:100DE00006C021970109802FFE010E943B3ECE3CA8
:100DF000D10780E00807A9F70E94441D0C945F43C7
:100E00000C9400008150823108F05AC0E82FF0E0C5
:100E10008827E25FF84F8F4F0C943B3E2E07320736
:100E2000200726072A07600735073B073F074507C6
:100E300049074D075307570760075B0761076507B9
:100E4000809180008F77809380000895809180004A
:100E50008F7DF9CF80918000877FF5CF84B58F7724
:100E600084BD089584B58F7DFBCF8091B0008F77CE
:100E70008093B00008958091B0008F7DF9CF80916C
:100E800090008F77809390000895809190008F7DDF
:100E9000F9CF80919000877FF5CF8091A0008F7768
:100EA0008093A00008958091A0008F7DF9CF80915C
:100EB000A000877FF5CF809120018F77809320015C
:100EC0000895809120018F7DF9CF80912001877F47
:100ED000F5CFCF93DF93282F30E0F901E651F54F9E
:100EE0008491F901EC55F54FD491F901E25AF54F8F
:100EF000C491CC23A1F081110E940207EC2FF0E0F5
:100F0000EE0FFF1FEC5BF54FA591B491EC91ED2333
:100F100081E090E009F480E0DF91CF91089580E0D6
:100F200090E0FACF1F93CF93DF93282F30E0F901A1
:100F3000E651F54F8491F901EC55F54FD491F90143
:100F4000E25AF54FC491CC23A9F0162F81110E94CB
:100F50000207EC2FF0E0EE0FFF1FE65DF54FA591C5
:100F6000B4918FB7F894EC91111108C0D095DE239D
:100F7000DC938FBFDF91CF911F910895DE2BF8CFC7
:100F8000CF93DF9390E0FC01EC55F54F2491825A0A
:100F9000954FFC0184918823C9F090E0880F991F38
:100FA000FC01E05FF54FA591B491FC01E65DF54FC2
:100FB000C591D49161110DC09FB7F8948C91209583
:100FC00082238C938881282328839FBFDF91CF9130
:100FD0000895623051F49FB7F8943C91822F809528
:100FE00083238C93E8812E2BEFCF8FB7F894EC916D
:100FF0002E2B2C938FBFEACF3FB7F8948091C50575
:101000009091C605A091C705B091C80526B5A89BCB
:1010100005C02F3F19F00196A11DB11D3FBFBA2F8A
:10102000A92F982F8827BC01CD01620F711D811D4A
:10103000911D42E0660F771F881F991F4A95D1F7CF
:1010400008958F929F92AF92BF92CF92DF92EF92CC
:10105000FF924B015C010E94FC076B017C010E9426
:10106000FC076C197D098E099F09683E7340810554
:101070009105A8F321E0821A9108A108B10888EE31
:10108000C80E83E0D81EE11CF11C81149104A10458
:10109000B10429F7FF90EF90DF90CF90BF90AF9011
:1010A0009F908F9008952FB7F8946091C10570912B
:1010B000C2058091C3059091C4052FBF089508957E
:1010C0000895AF92BF92CF92DF92EF92FF920F936B
:1010D0001F93CF93DF936C017B018B01040F151FCE
:1010E000EB015E01AE18BF08C017D10759F0699136
:1010F000D601ED91FC910190F081E02DC60119958A
:10110000892B79F7C501DF91CF911F910F91FF9046
:10111000EF90DF90CF90BF90AF900895FB01448196
:101120005581608171810C946108CF93DF93DC015C
:1011300026E0629FA00DB11D112490965C934E9302
:101140005F9721E091962C939197FC01E359FF4F13
:101150000190F081E02DEC01C459DF4F288122235A
:1011600041F0309719F0DC01662329F0DF91CF912F
:1011700008953097D9F35C968C91DF91CF911994B3
:10118000CF92DF92EF92FF920F931F93CF93DF9353
:10119000EC01162F042FFC0186E0689FE00DF11D85
:1011A000112411A2878D90A18130910509F180F061
:1011B0008230910509F443C0039709F445C0DF91DB
:1011C000CF911F910F91FF90EF90DF90CF900895F6
:1011D0004423A9F341E050E0CE010E9495080E940B
:1011E0005308C85ADF4F688379838A839B83E7CF8C
:1011F0000E945308FE01E85AFF4FC080D180E28070
:10120000F380AB01BC014C195D096E097F09729630
:1012100080819181B0E0A0E084179507A607B70709
:1012200070F442E050E0612FCE01DF91CF911F9129
:101230000F91FF90EF90DF90CF900C94950843E0D2
:1012400050E00111BCCFEFCF50E040E0ECCF862F53
:10125000642F0C94C007862F642F0C949207862F5E
:101260000C9469072F923F924F925F926F927F92F8
:101270008F929F92AF92BF92CF92DF92EF92FF92A6
:101280000F931F93CF93DF93CDB7DEB72C970FB695
:10129000F894DEBF0FBECDBF9C878B8784599F4FCC
:1012A0009A83898381E0A981BA818C930E94530833
:1012B000EB85FC85E45AFF4FFC83EB8300811181B1
:1012C00022813381AB01BC01401B510B620B730BBC
:1012D000EB85FC85E859FF4F80819181B0E0A0E06B
:1012E00084179507A607B70708F04FC110E0CB8415
:1012F000DC84F6E6CF0ED11CEB84FC8422E6E20E01
:10130000F11CD6018C91181758F4D701ED91FC917E
:10131000E10FF11D62E080810E94C0071F5FF1CFE5
:10132000312C4B845C84B7E64B0E511CEB84FC845F
:10133000E4E6EE0EF11C812C912C540183942B8554
:101340003C852E593F4F3A872987D2018C91381618
:1013500008F063C0032D10E0D701ED91FC91E00F80
:10136000F11F61E080810E94C007D701ED91FC91DF
:10137000E00FF11F60E080810E949207D501C40157
:10138000032C04C0880F991FAA1FBB1F0A94D2F711
:101390009E838D83FC01E095F095F887EF83212CE7
:1013A000D6018C91281620F5622C712CA985BA855E
:1013B000ED91FC91E60DF71D80810E946907660C96
:1013C000771CEB85FC85E60DF71D892B51F4808594
:1013D00091852D813E81822B932B91878087239449
:1013E000DFCF80859185AF81B8858A239B23F5CF98
:1013F000D701ED91FC91E00FF11F61E080810E9427
:101400009207F70180819181080F191F60E0D801D0
:101410008C910E94C007339498CF0B851C85C8011E
:10142000CC9678012FEF3FEFF701478D50A1452B68
:1014300021F4148E368F258F11A2F6E0EF0EF11CE9
:10144000E816F90689F7A12C8B849C8420E6820E8D
:10145000911C96E0392ED6018C91A81608F058C040
:10146000B12C6A2C712CB4E06B0E711C660C771CCD
:10147000EB85FC856E0E7F1ED2018C91B81608F0AC
:1014800045C0F301408151810B2C02C05695479510
:101490000A94E2F7A89EC00111248B0D911DEB85E3
:1014A000FC8560E0258D368D8217930709F472C0A4
:1014B0006F5F36966A30B1F740FF26C0EB85FC853A
:1014C00070E060E0248D211119C0D401ED91FC91F0
:1014D000E80FF91F4081369EF001379EF00D112470
:1014E0002B853C85E20FF31F448F968F858F10A2CA
:1014F000178E41E0C9010E94C00806C06F5F7F4F90
:1015000036966A307105F1F6B394B6CFA394A3CFA3
:10151000D12CD80191968C918111D82E0A5F1F4F42
:10152000E016F106B1F70E945308EB81FC8160835D
:10153000718382839383DD2041F1AB85BC859196D5
:101540008C919197882309F15F968D919C9190974A
:101550000197D9F45C968C912C960FB6F894DEBF67
:101560000FBECDBFDF91CF911F910F91FF90EF90F4
:10157000DF90CF90BF90AF909F908F907F906F90B3
:101580005F904F903F902F900895E981FA811082EB
:1015900080E0E2CF41708B859C85ADCF089520918E
:1015A0002B05260F3327331F21323105ECF4209110
:1015B0007405FC0190E080E0243069F082E0089539
:1015C000A0912B052191AC01455F5A4FA40FB52F77
:1015D000B11D2C930196861798F380912B05680F07
:1015E00060932B0580E0089581E0089510927405C2
:1015F00081E08093730510924E0561E084E10E94C2
:10160000920761E085E10E949207E9EBF0E08081BA
:101610008E7F808380818D7F808388E48093B80073
:1016200085E48093BC000895CF93DF9391E090937D
:101630000A058823B9F0C091B800D091BA00809112
:10164000BC008A7B8093BC0060E084E10E9492072A
:1016500060E085E10E9492070E94F60AD093BA00EA
:10166000C093B800DF91CF9108950895E091A3054C
:101670008091A205E81730F4F0E0E651FB4F80813D
:1016800090E008958FEF9FEF08959091A3058091CA
:10169000A2052FEF3FEF981748F4E92FF0E0E6514D
:1016A000FB4F208130E09F5F9093A305C90108950F
:1016B0008091A2059091A305891B990B0895CF9263
:1016C000DF92EF92FF920F931F93CF93DF937C01F2
:1016D000CB018A0120917A05222389F0EB016B016D
:1016E000C40ED51ECC15DD0569F06991D701ED91C9
:1016F000FC910190F081E02DC7011995F3CF642F83
:101700000E94CF0AC801DF91CF911F910F91FF90E6
:10171000EF90DF90CF900895CF93DF931F92CDB7D6
:10172000DEB7698320917A052223F9F02091A00584
:10173000203258F021E030E0FC013383228390E036
:1017400080E00F90DF91CF9108958091A105E82F5F
:10175000F0E0E558FA4F998190838F5F8093A1055F
:101760008093A00581E090E0ECCF61E0CE0101968E
:101770000E94CF0AF7CFCF92DF92EF92FF920F93A2
:101780001F93CF93DF93FC01C48121E020937A055E
:10179000C0939B051092A1051092A0058385682B2C
:1017A0008DE297E00E948C0BD091A005D13208F019
:1017B00092C00E94FC076B017C018091740581112D
:1017C00065C082E08093740581E0809373058FEF9C
:1017D0008093720510927105D0937005ABE7B5E068
:1017E000E0E5F5E080E0D81385C010924F058091C8
:1017F0004F05CC0FC82BC0934F0580914E0581300B
:1018000009F07CC010924E050E94FC076B017C0120
:1018100080914F058093BB0080917605909177056C
:10182000A0917805B0917905892B8A2B8B2B99F0A3
:101830000E94FC07009176051091770520917805AC
:10184000309179056C197D098E099F0906171707D4
:1018500028073907E0F18091BC0083FDD9CF85ECE2
:101860008093BC000E94FC076B017C018091740591
:10187000823009F445C0809172058F3F61F18091FB
:101880007205803241F18091720525C08091760504
:1018900090917705A0917805B0917905892B8A2BD5
:1018A0008B2B09F48ACF0E94FC07009176051091DA
:1018B000770520917805309179056C197D098E099D
:1018C0009F09061717072807390708F076CF809178
:1018D00075050E94140B1092A1051092A00510929C
:1018E0007A05DF91CF911F910F91FF90EF90DF90DC
:1018F000CF9008959D9191938F5F75CF85EEB0CF76
:101900008091760590917705A0917805B091790541
:10191000892B8A2B8B2B09F4A9CF0E94FC070091FD
:1019200076051091770520917805309179056C192D
:101930007D098E099F09061717072807390708F040
:1019400095CFC5CF90E080E00895209103073091B6
:1019500004078091020741E0480FF901E80FF11DEB
:101960009081903219F0809302070895842FF3CF6D
:10197000809102078F5F809302070895E09102072C
:101980008091030790910407E80FF92FF11D8081E2
:101990000895FB0101900020E9F73197AF01461B44
:1019A000570B0C9461088F929F92AF92BF92EF9267
:1019B000FF920F931F93CF93DF93CDB7DEB7A1971D
:1019C0000FB6F894DEBF0FBECDBF7C01FA01CB018C
:1019D00019A2223008F42AE08E010F5D1F4F822EDB
:1019E000912CB12CA12CBF01A50194010E94193E9C
:1019F000F901CA016A300CF5605DD8016E938D0162
:101A0000232B242B252B79F790E080E0109721F0F1
:101A1000BD01C7010E94C90CA1960FB6F894DEBFA4
:101A20000FBECDBFDF91CF911F910F91FF90EF902F
:101A3000BF90AF909F908F900895695CDECF611545
:101A4000710511F00C94C90C90E080E00895462FC8
:101A500050E070E060E02AE00C94D30C0F931F93E9
:101A6000CF938C01C62F0E94BB0B6C2F6460C80102
:101A70000E94BB0B6C2F6B7FC8010E94BB0B83ECD9
:101A800090E00197F1F7CF911F910F9108950F9377
:101A90001F93CF93DF938C01D62FC42F607F642BCD
:101AA0000E942E0D80E1D89FB00111246C2BC8013B
:101AB000DF91CF911F910F910C942E0D41E00E9468
:101AC000470D81E090E008950F931F93CF93DF932C
:101AD0008B0198E0899FB0011124606440E083E2AB
:101AE00098E00E94470DE801085F1F4F699183E26B
:101AF00098E00E945E0DC017D107C1F7DF91CF912A
:101B00001F910F910895EF92FF920F931F93CF9320
:101B1000DF938C017B01D0E0C0E0F701EC0FFD1FEB
:101B20006491662331F041E0C8010E94470D21967F
:101B3000F4CFCE01DF91CF911F910F91FF90EF90E5
:101B4000089541E00E94470D81E090E008950F93D1
:101B50001F93CF93DF93009779F0162F082FC02F94
:101B6000D92F6991662341F087E198E00E94A10D89
:101B70008C2F801B8117A8F3DF91CF911F910F91BC
:101B800008954F925F926F927F928F929F92AF9241
:101B9000BF92CF92DF92EF92FF920F931F93CF935A
:101BA0006B017C01742EAC019B010E94EB3D6EEA3F
:101BB00072E0811126C046015701E894B7F82FEF73
:101BC0003FEF4FE75FE7C501B4010E94EB3D811194
:101BD0000CC02FEF3FEF4FE75FE7C501B4010E9454
:101BE0003D3962EB72E0181664F02FEF3FEF4FE7DC
:101BF0005FE4C701B6010E94203C1816ACF466EB06
:101C000072E087E198E0CF911F910F91FF90EF90E4
:101C1000DF90CF90BF90AF909F908F907F906F900C
:101C20005F904F900C94C90C2FEF3FEF4FE75FECA4
:101C3000C701B6010E943D3987FDE1CF20E030E0C9
:101C4000A901C701B6010E943D3910E000E087FFFD
:101C50000AC06DE287E198E00E94A10D8C01F7FABD
:101C6000F094F7F8F094C0E060E070E080E09FE36B
:101C70007C1641F020E030E040E251E40E94A43ABA
:101C8000CF5FF6CFA70196010E94D2392B013C010C
:101C90000E94573B4B015C012AE0BC01A40187E193
:101CA00098E00E94D30C7C01E00EF11ECC23D1F110
:101CB000C501B4010E9442399B01AC01C301B201CC
:101CC0000E94D1394B015C016EE287E198E00E94ED
:101CD000A10DE80EF91EC15028F120E030E040E2ED
:101CE00051E4C501B4010E946E342B013C010E94F5
:101CF000573B4B01B12CA12C2AE0B501A40187E18F
:101D000098E00E94D30CE80EF91EC501B4010E94B0
:101D100042399B01AC01C301B2010E94D1394B0190
:101D20005C01D9CFC701CF911F910F91FF90EF9028
:101D3000DF90CF90BF90AF909F908F907F906F90EB
:101D40005F904F900895AB01770F660B770B2AE0F9
:101D50000C94D30CCF93DF9300D000D01F921F922E
:101D6000CDB7DEB728E0E6E3F2E0DE0111960190A0
:101D70000D922A95E1F7FC012085241708F44FEF16
:101D800050E0440F551F21E030E02C0F3D1F420F63
:101D9000531FFA012081620F606840E028960FB659
:101DA000F894DEBF0FBECDBFDF91CF910C94470DED
:101DB00041E062E083E298E00E94AA0E6AEF75E0DB
:101DC00083E298E00E941F0D6CE67BE083E298E0DE
:101DD0000C94830D40E061E00E94470D8BE39FE18E
:101DE0000197F1F7089583E298E00E94EA0E40E03F
:101DF00060E083E298E00E94AA0E809112076DE4F1
:101E00007DE0811102C06CE57DE083E298E00E94F4
:101E1000830D41E060E083E298E00E94AA0E6CE846
:101E20007DE083E298E00E94830D87E198E00E94C4
:101E3000EA0E40E060E087E198E00E94AA0E6CE7BD
:101E40007DE087E198E00E94830D41E060E087E15A
:101E500098E00E94AA0E6BE67DE087E198E00C9482
:101E6000830DEF92FF920F931F93CF93DF93EC01BB
:101E700083E298E00E94EA0E40E060E083E298E0AE
:101E80000E94AA0E6CE37DE083E298E00E94830D3D
:101E900041E060E083E298E00E94AA0EFE0101901A
:101EA0000020E9F731978F010C1B1D0BF12CE12C61
:101EB000E016F10664F4699183E298E00E94A10DB6
:101EC0008FEFE81AF80A80E1E816F10489F787E154
:101ED00098E00E94EA0E40E060E087E198E00E940E
:101EE000AA0E6BE27DE087E198E00E94830D41E05D
:101EF00060E087E198E00E94AA0E6AE17DE087E158
:101F000098E0DF91CF911F910F91FF90EF900C948B
:101F1000830DFF920F931F93CF93DF93D82FC62F7C
:101F2000F42E890183E298E00E94EA0E40E060E02E
:101F300083E298E00E94AA0E61E17DE083E298E0EE
:101F40000E94830D6F2D83E298E00E94270D6FE0C1
:101F50007DE083E298E00E94830D6F2D83E298E09C
:101F60000E94270D41E060E083E298E00E94AA0E03
:101F70006CE07DE083E298E00E94830D6D2F70E0BD
:101F80006F5F7F4F83E298E00E94A30E6AE07DE0DE
:101F900083E298E00E94830D6C2F70E06F5F7F4FAB
:101FA00083E298E00E94A30E67E07DE083E298E080
:101FB0000E94830DB80183E298E00E941F0D65E046
:101FC0007DE083E298E00E94830D87E198E00E9423
:101FD000EA0E40E060E087E198E00E94AA0E65EF1B
:101FE0007CE087E198E00E94830D41E060E087E1BA
:101FF00098E00E94AA0E65EE7CE087E198E0DF9110
:10200000CF911F910F91FF900C94830D0F931F930D
:10201000CF93DF93D82F8B01C42F83E298E00E94E7
:10202000EA0E40E060E083E298E0D13069F50E947A
:10203000AA0E64ED7CE083E298E00E94830D41E00B
:1020400060E083E298E00E94AA0E63EC7CE0CC237F
:1020500011F062EB7CE083E298E00E94830D41E0A6
:1020600062E083E298E00E94AA0EB80183E298E061
:102070000E941F0D68E67CE083E298E0DF91CF913B
:102080001F910F910C94830D0E94AA0E61EA7CE0CF
:1020900083E298E00E94830D41E060E083E298E0F3
:1020A0000E94AA0E60E97CE0CC23A9F26FE77CE0F5
:1020B000C13089F26EE67CE0CECF8F929F92AF92D4
:1020C000BF92CF92DF92EF92FF9280911107811120
:1020D0002AC187E198E00E94EA0E40E060E087E1D3
:1020E00098E00E94AA0E61E67CE087E198E00E94F9
:1020F000830DE0910607F0E0EE0FFF1FE25AFD4F5F
:102100006081718187E198E00E941F0D8091060730
:10211000833099F46FE57CE087E198E00E94830DBD
:10212000E0910707F0E0EE0FFF1FEA5AFD4F6081D4
:10213000718187E198E00E941F0D41E060E087E136
:1021400098E00E94AA0E6DE57CE087E198E00E948D
:10215000830DE0910807F0E0EE0FFF1FEE5AFD4FF0
:102160006081718187E198E00E941F0D6BE57CE042
:1021700087E198E00E94830D80910907882331F060
:1021800064E57CE087E198E00E94830D80910A0776
:10219000882331F06FE47CE087E198E00E94830DB2
:1021A00068E47CE087E198E00E94830DC0900B0713
:1021B000D0900C07E0900D07F0900E07A701960154
:1021C000C701B6010E94EB3D64E47CE0811125C0AB
:1021D00046015701E894B7F82FEF3FEF4FE75FE76D
:1021E000C501B4010E94EB3D811123C02FEF3FEFE9
:1021F0004FE75FE7C501B4010E943D391816CCF4E2
:1022000020E030E0A901C701B6010E94203C6FE345
:102210007CE0181614F06AE37CE087E198E0FF9018
:10222000EF90DF90CF90BF90AF909F908F900C94E5
:10223000830D20E030E0A901C701B6010E943D39BD
:10224000811103C068E37CE0E8CF20E030E0A90121
:10225000C701B6010E94203C1816BCF420E034E20D
:1022600044E759E4C701B6010E94203C87FD22C023
:1022700042E0C701B601FF90EF90DF90CF90BF9092
:10228000AF909F908F900C94C10D20E034E244E712
:1022900059ECC701B6010E943D3918164CF72FE6DC
:1022A00032E143E85AEBC701B6010E94203C181600
:1022B0005CF4DECF2FE632E143E85AE3C701B60112
:1022C0000E943D3987FDD4CFC701B6010E94503B23
:1022D0004B015C010E9444399B01AC01C701B6016E
:1022E0000E943D3944E08111C4CF2AE0B501A40128
:1022F000B7FE0DC06DE287E198E00E94A10D442772
:102300005527BA01481959096A097B092AE087E16A
:1023100098E0FF90EF90DF90CF90BF90AF909F90AC
:102320008F900C94D30CFF90EF90DF90CF90BF90E4
:10233000AF909F908F900895CF93DF9383E298E0C2
:102340000E94EA0E40E060E083E298E00E94AA0E5C
:1023500060E27CE083E298E00E94830DCEEAD6E062
:10236000688183E298E00E94270D6EE17CE083E2C1
:1023700098E00E94830D688183E298E00E94270D17
:1023800087E198E00E94EA0E40E060E087E198E093
:102390000E94AA0E69E17CE087E198E00E94830D2B
:1023A000E091AF06F0E0EE0FFF1FE35FF34F6081B7
:1023B000718187E198E00E941F0D41E060E087E1B4
:1023C00098E00E94AA0E6DEF7BE087E198E00E9402
:1023D000830D23EB36E048816091B1068091B00611
:1023E000DF91CF910C94890F9F92AF92BF92CF92C1
:1023F000DF92EF92FF920F931F93CF93DF93809121
:102400000B06CBE0D6E0811102C0D0E0C0E0109115
:10241000280683E298E00E94EA0E40E060E083E252
:1024200098E00E94AA0EE9ECF5E001900020E9F79F
:10243000CF018A5C95407C01082F811143C06CEE6E
:102440007BE083E298E00E94830D41E060E083E25C
:1024500098E00E94AA0E209709F464C0888188231E
:1024600009F460C0FE0101900020E9F7EC1BE031A7
:1024700058F400E10E1B10E060E283E298E00E9455
:10248000A10D1F5F0113F8CF6DE383E298E00E9476
:10249000A10D8E01015F1F4F6991662339F083E220
:1024A00098E00E94A10D0C171D07B1F7DF91CF91A5
:1024B0001F910F91FF90EF90DF90CF90BF90AF9062
:1024C0009F900895181708F010E0C12ED12CF60146
:1024D000E753FA4F5F0180E1982E910E191559F0DC
:1024E000101748F4F50161915F0183E298E00E94C2
:1024F000A10D1F5FF3CF013108F4A7CF40E06FE0DB
:1025000083E298E00E94AA0EF0E1CF0ED11C6CE3AA
:10251000EC141D0411F00CF06EE383E298E00E94CD
:10252000A10D93CF6BED7BE083E298E0DF91CF913B
:102530001F910F91FF90EF90DF90CF90BF90AF90E1
:102540009F900C94830D83E298E00E94EA0E8091A4
:1025500007078130E1F070F0833011F141E060E075
:1025600083E298E00E94AA0E69E77BE083E298E0AC
:102570000C94830D40E060E083E298E00E94AA0E94
:102580006DEB7BE083E298E00E94830DE7CF40E0B3
:1025900060E083E298E00E94AA0E6CEA7BE0F2CF52
:1025A00040E060E083E298E00E94AA0E80911F065E
:1025B0006AE87BE0813031F76BE97BE0E3CF0F9392
:1025C0001F93CF93DF938C01EB0187E198E00E948A
:1025D000EA0E40E060E087E198E00E94AA0E60E128
:1025E000F801808191810E94A70D8C819D81892BAA
:1025F00079F041E060E087E198E00E94AA0E60E196
:1026000088819981DF91CF911F910F910C94A70D33
:10261000DF91CF911F910F910895CF92DF92EF92AA
:10262000FF920F931F93CF93DF937C0183E298E097
:102630000E94EA0EE70109900020E9F72197CE19E0
:10264000DF0940E060E083E298E00E94AA0E6E019C
:10265000C031D1051CF420E1C22ED12C86010051DD
:1026600011090C171D0774F4C016D10659F0F701B3
:10267000E00FF11F608183E298E00E94A10D0F5FDF
:102680001F4FEFCF41E060E083E298E00E94AA0E86
:102690006FE577E083E298E00E94830DE091060702
:1026A000F0E0EE0FFF1FE25AFD4F6081718183E27F
:1026B00098E00E941F0D6DE577E083E298E00E94AC
:1026C000830DE0910807F0E0EE0FFF1FEE5AFD4F7B
:1026D0006081718183E298E00E941F0D6BE577E0D5
:1026E00083E298E00E94830D80910907882331F0EE
:1026F00067E577E083E298E00E94830D80910A0706
:10270000882371F063E577E083E298E0DF91CF9171
:102710001F910F91FF90EF90DF90CF900C94830D5D
:10272000DF91CF911F910F91FF90EF90DF90CF90AD
:102730000895E0ECF6E0108210AAE6E0F7E01186DA
:102740001286138214821092110780EC96E00E9488
:102750000D130C945D100F931F93CF93DF938C0197
:10276000EB0187E198E00E94EA0E40E060E087E13B
:1027700098E00E94AA0EB80187E198E00E94830DBC
:10278000209779F041E060E087E198E00E94AA0E8E
:10279000BE0187E198E0DF91CF911F910F910C94DA
:1027A000830DDF91CF911F910F9108950F931F9388
:1027B000CF93DF93EC011092A3051092A205109223
:1027C000A1051092A0050E94F60A8FE598E090936B
:1027D0009F0580939E0580E698E090939D058093E9
:1027E0009C051D828A85823010F098E09D83888741
:1027F00062E370E080E090E00E9421086B85CE01EA
:102800000E94BB0B68EE73E080E090E00E9421081C
:1028100060E3CE010E942E0D0BE416E4C80101977F
:10282000F1F760E3CE010E942E0DC8010197F1F788
:1028300060E3CE010E942E0D83E592E00197F1F74F
:1028400060E2CE010E942E0D6D81606240E0CE01FB
:102850000E94470D84E08E8340E06CE0CE010E9430
:10286000470DCE010E94EA0E82E08F8340E066E0D1
:10287000CE010E94470D40E062E0CE010E94470D6C
:102880008BE39FE10197F1F7DF91CF911F910F91BA
:10289000089570932F0660932E0640933006109291
:1028A000310649E050E0BC0182E396E00E946D40B1
:1028B00010923B0610923D0610923C06089521E0CE
:1028C0002093050740E150E0BC0181EF96E00E94B3
:1028D0006D4010920107089582E08093AE06109239
:1028E000AF0684E2E2E4F6E0DF01982F1D929A95AC
:1028F000E9F7E6E6F6E0DF011D928A95E9F7109226
:10290000B0061092B1061092B2061092B306109261
:10291000BF060C949C11EF92FF920F931F93CF93DD
:10292000DF93CDB7DEB763970FB6F894DEBF0FBE67
:10293000CDBFE0912E06F0912F06309719F18091CE
:1029400030068823F9F090913106981710F0109214
:1029500031068091310690E0880F991FE80FF91F2A
:102960006591749140E150E0CE0101960E945E3580
:10297000198A898110E000E0811111C0109231069E
:102980000E948B1463960FB6F894DEBF0FBECDBFC6
:10299000DF91CF911F910F91FF90EF90089580915B
:1029A00030061817B8F4812F90E0880F991FE09136
:1029B0002E06F0912F06E80FF91F6591749141E002
:1029C00050E0CE0142960E945E358A8981110F5FE8
:1029D0001F5FE5CFF0903D06E0903C061091310678
:1029E00087E198E00E94EA0E40E060E087E198E02D
:1029F0000E94AA0E68E082E396E00E94A70D68EDAF
:102A00007BE087E198E00E94830D612F70E06F5FAB
:102A10007F4F87E198E00E94A30E66ED7BE087E19F
:102A200098E00E94830D602F87E198E00E94270DB7
:102A300064ED7BE087E198E00E94830D61ED7BE02F
:102A4000E11004C0FF2031F06EEC7BE087E198E0FC
:102A50000E94830D41E060E087E198E00E94AA0EA9
:102A600060E1CE0101960E94A70D8CCF1092C9059E
:102A70001092F9051092FA0510920A0610920B06B0
:102A80001092240610922506109226061092270610
:102A90001092200610922106109222061092230610
:102AA00010921F06109228061092290610922A06EC
:102AB00010922B0610922C0610922D0610923C06B6
:102AC00010923D0610923E0610923F06109240066C
:102AD000109241061092090710920A078091070789
:102AE000813089F040F08230A1F08330C1F00E9443
:102AF000F4110C948B1448E06CE57BE08AEB92E0D7
:102B00000E944914F4CF48E06CE47BE081EC92E051
:102B1000F7CF47E06EE37BE089EC92E0F1CF47E04E
:102B200060E37BE08EEC92E0EBCF8F929F92AF92CE
:102B3000BF92CF92DF92EF92FF920F931F93CF93AA
:102B4000DF936B017C01EA01122FAC019B010E9413
:102B5000EB3D412F50E06FED72E0811128C046013E
:102B60005701E894B7F82FEF3FEF4FE75FE7C50154
:102B7000B4010E94EB3D811129C02FEF3FEF4FE7D9
:102B80005FE7C501B4010E943D391816FCF4012F1E
:102B900010E020E030E0A901C701B6010E94203C0E
:102BA00065ED72E0181614F06AED72E0A801CE012E
:102BB000DF91CF911F910F91FF90EF90DF90CF9019
:102BC000BF90AF909F908F900C946D4020E030E0CC
:102BD000A901C701B6010E943D39811105C0412FED
:102BE00050E063EA74E0E3CFC701B6010E94503BB6
:102BF000062FB72EA82E992E0E9444399B01AC01B6
:102C0000C701B6010E943D39811140C020E030E08B
:102C1000A901C701B6010E94203C18166CF528E2F4
:102C20003BE64EE65EE4C701B6010E943D3987FFF0
:102C300036C09F92AF92BF920F9383EE92E09F9324
:102C40008F931F921F93DF93CF930E947C40EDB729
:102C5000FEB73A960FB6F894FEBF0FBEEDBFDF91F8
:102C6000CF911F910F91FF90EF90DF90CF90BF9089
:102C7000AF909F908F90089528E23BE64EE65EEC81
:102C8000C701B6010E94203C18169CF220E030E0FB
:102C9000A901C701B6010E94203C181694F429EF3F
:102CA00032E045E150E5C701B6010E94203C87FDB6
:102CB0001DC08E0124E04AE0C701B6010E942C35F8
:102CC000CECF29EF32E045E150EDC701B6010E94B9
:102CD0003D39181674F727E137EB41ED58EBC70182
:102CE000B6010E94203C18165CF4E3CF27E137EBD5
:102CF00041ED58E3C701B6010E943D3987FDD9CFA8
:102D00008E0126E041E0C701B6010E942C35FE018C
:102D1000AF014C1B5D0B8191882309F4A0CF8E324B
:102D2000B9F7FE0101900020E9F7CF010197FC01FE
:102D30003197CF012081BF016C1B7D0B46175707D0
:102D400024F4203311F41082F2CF2E3209F087CF11
:102D5000108285CF4F925F926F927F928F929F9257
:102D6000AF92BF92CF92DF92EF92FF92CF93DF9319
:102D70000E94A50C0E94BE0C883209F052C00E942D
:102D8000B80C0E94F8176B017C010E94A50C0E94F0
:102D9000BE0C893209F040C00E94B80C0E94A50CFC
:102DA0000E94BE0C8E3539F50E94B80C0E9489171E
:102DB0004B015C0120E030E0A901C701B6010E948F
:102DC0003D3987FF92C0C501B4010E94503B072ED8
:102DD000000C880B990B0E944439A50194010E94B4
:102DE0003D39882309F481C087E193E00E945F1494
:102DF000C12CD12C7601C701B601DF91CF91FF9094
:102E0000EF90DF90CF90BF90AF909F908F907F908A
:102E10006F905F904F90089587EE92E00E945F144C
:102E2000BDCF811108C088EF92E00E945F14C12CD1
:102E3000D12C7601B3CF8DEC882E8CEC982EA92C5A
:102E40008DE3B82EC12CD12C7601D0E0C0E00E94D9
:102E5000BE0C682F80ED860F8A30D0F5062E000C50
:102E6000770B60537109072E000C880B990B0E9499
:102E700044392B013C01CC23D1F0A50194010E94DF
:102E80006E349B01AC01C701B6010E94D2396B01BF
:102E90007C012DEC3CEC4CEC5DE3C501B4010E94DF
:102EA0006E344B015C010E94B80CD1E0D0CF20E021
:102EB00030E040E251E4C701B6010E946E349B014C
:102EC000AC01C301B2010E94D2396B017C01EBCF8E
:102ED0006E3231F4C11104C00E94B80CC1E0B7CF0A
:102EE000D1115CCF88E093E099CFA5019401C7018F
:102EF000B601DF91CF91FF90EF90DF90CF90BF9020
:102F0000AF909F908F907F906F905F904F900C94B8
:102F1000F33C0E94A50C0E94BE0C8D3231F40E943D
:102F2000B80C0E94AA16905808958B3211F40E9492
:102F3000B80C0C94AA168F929F92AF92BF92CF9228
:102F4000DF92EF92FF920E9489176B017C018091C2
:102F50000507811131C00E94A50C0E94BE0C8A3267
:102F600059F40E94B80C0E9489179B01AC01C7015B
:102F7000B6010E946E34E9CF8F32F1F40E94B80C92
:102F80000E9489174B015C0120E030E0A9010E94FA
:102F9000203C1816E4F42DE73DE140E956E2C50176
:102FA000B4010E943D3987FF1CC08BE293E00E9470
:102FB0005F14C12CD12C7601C701B601FF90EF90B0
:102FC000DF90CF90BF90AF909F908F9008952DE7A6
:102FD0003DE140E956EAC501B4010E94203C1816C3
:102FE00024F3A5019401C701B6010E94A43AADCF14
:102FF000CF92DF92EF92FF920E949B176B017C01B0
:103000008091050781111EC00E94A50C0E94BE0C74
:103010008B3259F40E94B80C0E949B179B01AC01A3
:10302000C701B6010E94D239E9CF8D3259F40E940E
:10303000B80C0E949B179B01AC01C701B6010E940E
:10304000D139DCCFC701B601FF90EF90DF90CF9070
:103050000895CF92DF92EF92FF920F931F93CF9339
:10306000DF93CDB7DEB7CC59D1090FB6F894DEBFE8
:103070000FBECDBF6C01CB01BA0179018E010F5695
:103080001F4F28E041E00E942C3530E020E0AE01E7
:103090004F5F5F4F18E209E2F601E30FF11D608117
:1030A000822F90E0662329F1243818F52F5F762FC0
:1030B0007F7D840F951FFC017835C9F41083BE0114
:1030C0006F567F4FDA01A20FB11DFB018191BF0145
:1030D0002F5FFD01E41BF50B882321F02F3811F041
:1030E0008D93F3CFE40FF51F00833F5FD5CF60834F
:1030F000FCCF840F951FFC0110825093040740936E
:10310000030710920207109205071092F1060E9421
:10311000F81720910507F7012083C456DF4F0FB63B
:10312000F894DEBF0FBECDBFDF91CF911F910F91FD
:10313000FF90EF90DF90CF9008950F931F93CF9360
:10314000DF93EC0188819981009759F02A813B81B6
:103150002617370730F081E0DF91CF911F910F9153
:1031600008958B016F5F7F4F0E947C3F009759F05D
:10317000998388831B830A832C813D81232B59F7F4
:10318000FC011082E8CF80E0E7CFEF92FF920F932F
:103190001F93CF93DF93FB0101900020E9F7319754
:1031A000E61BF70BE1F07B018C01DC011496CD915D
:1031B000DC91CE0FDF1FBE010E949D18882381F095
:1031C000F8012081318184819581B701820F931F9D
:1031D0000E946640D8011596DC93CE93149781E047
:1031E000DF91CF911F910F91FF90EF900895CF93B2
:1031F000DF93EC0188819981009711F00E94F33EE2
:10320000198218821D821C821B821A82DF91CF9143
:103210000895EF92FF920F931F93CF93DF93EC01EA
:103220008B016115710551F0CB010E9455357C0170
:10323000BC01CE010E949D1881110BC0CE010E94DD
:10324000F718CE01DF91CF911F910F91FF90EF9072
:103250000895FD82EC82B801888199810E944E35E3
:10326000F0CFEF92FF920F931F93CF93DF93EC0178
:103270007B01198218821B821A821D821C82FB012B
:1032800001900020E9F731978F01061B170BB80159
:103290000E949D18811109C0CE01DF91CF911F912D
:1032A0000F91FF90EF900C94F7181D830C83B701DA
:1032B00088819981DF91CF911F910F91FF90EF90BD
:1032C0000C9466409F92AF92BF92CF92DF92EF92A2
:1032D000FF920F931F93CF93DF93EC016B0162EC8E
:1032E00073E00E943119D6011496ED90FC90E11420
:1032F000F10461F1B0E1EB16F10418F080E1E82E81
:10330000F12CD601ED91FC911197EE0DFF1D9080EF
:103310001082AD90BC90A114B10471F0F501019040
:103320000020E9F731978F010A191B09B801CE0176
:103330000E949D18811117C0CE010E94F718F60156
:1033400080819181E80EF91ED7019C92CE01DF9118
:10335000CF911F910F91FF90EF90DF90CF90BF9092
:10336000AF909F9008951D830C83B501888199814A
:103370000E946640E4CFFC0180819181009711F0AA
:103380000C94F33E0895CF92DF92EF92FF920F9349
:103390001F93CF93DF93CDB7DEB72E970FB6F89478
:1033A000DEBF0FBECDBF83E298E00E94EA0E87E148
:1033B00098E00E94EA0E40E060E083E298E00E941C
:1033C000AA0E6EE27CE083E298E00E94830D10E09A
:1033D0008091AE06181708F079C06DE373E0CE0156
:1033E00009960E94311900E0812F90E07C01EE0CDB
:1033F000FF1CE80EF91E8091AE06081758F5C02E86
:10340000D12CF701EC0DFD1DEE0FFF1FEE0FFF1F7E
:10341000E657F94F608171818281938128E0AE0186
:103420004F5F5F4F0E949515BE016F5F7F4FCE01CA
:1034300009960E94C5188091AE068150990BC81656
:10344000D90634F461EC73E0CE0109960E94C518E8
:103450000F5FD1CF61E974E0CE0109960E94C518D3
:1034600011111EC041E060E083E298E00E94AA0EC4
:10347000BE01675F7F4FCE0101960E946219BE01B7
:103480006F5F7F4F83E298E00E948E08CE01019625
:103490000E94BB19CE0109960E94BB191F5F98CFED
:1034A00040E0113009F041E060E087E198E00E94DF
:1034B000AA0EBE01675F7F4FCE0101960E9462197E
:1034C000BE016F5F7F4F87E198E0DECF81E08093A0
:1034D00010072E960FB6F894DEBF0FBECDBFDF915A
:1034E000CF911F910F91FF90EF90DF90CF900895B3
:1034F0003F924F925F926F927F928F929F92AF9284
:10350000BF92CF92DF92EF92FF920F931F93CF93D0
:10351000DF933090AE0602E416E0F12C4C01990FD7
:10352000AA08BB083F1429F1E801E12C3E14E9F098
:1035300049905990699079906E0184E4C80ED11C2D
:10354000C501B4010E94443928A139A14AA15BA157
:103550000E946E34A30192010E94D239F601608369
:10356000718382839383E394E1CFF394045F1F4FCD
:10357000D9CFDF91CF911F910F91FF90EF90DF9006
:10358000CF90BF90AF909F908F907F906F905F9003
:103590004F903F900C94C31985ED8093BC008091AF
:1035A000760590917705A0917805B09179050796F9
:1035B000A11DB11D23E0B695A795979587952A95EE
:1035C000D1F72091BC0024FD03C01092740508952A
:1035D0004091760550917705609178057091790555
:1035E000452B462B472B69F30097A105B10541F008
:1035F0002AE22A95F1F700C00197A109B109E1CFAC
:10360000809175050C94140B1F920F920FB60F92B8
:1036100011242F933F938F939F93AF93BF938091E8
:10362000C1059091C205A091C305B091C405309128
:10363000C00523E0230F2D3758F50196A11DB11DBC
:103640002093C0058093C1059093C205A093C30544
:10365000B093C4058091C5059091C605A091C7059A
:10366000B091C8050196A11DB11D8093C505909329
:10367000C605A093C705B093C805BF91AF919F91B0
:103680008F913F912F910F900FBE0F901F90189523
:1036900026E8230F0296A11DB11DD2CF1F920F92D3
:1036A0000FB60F9211240BB60F922F933F934F93A7
:1036B0005F936F937F938F939F93AF93BF93EF939A
:1036C000FF938091B900887F803609F44DC008F0DF
:1036D00040C0883209F4A9C028F5803109F49DC0A2
:1036E000C8F4882309F4FBC0883009F496C0FF9120
:1036F000EF91BF91AF919F918F917F916F915F916A
:103700004F913F912F910F900BBE0F900FBE0F90D6
:103710001F901895883109F488C0803241F7809352
:10372000720514C0803409F49DC040F48033B9F3AD
:103730008833E9F68093720585ECB0C0803509F4D2
:1037400085C0883509F496C0883489F60E94CC1A61
:10375000CECF883909F48CC038F5883729F050F479
:10376000883611F0803719F683E080937405109243
:103770004D0557C0883809F47BC0803919F080386E
:1037800009F0B5CF80914D05803208F071C0E0910D
:103790004D0581E08E0F80934D058091BB00F0E0D8
:1037A000E35DFA4F80833DC0803B39F0E0F4803A1E
:1037B00009F479C0883A09F09ACF84E080937405BF
:1037C00010922C0510922B05E0919E05F0919F051B
:1037D000199580912B0581110FC081E080932B05F5
:1037E00010920B0509C0803C09F4A6CF883C09F46F
:1037F000A3CF883B09F07BCFE0912C0581E08E0FB1
:1038000080932C05F0E0E55FFA4F80818093BB0048
:1038100090912C0580912B0529C080914F058093B4
:10382000BB0085EC8093BC0062CF909171058091C4
:103830007005981758F5E091710581E08E0F80931F
:103840007105F0E0E05BFA4F8081E9CFE09171050E
:1038500081E08E0F809371058091BB00F0E0E05B0A
:10386000FA4F808390917105809170059817C8F286
:1038700085E8D8CFE091710581E08E0F80937105C6
:103880008091BB00F0E0E05BFA4F8083809173058C
:1038900081115CCF81E080934E0584EA8093BC0067
:1038A0001092740524CF85EC8093BC0010927405AF
:1038B00080914D05803230F4E0914D05F0E0E35DFC
:1038C000FA4F108260914D0570E0E0919C05F091F7
:1038D0009D058DE295E0199510924D0508CF109247
:1038E000720534CF1092300710922F0788EE93E0C4
:1038F000A0E0B0E08093310790933207A0933307A4
:10390000B09334078AE692E090932E0780932D07B8
:10391000109226081092250826E832E030932408F9
:103920002093230887E28093270890E190932C0846
:1039300082E080932D0810922E0810921A0810929F
:103940001908309318082093170821E220931B08C8
:103950009093200880932108109222081092AA07C1
:103960001092AE071092AD071092AF078CE792E06D
:103970009093A9078093A807E4ECF7E010821482E3
:1039800013821582369688E0E030F807B9F78CE2AA
:1039900092E090930B0880930A0888E292E090935B
:1039A0000D0880930C0884E080930E0880930F0824
:1039B0008EE992E090930908809308088AE090E0ED
:1039C000909311088093100884EF91E0909313086E
:1039D000809312081092160810921508109204088D
:1039E0001092050810920608109207081092140809
:1039F00010923B0710923F0710923E07109240072B
:103A00008CE792E090933A0780933907E5E5F7E079
:103A100081E997E0108214821382158236968E1700
:103A20009F07C1F784E292E090939C0780939B07E5
:103A300080E292E090939E0780939D0784E08093BC
:103A40009F078093A0078EE892E090939A07809357
:103A500099078AE090E09093A2078093A10784EFF2
:103A600091E09093A4078093A3071092A707109268
:103A7000A60710929507109296071092970710923A
:103A800098071092A5070895CF93DF93CDB7DEB7BF
:103A9000C657D1090FB6F894DEBF0FBECDBF7894DC
:103AA00084B5826084BD84B5816084BD85B5826043
:103AB00085BD85B5816085BD80916E0081608093F4
:103AC0006E0010928100809181008260809381005D
:103AD000809181008160809381008091800081606D
:103AE000809380008091B10084608093B1008091C8
:103AF000B00081608093B0008091910082608093DB
:103B0000910080919100816080939100809190005C
:103B10008160809390008091A10082608093A100D9
:103B20008091A10081608093A1008091A0008160BC
:103B30008093A00080912101826080932101809177
:103B40002101816080932101809120018160809317
:103B5000200180917A00846080937A0080917A00BD
:103B6000826080937A0080917A00816080937A00ED
:103B700080917A00806880937A001092C100109240
:103B8000A3051092A2051092A1051092A0050E9413
:103B9000F60A8FE598E090939F0580939E0580E656
:103BA00098E090939D0580939C056CE271E080E025
:103BB00090E00E94210810920607109207071092C9
:103BC00008071092090710920A0710920B0710922B
:103BD0000C0710920D0710920E0710920F0710920B
:103BE000100783E298E00E94D61318E010932E0885
:103BF00060E083E298E00E94BB0B87E198E00E94BE
:103C0000D6131093220860E087E198E00E94BB0B76
:103C100068E172E080E00E94640D60E172E081E0A2
:103C20000E94640D68E072E082E00E94640D60E032
:103C300072E083E00E94640D83E298E00E94EA0E45
:103C400040E062E083E298E00E94AA0E66E977E035
:103C500083E298E00E94830D41E060E083E298E017
:103C60000E94AA0E64E877E083E298E00E94830D48
:103C700087E198E00E94EA0E40E061E087E198E089
:103C80000E94AA0E62E777E087E198E00E94830D28
:103C900041E060E087E198E00E94AA0E61E677E0EB
:103CA00087E198E00E94830D68E978E080E090E089
:103CB0000E94210883E298E00E94EA0E87E198E0E2
:103CC0000E94EA0E0E9499138E01075D1F4F2B96EA
:103CD0001FAF0EAF2B97095111092F961FAF0EAFD3
:103CE0002F979E012F5F3F4F19018E010B5E1F4FD3
:103CF0002D961FAF0EAF2D9788EA97E00E943209EC
:103D0000182F89E397E00E943209082F8091060757
:103D10000D3409F0C9C090E0019683709927182FDF
:103D2000809306071092090710920A0710920F0756
:103D30001092100783E298E00E94EA0E87E198E073
:103D40000E94EA0E40E060E083E298E00E94AA0E42
:103D500061E678E083E298E00E94830D41E060E054
:103D600083E298E00E94AA0E60E578E083E298E0A2
:103D70000E94830D41E064E083E298E00E94AA0E75
:103D8000123009F451C0133009F469C0113089F1BF
:103D900067E478E083E298E00E94830D40E060E011
:103DA00087E198E00E94AA0E66E378E087E198E058
:103DB0000E94830D41E060E087E198E00E94AA0E36
:103DC00066E278E087E198E00E94830D68E077E0A2
:103DD00080E090E00E942108123011F40C94862CAF
:103DE000133009F457C0113009F4BAC60E94991370
:103DF00053C06DE178E083E298E00E94830D40E0DB
:103E000060E087E198E00E94AA0E6CE078E087E12C
:103E100098E00E94830D41E060E087E198E00E9415
:103E2000AA0E68EF77E0CECF6FEE77E083E298E0FE
:103E30000E94830D40E060E087E198E00E94AA0EB6
:103E40006EED77E087E198E00E94830D41E060E04D
:103E500087E198E00E94AA0E6DEC77E0B3CF64ECA6
:103E600077E083E298E00E94830D40E060E087E124
:103E700098E00E94AA0E63EB77E087E198E00E9449
:103E8000830D41E060E087E198E00E94AA0E62EABB
:103E900077E098CF0E94361580E090E0892B09F4F6
:103EA0002BCF0E9400001DCF813009F432C608F4E8
:103EB00076C0823011F40C94B92B833069F711234A
:103EC00031F0133411F00C94F62E0E9436150023B5
:103ED00099F080910907033511F00C948D3281110E
:103EE0000C94B9328091070790E00196837099276E
:103EF000809307070E9436150E9453086B017C01CE
:103F000090913C06911106C080913D06882311F4E2
:103F10000C94E23340913E0650913F06609140067A
:103F20007091410697018601041B150B260B370B78
:103F3000B901A801403B54406105710510F40C948F
:103F4000E233C0923E06D0923F06E0924006F092E5
:103F5000410680913106992311F40C94D53390E0F9
:103F600001966091300670E00E94053E8093310614
:103F7000880F991FE0912E06F0912F06E80FF91F88
:103F80006591749140E150E0C1010E945E358981E4
:103F900081110C94E033109231060C94E03311231C
:103FA00009F4DFC080910F07882309F49DC0133402
:103FB00009F49CC082EB93E00E94310F002309F4C6
:103FC0006BCF033409F02DC21091100760961FAF1C
:103FD0006097111104C08091F0068111B6C2D09093
:103FE0000B07E0900C07F0900D0710910E0721E0F1
:103FF00060962FAF609750900A07C09009076090B5
:1040000008076110C9C22BED3FE049E450E46D2D73
:104010007E2D8F2D912F0E946E3420E030E044E3FE
:1040200053E40E94A43A4B015C010C3609F4BBC472
:104030000CF0B7C20E3509F4E0C4043609F467C3C6
:10404000013509F031C3CC2009F4C6C22D2D3E2D17
:104050004F2D512F6D2D7E2D8F2D912F0E946E345F
:104060005B01C82E092F61E773E040E150E0CE010B
:1040700089960E946D4019AE24E1A101B5018C2DF5
:10408000902F0E949515C501AC2DB02F80930B0782
:1040900090930C07A0930D07B0930E0781E08093D7
:1040A000100760960FAD60970111AEC48091F006C5
:1040B0008150990B8F3F980709F409C5FC01E05422
:1040C000F94F2081322F3D7F3D3209F400C536ED96
:1040D000320F323008F4FBC42E3509F4F8C428320C
:1040E00009F4F5C40197E6CF133449F40E949913FB
:1040F0006CEA78E081EB98E00E94AB1332C01D338C
:1041000009F045C18091F006882311F40C946434C1
:1041100019A680EC96E09093040780930307109211
:104120000207109205071092F1060E94F8176B0122
:104130007C0180910507882311F40C94233440E11D
:1041400050E061EF76E0CE0189960E946D4081E0FB
:1041500080930F0789A58823A1F1CE0189960E943B
:10416000310F002309F498CE80910F07811129CFD8
:104170000E3309F43BCE0CF068C10E3209F4C4C111
:104180000CF057C188ED800F823008F01DCF809170
:104190001007882341F0083231F41092C0061092C3
:1041A000F00610921007E091F006EE3208F0C8C158
:1041B00081E08E0F8093F006F0E0E054F94F008329
:1041C000BAC18FE393E0CBCF8EE593E0C8CF24E173
:1041D000A101C701B6010E949515C0920B07D092AC
:1041E0000C07E0920D07F0920E0781E08093100714
:1041F00010920F0783E298E00E94EA0EE0ECF6E0EE
:1042000001900020E9F79F01215C36407901F1011E
:1042100001900020E9F731976F01C218D30840E000
:1042200060E083E298E00E94AA0EC70130E1E31645
:10423000F10414F480E190E0DC01A055B94F5D0178
:10424000C501805C96408E159F0544F4F50161918F
:104250005F0183E298E00E94A10DF2CF41E060E0AF
:1042600083E298E00E94AA0E6DE383E298E00E9448
:10427000A10D7101F0E1CF16D10408F048C0B101E1
:1042800083E298E00E941F0D109211073F922F9237
:1042900083EC93E09F938F931F9281E18F932D96F0
:1042A000EFAD2D97EF932C96FFAD2C97FF930E94C7
:1042B0007C40BE016B5E7F4FCE018D5B9F4F0E94A5
:1042C00031191EAE1DAE21961FAE1EAE219723964C
:1042D0001FAE1EAE239760EA78E0CE01CD960E9415
:1042E0000919BE016D5B7F4FCE01CD960E94DF1292
:1042F000CE01CD960E94BB19CE018D5B9F4F0E94CF
:10430000BB190FB6F894DEBF0FBECDBF2ACFD701C1
:104310006D917D0183E298E00E94A10D2F96EEAD94
:10432000FFAD2F97EE16FF0691F787E198E00E9408
:10433000EA0E40E060E087E198E00E94AA0E6FE894
:1043400078E087E198E00E94830D41E060E087E13A
:1043500098E00E94AA0E9E01205F3F4F79018FE0F6
:10436000A82EB12CD7016D917D0187E198E00E94C4
:10437000A10DBFEFAB1ABB0AAC14BD0424F43FE19E
:10438000A316B10479F781E0809311077FCF809164
:104390001007882371F0812F8D7F8D3299F086ED83
:1043A000810F823078F01092C0061092F0061092C1
:1043B0001007E091F006EE3210F162E778E08EE748
:1043C00098E09ACE60910B0770910C0780910D07D1
:1043D00090910E0724E1A1010E949515F101019031
:1043E0000020E9F73197E219F309E093F00640E382
:1043F00050E0B10180EC96E00E946D40D8CF81E0A2
:104400008E0F8093F006F0E0E054F94F1083E82F10
:10441000F0E0E054F94F108280EC96E00E940D131A
:10442000A0CE0E3309F4E2CC82EB93E00E94310F70
:1044300033CD0C3309F0C8CDE091F006EE2309F43A
:104440002BCDE150E093F00677C00335B9F02CF4A2
:10445000013401F1023481F3B7CD0E3509F4A3CE56
:10446000083609F0B1CD80910A0791E08927809341
:104470000A07882361F01092090709C08091090793
:1044800091E0892780930907811110920A070E9401
:104490005D1002CD80911007882331F01092C00684
:1044A0001092F0061092100760910B0770910C07A4
:1044B00080910D0790910E0724E1A1010E949515AE
:1044C000D1019D918091F006E82FF0E09F012054EA
:1044D000394F992361F08E3250F48F5F8093F0064C
:1044E000CD010197FC018081F9018083EACFD901D8
:1044F0001C9280EC96E00E940D1370E060E088EB67
:1045000098E00E94AB13C8CC80911007882331F04B
:104510001092C0061092F00610921007E091F0067B
:10452000EE3270F481E08E0F8093F006F0E0E054FC
:10453000F94F9EE29083E82FF0E0E054F94F1082AB
:1045400080EC96E00E940D13A7CC8150990BFC01E2
:10455000E054F94F2081322F3D7F3D3251F036ED4E
:10456000320F323030F02E3521F0283211F0019721
:1045700070F78F53994F909304078093030710921D
:104580000207109205071092F1060E94F817D62E26
:10459000E72EF82E192F2FCD8D2C9E2CAF2CB12E5F
:1045A00044CD0337A1F1043709F435C10E3609F0C3
:1045B0007BC0CC2009F4DBC12D2D3E2D4F2D512F7A
:1045C00060E070E080E291E40E94F33C5B01C82E61
:1045D000092F60EA73E049CD20E030E0A9016D2D9C
:1045E0007E2D8F2D912F0E943D3941E150E06AECE4
:1045F00073E087FD55C06D2D7E2D8F2D912F0E946C
:10460000773D5B01C82E092F64E773E02ECD55205E
:1046100041F16D2D7E2D8F2D912FCC20D1F00E9458
:104620006A3420E030E040E85FE30E94D2390E9423
:10463000773D9B01AC016D2D7E2D8F2D912F0E941A
:10464000D2390E94773C5B01C82E092F69E773E0DD
:104650000CCD0E94433D5B01C82E092F6AE773E031
:1046600004CDCC2009F449C020E030E040E85FEB05
:104670006D2D7E2D8F2D912F0E943D3987FD0CC011
:1046800020E030E040E85FE36D2D7E2D8F2D912FEF
:104690000E94203C1816A4F441E150E065ED73E05F
:1046A000CE0189960E946D4081E080930F07CE0174
:1046B00089960E94310F1092090710920A07ECCBDD
:1046C0006D2D7E2D8F2D912F0E943E3A5B01C82EBD
:1046D000092F61100FC020E030E044E353E40E9452
:1046E0006E342BED3FE049E450E40E94A43A5B01B4
:1046F000C82E092F6FE773E0B8CCB401C5010E9442
:10470000693D5B01C82E092F62E873E0AECC5520ED
:10471000E1F1CC2071F120E030E040E85FE36D2D65
:104720007E2D8F2D912F0E943D3941E150E064EEA6
:1047300073E087FDB5CF6D2D7E2D8F2D912F0E94BB
:104740006A3420E030E040E85FE30E94D1390E9403
:10475000773D9B01AC016D2D7E2D8F2D912F0E94F9
:10476000D2390E94773C5B01C82E092F66E873E0BE
:104770007CCC6D2D7E2D8F2D912F0E94883A5B0170
:10478000C82E092F67E873E070CCCC20D1F120E06F
:1047900030E040E85FEB6D2D7E2D8F2D912F0E9434
:1047A0003D3987FD0CC020E030E040E85FE36D2D2F
:1047B0007E2D8F2D912F0E94203C18162CF441E164
:1047C00050E061EF73E06CCF6D2D7E2D8F2D912F1A
:1047D0000E94C0395B01C82E092F61100FC020E074
:1047E00030E044E353E40E946E342BED3FE049E4B3
:1047F00050E40E94A43A5B01C82E092F6CE873E0D4
:1048000034CCB401C5010E949F3A5B01C82E092F28
:104810006FE873E02ACC552009F456C0CC2009F487
:1048200047C020E030E040E85FEB6D2D7E2D8F2DFE
:10483000912F0E943D39181664F420E030E040E8E2
:104840005FE36D2D7E2D8F2D912F0E94203C87FDE3
:1048500005C041E150E060E074E022CF20E030E0AC
:1048600040E85FE36D2D7E2D8F2D912F0E94D23970
:104870004B015C012D2D3E2D4F2D512F60E070E03E
:1048800080E89FE30E94D1399B01AC01C501B401CE
:104890000E94A43A0E94773C20E030E040E05FE3D1
:1048A0000E946E345B01C82E092F63E973E0DDCBF3
:1048B0006D2D7E2D8F2D912F0E94B73D5B01C82E4F
:1048C000092F64E973E0D1CBCC20E9F06D2D7E2D6A
:1048D0008F2D912F0E94593A5B01C82E092F61102C
:1048E0000FC020E030E044E353E40E946E342BED2F
:1048F0003FE049E450E40E94A43A5B01C82E092F2E
:1049000069E973E0B2CBB401C5010E949F3A2B0163
:104910003C0120E030E0A9010E94203C18167CF404
:104920002FEF36EE4BED5EE2C301B2010E943D393E
:1049300087FF0FC041E150E06DE074E0B1CE2FEF92
:1049400036EE4BED5EEAC301B2010E94203C181620
:104950008CF3B401C5010E94693DA30192010E943C
:10496000A43A5B01C82E092F6CE973E07ECB20E0EE
:1049700030E0A9016D2D7E2D8F2D912F0E943D39A4
:1049800018162CF041E150E06CE174E089CE6D2DF9
:104990007E2D8F2D912F0E94673C5B01C82E092F21
:1049A00065EA73E062CBCC2061F06D2D7E2D8F2DFA
:1049B000912F0E941E3B5B01C82E092F6BEA73E00A
:1049C00054CB20E030E0A9016D2D7E2D8F2D912F4D
:1049D0000E943D3941E150E066E274E018160CF0A7
:1049E0005FCE6D2D7E2D8F2D912F0E94773C5B0128
:1049F000C82E092F6FEA73E038CBAD2CBE2CCF2C1C
:104A0000012F6FE673E031CB40E350E0B10180EC61
:104A100096E00E946D4080EC96E0DC010D90002055
:104A2000E9F7CD01815C96408093F00680EC96E03A
:104A30000E940D132CE044EA55E06D2D7E2D8F2D44
:104A4000912F0E94951584EA95E09F938F932B9662
:104A5000BFAD2B97BF932A96EFAD2A97EF938FE2C6
:104A600094E09F938F931F9281E18F932D96FFADDA
:104A70002D97FF932C960FAD2C970F930E947C409F
:104A8000B101CE018D5B9F4F0E943119BE016B5E5B
:104A90007F4FCE01CD960E943119BE016D5B7F4FD5
:104AA000CE01CD960E94DF12CE01CD960E94BB1999
:104AB000CE018D5B9F4F0E94BB1910920907109287
:104AC0000A070FB6F894DEBF0FBECDBFE5C98F5FF2
:104AD0008093F006E82FF0E0E054F94F1082D10106
:104AE0009D918091F006E82FF0E09F012054394F0E
:104AF000992361F08E3250F48F5F8093F006CD01E0
:104B00000197FC018081F9018083EACFD9011C92D1
:104B10008DCF112321F0133431F50E946C14002342
:104B200009F4BAC9023421F00C3311F00C94573453
:104B3000E091BF06EE2339F0E150E093BF06F0E0CC
:104B4000ED54F94F108223EB36E04091AE066091B0
:104B5000B1068091B0060E94890F0E3309F0E8C5B6
:104B60000E946C1499C990ED910F9A3010F01E328A
:104B7000E1F4E091BF06EB3068F481E08E0F8093A2
:104B8000BF06F0E0ED54F94F1083E82FF0E0ED544C
:104B9000F94F108223EB36E04091AE066091B106EA
:104BA0008091B0060E94890FBACF1D3259F49091BE
:104BB000BF069111B4CF8093BF061093B306109235
:104BC000B406E8CF1D3309F07FC583EB96E00E9461
:104BD0004A353091B2062091B006A091B106332338
:104BE00009F448C0E22FF0E0AF01440F551FE40F75
:104BF000F51FEA0FF11DEE0FFF1FEE0FFF1FEA5921
:104C0000F94F60837183828393831092B30610926D
:104C1000BF06AF5FA093B1061091AE06A11728F0B2
:104C20001092B1062F5F2093B0068091B0068117D5
:104C300008F4B0CF8091AF0631112CC0833050F50D
:104C400081E08093B2061092B0061092B10683E222
:104C500098E00E94EA0E40E060E083E298E00E9463
:104C6000AA0E6DED78E083E298E00E94830D0E9429
:104C70005D1090CF422F50E0FA01EE0FFF1FE40FBE
:104C8000F51FEA0FF11DEE0FFF1FEE0FFF1FEE5B8A
:104C9000F94FB7CF8230A1F148F4882309F495C0C9
:104CA000813009F03CCF8FEF9FEF91C0843009F441
:104CB000E6C108F494C042E456E09A0160E0853011
:104CC00009F02DCF161709F497C2DA0190E080E0C1
:104CD000811708F0F3C4CD90DD90ED90FC90139710
:104CE000FC01EE0FFF1FEE0FFF1FE85BFF4FE20F0F
:104CF000F31FC082D182E282F38201961C96E8CF34
:104D0000F2E4EF2EF6E0FF2ED12C1D1509F474C24B
:104D1000C701885B9F4F61969FAF8EAF6197E2E4BA
:104D2000AE2EE6E0BE2EC12C1C1509F453C06196D0
:104D3000AEADBFAD61971D921D921D921C9213974F
:104D400045016996FFAEEEAE6997412C512C3201B8
:104D500064961FAE64976996EEADFFAD6997619159
:104D60007191819191916996FFAFEEAF6997D401EE
:104D700094962D913D914D915C9197970E946E3440
:104D80009B01AC01C301B2010E94D2392B013C014D
:104D90006496BFAD6497BF5F6496BFAF6497ECE065
:104DA0008E0E911C1B13D7CF6196AEADBFAD619730
:104DB0004D925D926D927D926196BFAFAEAF61975D
:104DC000C394B4E0AB0EB11CAFCF81E090E00E9481
:104DD000781AA5CED394ECE0EE0EF11C96CF80901D
:104DE000420690904306A0904406B090450640903D
:104DF000520650905306609054067090550680916C
:104E0000460690914706A0914806B0914906A396A0
:104E10008CAF9DAFAEAFBFAFA39780914E06909180
:104E20004F06A0915006B091510663968CAF9DAF8E
:104E3000AEAFBFAF6397123009F064C0A501940113
:104E4000C301B2010E946E346B017C01A3962CADAC
:104E50003DAD4EAD5FADA39763966CAD7DAD8EADB0
:104E60009FAD63970E946E349B01AC01C701B601F0
:104E70000E94D13960930B0770930C0780930D0744
:104E800090930E0724E1A1010E94951583E298E01A
:104E90000E94EA0E40E060E083E298E00E94AA0EE1
:104EA00064ED78E083E298E00E94830D41E060E0E9
:104EB00083E298E00E94AA0EB10183E298E00E948A
:104EC0001F0DB101CE0189960E9431191E8A1D8ADB
:104ED000188E1F8A1A8E198E63EC78E0CE014596E3
:104EE0000E940919BE01675D7F4FCE0145960E9461
:104EF000DF12CE0145960E94BB19CE0189960E9411
:104F0000BB190DCEC0906206D0906306E090640697
:104F1000F09065068091560690915706A09158062C
:104F2000B091590667968CAF9DAFAEAFBFAF679794
:104F300080915E0690915F06A0916006B091610637
:104F40006B968CAF9DAFAEAFBFAF6B9780915A069B
:104F500090915B06A0915C06B0915D066F968CAF58
:104F60009DAFAEAFBFAF6F97A3019201C701B6016E
:104F70000E946E34A7966CAF7DAF8EAF9FAFA797A0
:104F80006B962CAD3DAD4EAD5FAD6B9767966CAD3E
:104F90007DAD8EAD9FAD67970E946E349B01AC01D5
:104FA000A7966CAD7DAD8EAD9FADA7970E94D13910
:104FB000A50194010E946E344B015C0163962CADF7
:104FC0003DAD4EAD5FAD6397C701B6010E946E3433
:104FD0006B017C016F962CAD3DAD4EAD5FAD6F9713
:104FE00067966CAD7DAD8EAD9FAD67970E946E34B8
:104FF0009B01AC01C701B6010E94D139A3962CAD2B
:105000003DAD4EAD5FADA3970E946E349B01AC01E8
:10501000C501B4010E94D1396B017C0163962CADAE
:105020003DAD4EAD5FAD63976B966CAD7DAD8EAD16
:105030009FAD6B970E946E344B015C01A3019201FE
:105040006F966CAD7DAD8EAD9FAD6F970E946E3447
:105050009B01AC01C501B4010E94D13920914A06DF
:1050600030914B0640914C0650914D060E946E3493
:105070009B01AC01C701B6010E94D239FBCE8091E1
:10508000420690914306A0914406B091450663966E
:105090008CAF9DAFAEAFBFAF63978091520690913A
:1050A0005306A0915406B09155066B968CAF9DAFF8
:1050B000AEAFBFAF6B9740904606509047066090EA
:1050C00048067090490680914E0690914F06A09137
:1050D0005006B091510667968CAF9DAFAEAFBFAF93
:1050E0006797123009F08BC063962CAD3DAD4EAD85
:1050F0005FAD63976B966CAD7DAD8EAD9FAD6B97DD
:105100000E946E346B017C01A301920167966CAD25
:105110007DAD8EAD9FAD67970E946E349B01AC0153
:10512000C701B6010E94D1396B017C0120E030E05B
:10513000A9010E94203C18167CF42CEC3CEB4CE8B6
:105140005BE2C701B6010E943D3987FF0FC086E3CD
:1051500094E00E94310FE3CC2CEC3CEB4CE85BEA92
:10516000C701B6010E94203C18168CF3A7019601D6
:105170006B966CAD7DAD8EAD9FAD6B970E94A43AE2
:1051800060938A0670938B0680938C0690938D06AD
:10519000C301B2019058A70196010E94A43A6093FE
:1051A0008E0670938F068093900690939106679673
:1051B0006CAD7DAD8EAD9FAD67979058A701960100
:1051C0000E94A43A6093960670939706809398067F
:1051D00090939906A701960163966CAD7DAD8EAD57
:1051E0009FAD63970E94A43A60939A0670939B06C2
:1051F00080939C0690939D060E94C31990CC80904A
:10520000620690906306A0906406B0906506809157
:10521000560690915706A0915806B0915906A3964C
:105220008CAF9DAFAEAFBFAFA39780915E0690915C
:105230005F06A0916006B0916106A7968CAF9DAF06
:10524000AEAFBFAFA7976B962CAD3DAD4EAD5FAD8A
:105250006B97C501B4010E946E346B017C01A79667
:105260002CAD3DAD4EAD5FADA797A3966CAD7DADBA
:105270008EAD9FADA3970E946E349B01AC01C70118
:10528000B6010E94D139AB966CAF7DAF8EAF9FAFA8
:10529000AB9780915A0690915B06A0915C06B09105
:1052A0005D06AF968CAF9DAFAEAFBFAFAF976796C1
:1052B0002CAD3DAD4EAD5FAD6797C501B4010E9409
:1052C0006E346B017C01AF962CAD3DAD4EAD5FAD44
:1052D000AF97A3966CAD7DAD8EAD9FADA3970E94A9
:1052E0006E349B01AC01C701B6010E94D139E3962F
:1052F0006CAF7DAF8EAF9FAFE39780914A069091E0
:105300004B06A0914C06B0914D066F968CAF9DAFA9
:10531000AEAFBFAF6F9767962CAD3DAD4EAD5FADF5
:105320006797A7966CAD7DAD8EAD9FADA7970E9498
:105330006E346B017C016B962CAD3DAD4EAD5FAD17
:105340006B97AF966CAD7DAD8EAD9FADAF970E9464
:105350006E349B01AC01C701B6010E94D139E796BA
:105360006CAF7DAF8EAF9FAFE79763962CAD3DAD31
:105370004EAD5FAD6397AB966CAD7DAD8EAD9FAD21
:10538000AB970E946E346B017C01A3019201E396FE
:105390006CAD7DAD8EAD9FADE3970E946E349B01E9
:1053A000AC01C701B6010E94D1396B017C01E796BF
:1053B0002CAD3DAD4EAD5FADE7976F966CAD7DAD5D
:1053C0008EAD9FAD6F970E946E349B01AC01C701FB
:1053D000B6010E94D2396B017C0120E030E0A901C6
:1053E0000E94203C18160CF05DC12CEC3CEB4CE804
:1053F0005BE2C701B6010E943D3987FDA8CEA70137
:105400009601AB966CAD7DAD8EAD9FADAB970E9416
:10541000A43A60938A0670938B0680938C069093CF
:105420008D06A3019201C501B4010E946E34AB96B2
:105430006CAF7DAF8EAF9FAFAB976F962CAD3DAD90
:105440004EAD5FAD6F97A7966CAD7DAD8EAD9FAD48
:10545000A7970E946E349B01AC01AB966CAD7DADFD
:105460008EAD9FADAB970E94D1399058A7019601A0
:105470000E94A43A60938E0670938F0680939006E4
:1054800090939106A3019201A3966CAD7DAD8EAD74
:105490009FADA3970E946E34AB966CAF7DAF8EAF7D
:1054A0009FAFAB976B962CAD3DAD4EAD5FAD6B979F
:1054B0006F966CAD7DAD8EAD9FAD6F970E946E34D3
:1054C0009B01AC01AB966CAD7DAD8EAD9FADAB9746
:1054D0000E94D139A70196010E94A43A60939206D6
:1054E000709393068093940690939506E3966CAD23
:1054F0007DAD8EAD9FADE3979058A70196010E94B8
:10550000A43A6093960670939706809398069093BA
:10551000990663962CAD3DAD4EAD5FAD6397C50169
:10552000B4010E946E344B015C016F962CAD3DAD11
:105530004EAD5FAD6F97AF966CAD7DAD8EAD9FAD4F
:10554000AF970E946E349B01AC01C501B4010E946B
:10555000D139A70196010E94A43A60939A067093EC
:105560009B0680939C0690939D0663962CAD3DAD63
:105570004EAD5FAD6397A3966CAD7DAD8EAD9FAD27
:10558000A3970E946E344B015C0167962CAD3DAD34
:105590004EAD5FAD67976F966CAD7DAD8EAD9FAD37
:1055A0006F970E946E349B01AC01C501B4010E944B
:1055B000D1399058A70196010E94A43A60939E06A3
:1055C00070939F068093A0069093A106A701960171
:1055D000E7966CAD7DAD8EAD9FADE7970E94A43A86
:1055E0006093A2067093A3068093A4069093A506E9
:1055F00063962CAD3DAD4EAD5FAD6397A7966CAD98
:105600007DAD8EAD9FADA7970E946E344B015C01BE
:10561000A3019201AF966CAD7DAD8EAD9FADAF97FE
:105620000E946E349B01AC01C501B4010E94D139C6
:105630009058A70196010E94A43A6093A606709321
:10564000A7068093A8069093A90663962CAD3DAD5E
:105650004EAD5FAD63976B966CAD7DAD8EAD9FAD7E
:105660006B970E946E344B015C01A3019201679617
:105670006CAD7DAD8EAD9FAD67970E946E349B0182
:10568000AC01C501B4010E94D139A70196010E9465
:10569000A43A6093AA067093AB068093AC069093ED
:1056A000AD06AACD2CEC3CEB4CE85BEAC701B60199
:1056B0000E94203C18160CF44ACDA1CE6F5F4C5FBF
:1056C0005F4F245F3F4FFECA1B3269F48091AF06E3
:1056D00090E0019666E070E00E94053E8093AF0680
:1056E0000E949C111CCA1F3209F019CA8091AE0693
:1056F0008230E1F483E08093AE061092B0061092FF
:10570000B1061092B20684E2E2E4F6E0DF01182F5F
:105710001D921A95E9F7E6E6F6E0DF011D928A95FB
:10572000E9F71092B3061092BF06DACF82E0E3CF1A
:105730000C3311F00C944C1F8091B1064091AE06D1
:10574000882369F081508093B10623EB36E06091A5
:10575000B1068091B0060E94890F0C944C1F809175
:10576000B006882391F381508093B0068FEF840FA9
:10577000EACF112309F4A7C0133419F510921207C8
:1057800010921B0710921C0710921D0710921E0703
:1057900010921707109218071092190710921A0703
:1057A0001092130710921407109215071092160703
:1057B00010921F071092200710922C070E94F30EE0
:1057C00082C080ED810F8A3010F01E32F9F4E09132
:1057D0002C07EB3068F481E08E0F80932C07F0E00B
:1057E000EE5EF84F1687E82FF0E0EE5EF84F168673
:1057F00040911F0780911207813011F00C946134A1
:1058000082E060E277E00E9406105DC01D3269F41C
:1058100080912C07811157C081E080932C078DE285
:105820008093200710922107E3CF1D3309F0D1C2E6
:1058300080E297E00E944A3540911F0741118AC0DB
:1058400060931307709314078093150790931607BE
:105850001092200710922C074F5F40931F078091F2
:105860001207882311F40C945D34433028F283E24C
:1058700098E00E94EA0E87E198E00E94EA0E80918B
:105880001207C0901307D0901407E0901507F0900E
:10589000160720E030E0A90181112DC1C701B60132
:1058A0000E94203C18160CF069C02CEC3CEB4CE834
:1058B0005BE2C701B6010E943D3987FF6AC087E4F9
:1058C00094E00E94310F002311F40C944C1F023419
:1058D00011F00C33B9F4E0912C07EE2339F0E150CC
:1058E000E0932C07F0E0EE5EF84F168640911F071C
:1058F00080911207813009F077C282E060E277E0A0
:105900000E9406100E3311F00C944C1F10921207D7
:1059100010921B0710921C0710921D0710921E0771
:1059200010921707109218071092190710921A0771
:105930001092130710921407109215071092160771
:1059400010921F071092200710922C070E94F30E4E
:105950000C944C1F413049F460931707709318075B
:105960008093190790931A0773CF60931B07709366
:105970001C0780931D0790931E076ACF2CEC3CEB0D
:105980004CE85BEAC701B6010E94203C18160CF4F3
:1059900096CF609117077091180780911907909121
:1059A0001A079058A70196010E94A43A24E1A10188
:1059B0000E94951540E060E083E298E00E94AA0E04
:1059C00065E779E083E298E00E94830D41E060E0C2
:1059D00083E298E00E94AA0E62E779E083E298E011
:1059E0000E94830DB10183E298E00E941F0DB10176
:1059F000CE0189960E9431191E8A1D8A188E1F8A2F
:105A00001A8E198E66E679E0CE0145960E94091934
:105A1000BE01675D7F4FCE0145960E94DF12CE0129
:105A200045960E94BB19CE0189960E94BB1987E159
:105A300098E00E94EA0E40E060E087E198E00E9472
:105A4000AA0E6EEE78E087E198E00E94830D6091E7
:105A5000130770911407809115079091160728E09D
:105A600040EB55E00E94951560911707709118075B
:105A70008091190790911A0728E040EB55E00E94A9
:105A8000951580EB95E09F938F939F938F9387E578
:105A900094E09F938F931F9281E18F932D96BFADDA
:105AA0002D97BF932C96EFAD2C97EF930E947C40DF
:105AB00041E060E087E198E00E94AA0E9E012B5E23
:105AC0003F4F69017E0135E2E30EF11C0FB6F894F9
:105AD000DEBF0FBECDBFD6016D916D01662339F0DB
