:100000000C9488060C94B9060C94B9060C94B906A5
:100010000C94B9060C94B9060C94B9060C94B90664
:100020000C94B9060C94B9060C94B9060C94B90654
:100030000C94B9060C94B9060C94B9060C94B90644
:100040000C94B9060C94B9060C94B9060C94B90634
:100050000C94B9060C94B9060C94B9060C944D1A7C
:100060000C94B9060C94B9060C94B9060C94B90614
:100070000C94B9060C94B9060C94B9060C94B90604
:100080000C94B9060C94B9060C94B9060C94B906F4
:100090000C94B9060C94B9060C94B9060C94971AF2
:1000A0000C94B9060C94B9060C94B9060C94B906D4
:1000B0000C94B9060C94B9060C94B9060C94B906C4
:1000C0000C94B9060C94B9060C94B9060C94B906B4
:1000D0000C94B9060C94B9060C94B9060C94B906A4
:1000E0000C94B906036EDB363D9A9999993DABAAFB
:1000F000AA2A3E000000803F084AD73B3BCE016E53
:1001000084BCBFFDC12F3D6C74319ABD56833DDA6E
:100110003D00C77F11BED9E4BB4C3E916BAAAABE7D
:10012000000000803F07634236B79BD8A71A3968A2
:100130005618AEBAAB558C1D3CB7CC5763BD6DEDB0
:10014000FD753EF6177231BF000000803F072C7A24
:10015000A5BA6CC590DA3B9365FC8BBC53F810FDD7
:100160003C5692834DBD879D3AB63DCBC9BF5BBE21
:1001700073DA0FC93F05A84CCDB2D44EB93836A9B1
:10018000020C50B9918688083CA6AAAA2ABE000093
:1001900000803F08000000BE922449123EABAAAA8C
:1001A0002ABECDCCCC4C3E00000080BEABAAAAAA91
:1001B0003E00000000BF000000803F000000000083
:1001C000084178D3BB4387D1133D190E3CC3BD42D0
:1001D00082AD2B3E68EC8276BED98FE1A93E4C8081
:1001E000EFFFBE01C4FF7F3F0000000000028988CE
:1001F000083CABAAAA2A3E000000803F028988087A
:100200003EABAAAAAABE000000803F000C941007D3
:100210000C94D9060C941E070C9402070C94EE065D
:100220000C94910A0C940C080C94E4080C94E306CA
:100230000C940D080C94EB060C94650C0C94DF06E2
:100240000C944F0B0C941B0B0C94E8080C9419079E
:100250000C94210D0C94BB1B0C940E080C94F80606
:100260000C94F4060C94F80A0C94FE060C94E70621
:100270000C940C070C94F90A0C94220B0C941A079A
:100280000C94E0080C94080B0C9406070C941407CB
:100290004E414E494E495459494E46CDCCCC3D0A6B
:1002A000D7233C17B7D13877CC2B329595E6241F4E
:1002B000B14F0A000020410000C84200401C462007
:1002C000BCBE4CCA1B0E5AAEC59D7400407A10F3DA
:1002D0005A00A0724E18090010A5D4E80000E87674
:1002E00048170000E40B54020000CA9A3B000000CB
:1002F000E1F505000080969800000040420F0000E4
:1003000000A08601000000102700000000E80300A4
:100310000000006400000000000A0000000000016E
:1003200000000000002C76D888DC674F0823DFC16E
:10033000DFAE59E1B1B796E5E3E453C63AE6519929
:100340007696E8E6C28426EB898C9B62ED407C6F52
:10035000FCEFBC9C9F40F2BAA56FA5F490055A2A09
:10036000F75C936B6CF9676DC11BFCE0E40D47FE15
:10037000F520E6B500D0ED902E030094357705000A
:1003800080841E080000204E0A000000C80C333391
:1003900033330F986E12831141EF8D2114893BE6A0
:1003A0005516CFFEE6DB18D1844B381BF77C1D9029
:1003B0001DA4BBE424203284725E228100C9F12492
:1003C000ECA1E53D2700683D302E30303031202053
:1003D00020202020202000206628782D68295D2FED
:1003E000283268292020200066272878293D5B666E
:1003F00028782B68292D2020004465726976656570
:10040000206E756D657269712E00007369204C2134
:100410003D523A20706173206C696D007369204C05
:100420003D523A206C696D697465204F4B004170F4
:1004300070726F63686520782D3E61202020004C2B
:10044000696D697465206E756D6572697175650099
:1004500000615E282D6E293D312F28615E6E2920B6
:100460002000615E30203D203120202020202020EF
:10047000202000325E3130203D20313032342020C7
:1004800020202000615E6E3A2061207075697373D0
:10049000206E20200000446572697665653A312F30
:1004A00028327371727478290073717274287829F4
:1004B0003D785E28312F3229200073717274283400
:1004C000293D3220202020202020007371727428C2
:1004D00078293A20783E3D30202020000044657283
:1004E000697665653A20312F7820202020006C6ED7
:1004F00028782A79293D6C6E2878292B2E2E006CBD
:100500006E2865293D312020202020202020200039
:100510006C6E2831293D30202020202020202020F2
:10052000006C6E2878293A20783E3020726571750B
:10053000697300006C6F67313028313030293D32EB
:1005400020202020006C6F673130283130293D3168
:100550002020202020006C6F6731302831293D3069
:10056000202020202020006C6F6731303A2062610B
:10057000736520313020200000506572696F64651A
:100580003A20322A504920202000636F73285049B6
:100590002F32293D30202020202000636F73283027
:1005A000293D31202020202020202000636F732847
:1005B0007829206F7363696C6C61742E000050653C
:1005C00072696F64653A20322A50492020200073F6
:1005D000696E2850492F32293D31202020202000EB
:1005E00073696E2830293D302020202020202020D3
:1005F0000056616C657572733A205B2D312C2B317E
:100600005D0073696E287829206F7363696C6C6173
:10061000742E0048592000534820005D007C005B88
:10062000004D6F64653A20434F4D50207C20444577
:1006300047002D2D2D204249454E56454E5545200B
:100640002D2D2D0043616C63756C61747269636557
:100650002076322E300053414E44455253202049DB
:100660004100496E74656772616C657C4578706C99
:100670006971004C696D6974657C44657269766561
:100680006520200020202049412020200051756154
:10069000647261743A206178322B2E2E2E004C69E0
:1006A0006E6561697265203A61782B623D30004564
:1006B00051554154494F4E0044455420494E56200F
:1006C000545241203278322F337833004144442051
:1006D000535542204D554C202020202000204D41D4
:1006E0005452494345002B202D202A202F205E20E4
:1006F00073696E2E2E0043616C63756C2073746198
:100700006E6461726420002020434F4D5020200011
:1007100020202020202020202020202020202020D9
:10072000003E3E204D4F4445203A202020202020EE
:1007300020004D6178203438206361722E004578A6
:1007400070722074726F70206C6F6E677565003EFA
:100750003E20537569746520726573756C743A0038
:10076000526573756C746174204F4B0050726574E0
:100770000045666661636500414E5320696E73658E
:1007800072650044657465726D696E616E74206394
:10079000616C6300646574284129203D00536169E0
:1007A000736972204D6174726963652042006178DB
:1007B0002B623D30202D3E20783D2D622F6100328E
:1007C00020736F6C7574696F6E73204F4B00443DDE
:1007D0000078323D0078313D00443D3020646F7533
:1007E000626C6520726163696E650078313D7832B4
:1007F0003D20004469736372696D696E616E742097
:10080000443D00443C303A2070617320736F6C7536
:1008100074696F6E006178322B62782B633D3020F3
:100820002020202020004C696E6561697265206F70
:100830006B00783D0061782B623D3020536F6C7502
:1008400074696F6E3A00526573756C746174204FF1
:100850004B20202020200053696D70736F6E206E36
:100860003D313030202020003D20005D002C00492B
:100870006E74205B004D6574683A64696666206337
:10088000656E74722E004465726976656520656ECA
:1008900020783D00662878293D00293D00662728FC
:1008A00000506173206465206C696D697465212056
:1008B000004C696D697465206578697374652020E2
:1008C0000020443A00473A006E27657869737465E2
:1008D00020706173212020003D20006C696D20781C
:1008E0002D3E0053616973697220626F726E6520DC
:1008F000623A20005B3D5D3A636F6E6669726D65BA
:100900007220202000496E74656772616C65205BFF
:10091000612C625D200053616973697220626F729D
:100920006E6520613A200043616C63756C652066DA
:100930002728782920202000536169736972207864
:100940003D2020202020202000782D3E61202020E6
:10095000202020202020202020005361697369720C
:1009600020706F696E7420613A2000F903E803D7A4
:1009700003C603C5033F042E041C040B040A0484AD
:10098000047304620451045004CB04BA04A904960D
:1009900004950421051005FF04EE04DD04DC046762
:1009A000055605450534053305AC059B058A0579D3
:1009B0000578050206F105E005CF05BE05BD050079
:1009C000002100240027002A002D00300033000100
:1009D000010000040107010A01000022002500288F
:1009E000002B002E00310034000201000005010838
:1009F000010B01000020002300260029002C002FFD
:100A0000003200000100000301060109010505058F
:100A100005070508080808020202020A0A08080475
:100A200004040401010101010101010303030303A3
:100A3000030303040707070C0C0C0C0C0C0C0C0232
:100A400002020206060606060606060B0B0B0B0B39
:100A50000B0B0B0102102020080810204010204032
:100A60008002010201080402010102040810204072
:100A70008080402010080402018004020180402090
:100A800010080402010804020101020408102040B9
:100A900080010204081020408000000A0B02090CAB
:100AA0000D0E080703040100000000000000000014
:100AB0000000000000000000000000000000000036
:100AC00000000000001211100000000000000000F3
:100AD00000000000000000000000000000000066B0
:100AE0002878292061766563205B415D3D78200090
:100AF0005B535D3D63686720736F75732D6D6F6425
:100B000065004D4F4445204941203A2020202020B7
:100B10002020005B285D3A70726563205B295D3A96
:100B200073756976003E3E204558504C4943415408
:100B3000494F4E20200029002F002028005F202050
:100B4000202020202020202020005B3D5D3A73756E
:100B50006976616E742020202020005B415D3D6934
:100B60006E73657265722078202020005F005B2B19
:100B70005D6F70205B2F5D7461696C6C6500F404BF
:100B8000F804FC040005040508054F703A200078BD
:100B9000004D4F4445204D41545249434520005299
:100BA0006573756C7461743A0030002D496E66008F
:100BB0002B496E66004E614E002020414E533D0091
:100BC0002048595000205348494654005D005B00BE
:100BD0002D004D6F64653A20005F202020200063C7
:100BE0003D3F2020202020202020202020202000E9
:100BF000623D3F2020202020202020202020202077
:100C000000613D3F20202020202020202020202087
:100C1000200045712E20717561647261746971756F
:100C2000652000623D3F2020202020202020202021
:100C300020202000613D3F20202020202020202057
:100C4000202020200045712E206C696E656169723C
:100C50006520202020005B3D5D3A76616C6964650B
:100C60007220202020003C203E3A6E617669677534
:100C70006572202020005F005D3D002C004D5B0070
:100C800078004D6174726963652000656666616312
:100C900065722065727265757220200041707075F2
:100CA000796572205B435D20706F75720021212091
:100CB00045525245555220212120202020004571C7
:100CC0002E206178322B62782B633D300045712EE7
:100CD0002061782B623D3020202020005B2B5D3A84
:100CE0006368616E6765722074797065005B3D5D55
:100CF0003A636F6E6669726D657220200053616998
:100D000073697220613D3F20202020200000BB1B22
:100D100011241FBECFEFD1E2DEBFCDBF00E00CBF7C
:100D200028E0A6E4B5E001C01D92A037B207E1F7C4
:100D300015E0A0E0B2E0E8EAF3E800E00BBF02C093
:100D400007900D92A634B107D9F716E0C8E8D6E0AF
:100D500000E006C021970109802FFE010E94AE3CF1
:100D6000C738D10780E00807A9F70E948D1C0C94B2
:100D7000D2410C9400008150823108F05AC0E82F13
:100D8000F0E08827E953F94F8F4F0C94AE3CE7060B
:100D9000EB06D906DF06E3061907EE06F406F806A9
:100DA000FE06020706070C071007190714071A07A3
:100DB0001E07809180008F77809380000895809136
:100DC00080008F7DF9CF80918000877FF5CF84B53B
:100DD0008F7784BD089584B58F7DFBCF8091B0005F
:100DE0008F778093B00008958091B0008F7DF9CF08
:100DF000809190008F77809390000895809190006B
:100E00008F7DF9CF80919000877FF5CF8091A000F2
:100E10008F778093A00008958091A0008F7DF9CFF7
:100E20008091A000877FF5CF809120018F778093FC
:100E300020010895809120018F7DF9CF80912001BC
:100E4000877FF5CFCF93DF93282F30E0F901E75666
:100E5000F54F8491F901ED5AF54FD491F901E35F13
:100E6000F54FC491CC23A1F081110E94BB06EC2F59
:100E7000F0E0EE0FFF1FED50F64FA591B491EC910D
:100E8000ED2381E090E009F480E0DF91CF910895B7
:100E900080E090E0FACF1F93CF93DF93282F30E0CC
:100EA000F901E756F54F8491F901ED5AF54FD491C8
:100EB000F901E35FF54FC491CC23A9F0162F8111FE
:100EC0000E94BB06EC2FF0E0EE0FFF1FE752F64F3B
:100ED000A591B4918FB7F894EC91111108C0D095F9
:100EE000DE23DC938FBFDF91CF911F910895DE2B1E
:100EF000F8CFCF93DF9390E0FC01ED5AF54F2491AA
:100F0000835F954FFC0184918823C9F090E0880F9E
:100F1000991FFC01E154F64FA591B491FC01E752F1
:100F2000F64FC591D49161110DC09FB7F8948C9183
:100F3000209582238C938881282328839FBFDF916B
:100F4000CF910895623051F49FB7F8943C91822F6D
:100F5000809583238C93E8812E2BEFCF8FB7F89465
:100F6000EC912E2B2C938FBFEACF3FB7F894809152
:100F7000190690911A06A0911B06B0911C0626B581
:100F8000A89B05C02F3F19F00196A11DB11D3FBFC1
:100F9000BA2FA92F982F8827BC01CD01620F711D90
:100FA000811D911D42E0660F771F881F991F4A958A
:100FB000D1F708958F929F92AF92BF92CF92DF9216
:100FC000EF92FF924B015C010E94B5076B017C011F
:100FD0000E94B5076C197D098E099F09683E734010
:100FE00081059105A8F321E0821A9108A108B108B2
:100FF00088EEC80E83E0D81EE11CF11C8114910418
:10100000A104B10429F7FF90EF90DF90CF90BF903B
:10101000AF909F908F90089508950895AF92BF92DA
:10102000CF92DF92EF92FF920F931F93CF93DF93B4
:101030006C017B018B01040F151FEB015E01AE18E3
:10104000BF08C017D10759F06991D601ED91FC9105
:101050000190F081E02DC6011995892B79F7C50122
:10106000DF91CF911F910F91FF90EF90DF90CF9084
:10107000BF90AF900895FB014481558160817181DB
:101080000C940E08CF93DF93DC0126E0629FA00D45
:10109000B11D112490965C934E935F9721E0919639
:1010A0002C939197FC01E359FF4F0190F081E02DC3
:1010B000EC01C459DF4F2881222341F0309719F009
:1010C000DC01662329F0DF91CF9108953097D9F3A1
:1010D0005C968C91DF91CF911994CF92DF92EF9231
:1010E000FF920F931F93CF93DF93FC0126E0629F43
:1010F000E00DF11D112411A2278D30A12130310501
:1011000059F188F02230310509F452C023303105FD
:1011100009F453C0DF91CF911F910F91FF90EF9091
:10112000DF90CF9008954423A9F3EC0141E050E013
:101130000E9442082FB7F8948091150690911606E8
:10114000A0911706B09118062FBFC85ADF4F8883A9
:101150009983AA83BB83DECF2FB7F894C09015067E
:10116000D0901606E0901706F09018062FBFFC01ED
:10117000E85AFF4F0081118122813381C01AD10AC0
:10118000E20AF30A72960081118130E020E00C152A
:101190001D052E053F0560F442E050E0DF91CF9140
:1011A0001F910F91FF90EF90DF90CF900C94420829
:1011B0004111B0CF43E050E0F1CF50E040E0EECF3E
:1011C000862F642F0C947907862F642F0C944B077D
:1011D000862F0C9422072F923F924F925F926F922C
:1011E0007F928F929F92AF92BF92CF92DF92EF92B7
:1011F000FF920F931F93CF93DF93CDB7DEB72C975A
:101200000FB6F894DEBF0FBECDBF9C0124593F4FEF
:101210003A83298321E0A981BA812C934FB7F894AE
:1012200000911506109116062091170630911806A8
:101230004FBFFC01E45AFF4FFC83EB834081518197
:1012400062817381041B150B260B370B3C96408182
:10125000518170E060E0401751076207730708F0A2
:1012600059C19C878B8710E06C01F6E6CF0ED11C2C
:101270007C0122E6E20EF11CD6018C91181758F47D
:10128000D701ED91FC91E10FF11D62E080810E9498
:1012900079071F5FF1CF312C4B845C84B7E64B0E8E
:1012A000511CEB84FC84E4E6EE0EF11C812C912CA5
:1012B000540183942B853C852E593F4F3A872987CB
:1012C000D2018C91381608F063C0032D10E0D701CD
:1012D000ED91FC91E00FF11F61E080810E947907A0
:1012E000D701ED91FC91E00FF11F60E080810E9439
:1012F0004B07D501C401032C04C0880F991FAA1FF6
:10130000BB1F0A94D2F79E838D83FC01E095F09574
:10131000F887EF83212CD6018C91281620F5622CBA
:10132000712CA985BA85ED91FC91E60DF71D8081A0
:101330000E942207660C771CEB85FC85E60DF71DE5
:10134000892B51F4808591852D813E81822B932BB1
:10135000918780872394DFCF808591854F81588541
:1013600084239523F5CFD701ED91FC91E00FF11F78
:1013700061E080810E944B07F70180819181080F15
:10138000191F60E0D8018C910E947907339498CF9F
:101390000B851C85C801CC9678012FEF3FEFF70134
:1013A000478D50A1452B21F4148E368F258F11A225
:1013B000F6E0EF0EF11CE816F90689F7912CAB84E4
:1013C000BC8420E6A20EB11C96E0392ED6018C9189
:1013D000981608F059C0812C692C712CB4E06B0E62
:1013E000711C660C771CEB85FC856E0E7F1ED2018E
:1013F0008C91881608F046C0F30140815181082C79
:1014000002C0569547950A94E2F7989EC0011124B0
:10141000880D911DEB85FC8560E0258D368D82174A
:10142000930709F47CC06F5F36966A30B1F740FFCE
:1014300027C0EB85FC8570E060E0248D21111AC087
:10144000D501ED91FC91E80FF91F2081369EF00146
:10145000379EF00D11244B855C85E40FF51F248F1A
:10146000968F858F10A2178E41E08B859C850E94F8
:101470006D0806C06F5F7F4F36966A307105E9F6DA
:101480008394B5CF9394A2CF80E0D80191969C919C
:101490009111892F0A5F1F4FE016F106B1F79FB730
:1014A000F8944091150650911606609117067091B8
:1014B00018069FBFEB81FC81408351836283738355
:1014C000882341F1AB85BC8591968C9191978823B7
:1014D00009F15F968D919C9190970197D9F45C9654
:1014E0008C912C960FB6F894DEBF0FBECDBFDF9166
:1014F000CF911F910F91FF90EF90DF90CF90BF9011
:10150000AF909F908F907F906F905F904F903F90A3
:101510002F900895E981FA81108280E0E2CF417036
:10152000A4CF089520918705260F3327331F21323A
:101530003105ECF42091D005FC0190E080E02430EE
:1015400069F082E00895A09187052191AC01495985
:101550005A4FA40FB52FB11D2C930196861798F3FF
:1015600080918705680F6093870580E0089581E08A
:1015700008951092D00581E08093CF051092AA05BE
:1015800061E084E10E944B0761E085E10E944B0726
:10159000E9EBF0E080818E7F808380818D7F808386
:1015A00088E48093B80085E48093BC000895CF93CD
:1015B000DF9391E0909366058823B9F0C091B8005D
:1015C000D091BA008091BC008A7B8093BC0060E01F
:1015D00084E10E944B0760E085E10E944B070E9476
:1015E000B90AD093BA00C093B800DF91CF910895A3
:1015F0000895E091FF058091FE05E81730F4F0E0D2
:10160000EA5BFA4F808190E008958FEF9FEF089595
:101610009091FF058091FE052FEF3FEF981748F45A
:10162000E92FF0E0EA5BFA4F208130E09F5F909372
:10163000FF05C90108958091FE059091FF05891B62
:10164000990B0895CF92DF92EF92FF920F931F9321
:10165000CF93DF937C01CB018A012091D605222311
:1016600089F0EB016B01C40ED51ECC15DD0569F0C8
:101670006991D701ED91FC910190F081E02DC701B6
:101680001995F3CF642F0E94920AC801DF91CF9180
:101690001F910F91FF90EF90DF90CF900895CF931F
:1016A000DF931F92CDB7DEB769832091D605222341
:1016B000F9F02091FC05203258F021E030E0FC01E7
:1016C0003383228390E080E00F90DF91CF910895E3
:1016D0008091FD05E82FF0E0E952FA4F998190835F
:1016E0008F5F8093FD058093FC0581E090E0ECCF57
:1016F00061E0CE0101960E94920AF7CFCF92DF926D
:10170000EF92FF920F931F93CF93DF93FC01C4815D
:1017100021E02093D605C093F7051092FD051092A5
:10172000FC058385682B88E697E00E944F0BD091DB
:10173000FC05D13208F092C00E94B5076B017C0114
:101740008091D005811165C082E08093D00581E051
:101750008093CF058FEF8093CE051092CD05D09367
:10176000CC05A7EDB5E0ECEAF5E080E0D81385C044
:101770001092AB058091AB05CC0FC82BC093AB0585
:101780008091AA05813009F07CC01092AA050E94C0
:10179000B5076B017C018091AB058093BB00809104
:1017A000D2059091D305A091D405B091D505892B90
:1017B0008A2B8B2B99F00E94B5070091D2051091CE
:1017C000D3052091D4053091D5056C197D098E097A
:1017D0009F090617170728073907E0F18091BC0019
:1017E00083FDD9CF85EC8093BC000E94B5076B01C7
:1017F0007C018091D005823009F445C08091CE05EE
:101800008F3F61F18091CE05803241F18091CE050C
:1018100025C08091D2059091D305A091D405B091B7
:10182000D505892B8A2B8B2B09F48ACF0E94B5070B
:101830000091D2051091D3052091D4053091D505A2
:101840006C197D098E099F090617170728073907A4
:1018500008F076CF8091D1050E94D70A1092FD053D
:101860001092FC051092D605DF91CF911F910F9138
:10187000FF90EF90DF90CF9008959D9191938F5FAF
:1018800075CF85EEB0CF8091D2059091D305A09110
:10189000D405B091D505892B8A2B8B2B09F4A9CFC0
:1018A0000E94B5070091D2051091D3052091D4056F
:1018B0003091D5056C197D098E099F090617170708
:1018C0002807390708F095CFC5CF90E080E008954C
:1018D00020913E0730913F0780913D0741E0480F3E
:1018E000F901E80FF11D9081903219F080933D07C6
:1018F0000895842FF3CF80913D078F5F80933D073C
:101900000895E0913D0780913E0790913F07E80FD1
:10191000F92FF11D80810895FB0101900020E9F766
:101920003197AF01461B570B0C940E088F929F9274
:10193000AF92BF92EF92FF920F931F93CF93DF93DB
:10194000CDB7DEB7A1970FB6F894DEBF0FBECDBFFF
:101950007C01FA01CB0119A2223008F42AE08E01A1
:101960000F5D1F4F822E912CB12CA12CBF01A50120
:1019700094010E948C3CF901CA016A300CF5605D4B
:10198000D8016E938D01232B242B252B79F790E022
:1019900080E0109721F0BD01C7010E948C0CA19638
:1019A0000FB6F894DEBF0FBECDBFDF91CF911F9170
:1019B0000F91FF90EF90BF90AF909F908F90089500
:1019C000695CDECF6115710511F00C948C0C90E010
:1019D00080E00895462F50E070E060E02AE00C942B
:1019E000960C0F931F93CF938C01C62F0E947E0BF2
:1019F0006C2F6460C8010E947E0B6C2F6B7FC80146
:101A00000E947E0B83EC90E00197F1F7CF911F913C
:101A10000F9108950F931F93CF93DF938C01D62FCF
:101A2000C42F607F642B0E94F10C80E1D89FB0012D
:101A300011246C2BC801DF91CF911F910F910C9451
:101A4000F10C41E00E940A0D81E090E008950F93AF
:101A50001F93CF93DF938B0198E0899FB0011124EE
:101A6000606440E08EE598E00E940A0DE801085F9E
:101A70001F4F69918EE598E00E94210DC017D10794
:101A8000C1F7DF91CF911F910F910895EF92FF92CF
:101A90000F931F93CF93DF938C017B01D0E0C0E0C5
:101AA000F701EC0FFD1F6491662331F041E0C8019E
:101AB0000E940A0D2196F4CFCE01DF91CF911F91A4
:101AC0000F91FF90EF90089541E00E940A0D81E090
:101AD00090E008950F931F93CF93DF93009771F0D9
:101AE000EC018C01005F1F4F6991662339F082E59C
:101AF00098E00E94640DC017D107B1F7DF91CF9134
:101B00001F910F9108954F925F926F927F928F92E3
:101B10009F92AF92BF92CF92DF92EF92FF920F937C
:101B20001F93CF936B017C01742EAC019B010E942B
:101B30005E3C66EB72E0811126C046015701E894D5
:101B4000B7F82FEF3FEF4FE75FE7C501B4010E9401
:101B50005E3C81110CC02FEF3FEF4FE75FE7C501FF
:101B6000B4010E94B0376AEB72E0181664F02FEFF0
:101B70003FEF4FE75FE4C701B6010E94933A1816A2
:101B8000ACF46EEB72E082E598E0CF911F910F917B
:101B9000FF90EF90DF90CF90BF90AF909F908F908D
:101BA0007F906F905F904F900C948C0C2FEF3FEFD5
:101BB0004FE75FECC701B6010E94B03787FDE1CF68
:101BC00020E030E0A901C701B6010E94B03710E063
:101BD00000E087FF0AC06DE282E598E00E94640D94
:101BE0008C01F7FAF094F7F8F094C0E060E070E050
:101BF00080E09FE37C1641F020E030E040E251E4D9
:101C00000E941739CF5FF6CFA70196010E94453891
:101C10002B013C010E94CA394B015C012AE0BC0146
:101C2000A40182E598E00E94960C7C01E00EF11E72
:101C3000CC23D1F1C501B4010E94B5379B01AC01A1
:101C4000C301B2010E9444384B015C016EE282E59F
:101C500098E00E94640DE80EF91EC15028F120E0C2
:101C600030E040E251E4C501B4010E94E1322B01B1
:101C70003C010E94CA394B01B12CA12C2AE0B501CC
:101C8000A40182E598E00E94960CE80EF91EC501B9
:101C9000B4010E94B5379B01AC01C301B2010E949F
:101CA00044384B015C01D9CFC701CF911F910F91EF
:101CB000FF90EF90DF90CF90BF90AF909F908F906C
:101CC0007F906F905F904F900895AB01770F660BF8
:101CD000770B2AE00C94960CCF93DF9300D000D0C2
:101CE0001F921F92CDB7DEB728E0E6E3F2E0DE01F7
:101CF000119601900D922A95E1F7FC012085241799
:101D000008F44FEF50E0440F551F21E030E02C0F56
:101D10003D1F420F531FFA012081620F606840E0AF
:101D200028960FB6F894DEBF0FBECDBFDF91CF91DE
:101D30000C940A0D41E060E08EE598E00E946C0E84
:101D400061E576E08EE598E00E94E20C6DE37BE0D1
:101D50008EE598E00C94460D40E061E00E940A0D8B
:101D60008BE39FE10197F1F708958EE598E00E94DB
:101D7000AC0E40E060E08EE598E00E946C0E809131
:101D80004D076EEB7CE0811102C06DEC7CE08EE5CE
:101D900098E00E94460D41E060E08EE598E00E94E8
:101DA0006C0E6DEF7CE08EE598E00E94460D82E5BA
:101DB00098E00E94AC0E40E060E082E598E00E946E
:101DC0006C0E6DEE7CE082E598E00E94460D41E0ED
:101DD00060E082E598E00E946C0E6CED7CE082E5AC
:101DE00098E00C94460DEF92FF920F931F93CF93C0
:101DF000DF93EC018EE598E00E94AC0E40E060E0DD
:101E00008EE598E00E946C0E6DEA7CE08EE598E02D
:101E10000E94460D41E060E08EE598E00E946C0E65
:101E2000FE0101900020E9F731978F010C1B1D0B7B
:101E3000F12CE12CE016F10664F469918EE598E04E
:101E40000E94640D8FEFE81AF80A80E1E816F104A9
:101E500089F782E598E00E94AC0E40E060E082E500
:101E600098E00E946C0E6CE97CE082E598E00E94AC
:101E7000460D41E060E082E598E00E946C0E6BE860
:101E80007CE082E598E0DF91CF911F910F91FF9068
:101E9000EF900C94460DFF920F931F93CF93DF9317
:101EA000D82FC62FF42E89018EE598E00E94AC0E43
:101EB00040E060E08EE598E00E946C0E62E87CE015
:101EC0008EE598E00E94460D6F2D8EE598E00E9409
:101ED000EA0C60E87CE08EE598E00E94460D6F2DEC
:101EE0008EE598E00E94EA0C41E060E08EE598E023
:101EF0000E946C0E6DE77CE08EE598E00E94460D36
:101F00006D2F70E06F5F7F4F8EE598E00E94650E49
:101F10006BE77CE08EE598E00E94460D6C2F70E048
:101F20006F5F7F4F8EE598E00E94650E68E77CE06A
:101F30008EE598E00E94460DB8018EE598E00E947B
:101F4000E20C66E77CE08EE598E00E94460D82E5B3
:101F500098E00E94AC0E40E060E082E598E00E94CC
:101F60006C0E66E67CE082E598E00E94460D41E05A
:101F700060E082E598E00E946C0E66E57CE082E518
:101F800098E0DF91CF911F910F91FF900C94460D37
:101F90000F931F93CF93DF93D82F8B01C42F8EE520
:101FA00098E00E94AC0E40E060E08EE598E0D13011
:101FB00069F50E946C0E65E47CE08EE598E00E9475
:101FC000460D41E060E08EE598E00E946C0E64E30F
:101FD0007CE0CC2311F063E27CE08EE598E00E9487
:101FE000460D41E062E08EE598E00E946C0EB8017B
:101FF0008EE598E00E94E20C69ED7BE08EE598E0CA
:10200000DF91CF911F910F910C94460D0E946C0EA1
:1020100062E17CE08EE598E00E94460D41E060E0E0
:102020008EE598E00E946C0E61E07CE0CC23A9F282
:1020300060EF7BE0C13089F26FED7BE0CECF8F9215
:102040009F92AF92BF92CF92DF92EF92FF928091D8
:102050004C0781112AC182E598E00E94AC0E40E055
:1020600060E082E598E00E946C0E62ED7BE082E524
:1020700098E00E94460DE0914107F0E0EE0FFF1F4F
:10208000EA59FD4F6081718182E598E00E94E20C7F
:1020900080914107833099F460ED7BE082E598E020
:1020A0000E94460DE0914207F0E0EE0FFF1FE25A5A
:1020B000FD4F6081718182E598E00E94E20C41E071
:1020C00060E082E598E00E946C0E6EEC7BE082E5B9
:1020D00098E00E94460DE0914307F0E0EE0FFF1FED
:1020E000E65AFD4F6081718182E598E00E94E20C22
:1020F0006CEC7BE082E598E00E94460D80914407FD
:10210000882331F065EC7BE082E598E00E94460D83
:1021100080914507882331F060EC7BE082E598E010
:102120000E94460D69EB7BE082E598E00E94460D37
:10213000C0904607D0904707E0904807F0904907C5
:10214000A7019601C701B6010E945E3C65EB7BE0EA
:10215000811125C046015701E894B7F82FEF3FEFF2
:102160004FE75FE7C501B4010E945E3C811123C0C7
:102170002FEF3FEF4FE75FE7C501B4010E94B03793
:102180001816CCF420E030E0A901C701B6010E9486
:10219000933A60EB7BE0181614F06BEA7BE082E583
:1021A00098E0FF90EF90DF90CF90BF90AF909F901E
:1021B0008F900C94460D20E030E0A901C701B601D4
:1021C0000E94B037811103C069EA7BE0E8CF20E0CC
:1021D00030E0A901C701B6010E94933A1816BCF479
:1021E00020E034E244E759E4C701B6010E94933A83
:1021F00087FD22C042E0C701B601FF90EF90DF905B
:10220000CF90BF90AF909F908F900C94830D20E063
:1022100034E244E759ECC701B6010E94B037181602
:102220004CF72FE632E143E85AEBC701B6010E94B2
:10223000933A18165CF4DECF2FE632E143E85AE316
:10224000C701B6010E94B03787FDD4CFC701B601E0
:102250000E94C3394B015C010E94B7379B01AC015E
:10226000C701B6010E94B03744E08111C4CF2AE013
:10227000B501A401B7FE0DC06DE282E598E00E94B1
:10228000640D44275527BA01481959096A097B0981
:102290002AE082E598E0FF90EF90DF90CF90BF902A
:1022A000AF909F908F900C94960CFF90EF90DF90E2
:1022B000CF90BF90AF909F908F900895CF93DF9372
:1022C0008EE598E00E94AC0E40E060E08EE598E07C
:1022D0000E946C0E61E97BE08EE598E00E94460D5D
:1022E000C9EED6E068818EE598E00E94EA0C6FE8BE
:1022F0007BE08EE598E00E94460D68818EE598E0CF
:102300000E94EA0C82E598E00E94AC0E40E060E09A
:1023100082E598E00E946C0E6AE87BE082E598E036
:102320000E94460DE091EA06F0E0EE0FFF1FE25832
:10233000F44F6081718182E598E00E94E20C41E0F7
:1023400060E082E598E00E946C0E6EE67BE082E53C
:1023500098E00E94460D2EEE36E048816091EC0632
:102360008091EB06DF91CF910C944B0F0F931F934D
:10237000CF93DF9300D000D01F921F92CDB7DEB76E
:102380008EE598E00E94AC0E40E060E08EE598E0BB
:102390000E946C0E88E0EEE3F2E0DE0111960190FF
:1023A0000D928A95E1F78091420790E0880F991F7E
:1023B00021E030E02C0F3D1F820F931FFC01608154
:1023C00071818EE598E00E94E20C41E060E08EE5CC
:1023D00098E00E946C0E009150060131A8F0005167
:1023E000110B005E194F20915006C8018052964093
:1023F0002817190661F05CF0F80161918F018EE5F4
:1024000098E00E94640DEFCF10E000E0EACF6CE6A8
:102410007BE08EE598E00E94460D82E598E00E9400
:10242000AC0E40E060E082E598E00E946C0E6BE547
:102430007BE082E598E00E94460D41E060E082E5A5
:1024400098E00E946C0E6AE47BE082E598E02896B2
:102450000FB6F894DEBF0FBECDBFDF91CF911F91B5
:102460000F910C94460DE0E2F6E0108210AA11AA3A
:102470001092610610926606109267061092680626
:10248000109269061092620610926306109264061A
:102490001092650610926A0610926B068EE598E01F
:1024A0000E94AC0E82E598E00E94AC0E40E060E035
:1024B0008EE598E00E946C0E62E07BE08EE598E08D
:1024C0000E94460D41E060E08EE598E00E946C0EAF
:1024D000E0914207F0E0EE0FFF1FE25AFD4F6081EE
:1024E00071818EE598E00E94E20C40E060E082E5B8
:1024F00098E00E946C0E60EF7AE082E598E00E941E
:10250000460D41E060E082E598E00E946C0E6FEDC0
:102510007AE082E598E00E94460D0C94B6110F9384
:102520001F93CF93DF938C01EB0182E598E00E942B
:10253000AC0E40E060E082E598E00E946C0EF8018D
:10254000808191810E946A0D8C819D81892B71F01F
:1025500041E060E082E598E00E946C0E88819981FC
:10256000DF91CF911F910F910C946A0DDF91CF9164
:102570001F910F910895CF92DF92EF92FF920F93E8
:102580001F93CF93DF937C018EE598E00E94AC0E01
:10259000E70109900020E9F72197CE19DF0940E013
:1025A00060E08EE598E00E946C0E6E01C031D105AE
:1025B0001CF420E1C22ED12C8601005111090C1708
:1025C0001D0774F4C016D10659F0F701E00FF11F92
:1025D00060818EE598E00E94640D0F5F1F4FEFCF82
:1025E00041E060E08EE598E00E946C0E6FE176E0DD
:1025F0008EE598E00E94460DE0914107F0E0EE0F75
:10260000FF1FEA59FD4F608171818EE598E00E94BD
:10261000E20C6DE176E08EE598E00E94460DE091D7
:102620004307F0E0EE0FFF1FE65AFD4F6081718116
:102630008EE598E00E94E20C6BE176E08EE598E092
:102640000E94460D80914407882331F067E176E0CF
:102650008EE598E00E94460D80914507882371F031
:1026600063E176E08EE598E0DF91CF911F910F91C5
:10267000FF90EF90DF90CF900C94460DDF91CF91BB
:102680001F910F91FF90EF90DF90CF900895EBEFA7
:10269000F6E0108210AAE1E4F7E0118612861382B8
:1026A000148210924C078BEF96E00E94BB120C94A0
:1026B0001F100F931F93CF93DF938C01EB0182E5E3
:1026C00098E00E94AC0E40E060E082E598E00E9455
:1026D0006C0EB80182E598E00E94460D209779F0D3
:1026E00041E060E082E598E00E946C0EBE0182E568
:1026F00098E0DF91CF911F910F910C94460DDF91DF
:10270000CF911F910F9108950F931F93CF93DF9354
:10271000EC011092FF051092FE051092FD0510923B
:10272000FC050E94B90A8CE098E09093FB05809329
:10273000FA058DE098E09093F9058093F8051D82E5
:102740008A85823010F098E09D83888762E370E08C
:1027500080E090E00E94DA076B85CE010E947E0B3C
:1027600068EE73E080E090E00E94DA0760E3CE015B
:102770000E94F10C0BE416E4C8010197F1F760E345
:10278000CE010E94F10CC8010197F1F760E3CE0180
:102790000E94F10C83E592E00197F1F760E2CE012F
:1027A0000E94F10C6D81606240E0CE010E940A0D32
:1027B00084E08E8340E06CE0CE010E940A0DCE01E1
:1027C0000E94AC0E82E08F8340E066E0CE010E9462
:1027D0000A0D40E062E0CE010E940A0D8BE39FE10A
:1027E0000197F1F7DF91CF911F910F91089521E0AB
:1027F0002093400740E150E0BC018CE297E00E944A
:10280000E03E10923C07089582E08093E906109222
:10281000EA0684E2EDE7F6E0DF01982F1D929A9533
:10282000E9F7E1EAF6E0DF011D928A95E9F71092F7
:10283000EB061092EC061092ED061092EE06109246
:10284000FA060C945E11CF93DF93CDB7DEB7619794
:102850000FB6F894DEBF0FBECDBF009731F0909356
:102860001F0680931E0660931D06E0911E06F091E0
:102870001F06309709F484C080911D0690916B0665
:10288000981718F0815080936B0680916B0690E04A
:10289000880F991FE80FF91F6591749140E150E08E
:1028A000CE0101960E94D133198A898181110EC00F
:1028B00010926B06E0911E06F0911F0665917491CF
:1028C00040E150E0CE0101960E94D13382E598E0CC
:1028D0000E94AC0E40E060E082E598E00E946C0E41
:1028E0006CE676E082E598E00E94E20C6AE37BE029
:1028F00082E598E00E94460D60916B0670E06F5F84
:102900007F4F82E598E00E94650E68E37BE082E5F8
:1029100098E00E94460D60911D0682E598E00E94B5
:10292000EA0C66E37BE082E598E00E94460D41E018
:1029300060E082E598E00E946C0EBE016F5F7F4F01
:1029400082E598E00E94E20C8EE598E00E94AC0ED1
:1029500040E060E08EE598E00E946C0E65E27BE06E
:102960008EE598E00E94460D41E060E08EE598E03B
:102970000E946C0E63E17BE08EE598E00E94460DBC
:1029800061960FB6F894DEBF0FBECDBFDF91CF9139
:1029900008951F93CF93DF93EB01142F40E150E094
:1029A000BC018CE696E00E94E03E10926B06612F1F
:1029B000CE01DF91CF911F910C9423148F929F929F
:1029C000AF92BF92CF92DF92EF92FF920F931F933D
:1029D000CF93DF936B017C01EA01122FAC019B01C5
:1029E0000E945E3C412F50E062EF72E0811128C0EE
:1029F00046015701E894B7F82FEF3FEF4FE75FE745
:102A0000C501B4010E945E3C811129C02FEF3FEF48
:102A10004FE75FE7C501B4010E94B0371816FCF418
:102A2000012F10E020E030E0A901C701B6010E94AB
:102A3000933A68EE72E0181614F06DEE72E0A80199
:102A4000CE01DF91CF911F910F91FF90EF90DF901A
:102A5000CF90BF90AF909F908F900C94E03E20E07D
:102A600030E0A901C701B6010E94B037811105C04D
:102A7000412F50E06DED74E0E3CFC701B6010E9435
:102A8000C339062FB72EA82E992E0E94B7379B0167
:102A9000AC01C701B6010E94B037811140C020E0EF
:102AA00030E0A901C701B6010E94933A18166CF5EF
:102AB00028E23BE64EE65EE4C701B6010E94B0376D
:102AC00087FF36C09F92AF92BF920F9386EF92E03E
:102AD0009F938F931F921F93DF93CF930E94EF3E9C
:102AE000EDB7FEB73A960FB6F894FEBF0FBEEDBF36
:102AF000DF91CF911F910F91FF90EF90DF90CF90DA
:102B0000BF90AF909F908F90089528E23BE64EE6ED
:102B10005EECC701B6010E94933A18169CF220E0C1
:102B200030E0A901C701B6010E94933A181694F447
:102B300029EF32E045E150E5C701B6010E94933A22
:102B400087FD1DC08E0124E04AE0C701B6010E9446
:102B50009F33CECF29EF32E045E150EDC701B601FA
:102B60000E94B037181674F727E137EB41ED58EBA8
:102B7000C701B6010E94933A18165CF4E3CF27E12F
:102B800037EB41ED58E3C701B6010E94B03787FD2E
:102B9000D9CF8E0126E041E0C701B6010E949F33E4
:102BA000FE01AF014C1B5D0B8191882309F4A0CF7E
:102BB0008E32B9F7FE0101900020E9F7CF010197AD
:102BC000FC013197CF012081BF016C1B7D0B4617A3
:102BD000570724F4203311F41082F2CF2E3209F07B
:102BE00087CF108285CF4F925F926F927F928F92A4
:102BF0009F92AF92BF92CF92DF92EF92FF92CF93CC
:102C0000DF930E94680C0E94810C883209F052C048
:102C10000E947B0C0E9441176B017C010E94680C92
:102C20000E94810C893209F040C00E947B0C0E94F6
:102C3000680C0E94810C8E3539F50E947B0C0E9435
:102C4000D2164B015C0120E030E0A901C701B601BA
:102C50000E94B03787FF92C0C501B4010E94C339FA
:102C6000072E000C880B990B0E94B737A501940121
:102C70000E94B037882309F481C08AE293E00E9461
:102C8000F713C12CD12C7601C701B601DF91CF918A
:102C9000FF90EF90DF90CF90BF90AF909F908F907C
:102CA0007F906F905F904F9008958AEF92E00E941E
:102CB000F713BDCF811108C08BE093E00E94F7139A
:102CC000C12CD12C7601B3CF8DEC882E8CEC982EB4
:102CD000A92C8DE3B82EC12CD12C7601D0E0C0E018
:102CE0000E94810C682F80ED860F8A30D0F5062E69
:102CF000000C770B60537109072E000C880B990BA1
:102D00000E94B7372B013C01CC23D1F0A5019401DF
:102D10000E94E1329B01AC01C701B6010E94453817
:102D20006B017C012DEC3CEC4CEC5DE3C501B40186
:102D30000E94E1324B015C010E947B0CD1E0D0CFBC
:102D400020E030E040E251E4C701B6010E94E132E8
:102D50009B01AC01C301B2010E9445386B017C01AB
:102D6000EBCF6E3231F4C11104C00E947B0CC1E084
:102D7000B7CFD1115CCF8BE193E099CFA50194013E
:102D8000C701B601DF91CF91FF90EF90DF90CF9018
:102D9000BF90AF909F908F907F906F905F904F907B
:102DA0000C94663B0E94680C0E94810C8D3231F4B9
:102DB0000E947B0C0E94F315905808958B3211F4F9
:102DC0000E947B0C0C94F3158F929F92AF92BF924E
:102DD000CF92DF92EF92FF920E94D2166B017C019C
:102DE00080914007811131C00E94680C0E94810CC3
:102DF0008A3259F40E947B0C0E94D2169B01AC01CE
:102E0000C701B6010E94E132E9CF8F32F1F40E948E
:102E10007B0C0E94D2164B015C0120E030E0A9013E
:102E20000E94933A1816E4F42DE73DE140E956E29A
:102E3000C501B4010E94B03787FF1CC08EE393E048
:102E40000E94F713C12CD12C7601C701B601FF9067
:102E5000EF90DF90CF90BF90AF909F908F900895AC
:102E60002DE73DE140E956EAC501B4010E94933ADD
:102E7000181624F3A5019401C701B6010E94173961
:102E8000ADCFCF92DF92EF92FF920E94E4166B01DA
:102E90007C018091400781111EC00E94680C0E9435
:102EA000810C8B3259F40E947B0C0E94E4169B012A
:102EB000AC01C701B6010E944538E9CF8D3259F403
:102EC0000E947B0C0E94E4169B01AC01C701B60175
:102ED0000E944438DCCFC701B601FF90EF90DF902D
:102EE000CF900895CF92DF92EF92FF920F931F93AE
:102EF000CF93DF93CDB7DEB7CC59D1090FB6F89495
:102F0000DEBF0FBECDBF6C01CB01BA0179018E01CE
:102F10000F561F4F28E041E00E949F3330E020E031
:102F2000AE014F5F5F4F18E209E2F601E30FF11DBA
:102F30006081822F90E0662329F1243818F52F5FF5
:102F4000762F7F7D840F951FFC017835C9F410839F
:102F5000BE016F567F4FDA01A20FB11DFB018191B7
:102F6000BF012F5FFD01E41BF50B882321F02F38F3
:102F700011F08D93F3CFE40FF51F00833F5FD5CFA2
:102F80006083FCCF840F951FFC01108250933F0794
:102F900040933E0710923D071092400710922C0775
:102FA0000E94411720914007F7012083C456DF4F4C
:102FB0000FB6F894DEBF0FBECDBFDF91CF911F914A
:102FC0000F91FF90EF90DF90CF9008950F931F9394
:102FD000CF93DF93EC0188819981009759F02A8182
:102FE0003B812617370730F081E0DF91CF911F91A9
:102FF0000F9108958B016F5F7F4F0E94EF3D009707
:1030000059F0998388831B830A832C813D81232B6C
:1030100059F7FC011082E8CF80E0E7CFEF92FF92F2
:103020000F931F93CF93DF93FB0101900020E9F7EB
:103030003197E61BF70BE1F07B018C01DC01149664
:10304000CD91DC91CE0FDF1FBE010E94E6178823D1
:1030500081F0F8012081318184819581B701820F4F
:10306000931F0E94D93ED8011596DC93CE931497F6
:1030700081E0DF91CF911F910F91FF90EF90089524
:10308000CF93DF93EC0188819981009711F00E9422
:10309000663D198218821D821C821B821A82DF9172
:1030A000CF910895EF92FF920F931F93CF93DF93E9
:1030B000EC018B016115710551F0CB010E94C83301
:1030C0007C01BC01CE010E94E61781110BC0CE012C
:1030D0000E944018CE01DF91CF911F910F91FF9078
:1030E000EF900895FD82EC82B801888199810E9459
:1030F000C133F0CFEF92FF920F931F93CF93DF93E3
:10310000EC017B01198218821B821A821D821C82AB
:10311000FB0101900020E9F731978F01061B170B87
:10312000B8010E94E617811109C0CE01DF91CF914D
:103130001F910F91FF90EF900C9440181D830C830A
:10314000B70188819981DF91CF911F910F91FF90F5
:10315000EF900C94D93E9F92AF92BF92CF92DF92A4
:10316000EF92FF920F931F93CF93DF93EC016B01CC
:1031700065ED73E00E947A18D6011496ED90FC90EC
:10318000E114F10461F1B0E1EB16F10418F080E113
:10319000E82EF12CD601ED91FC911197EE0DFF1D5B
:1031A00090801082AD90BC90A114B10471F0F50133
:1031B00001900020E9F731978F010A191B09B80126
:1031C000CE010E94E617811117C0CE010E9440185F
:1031D000F60180819181E80EF91ED7019C92CE0103
:1031E000DF91CF911F910F91FF90EF90DF90CF90E3
:1031F000BF90AF909F9008951D830C83B501888187
:1032000099810E94D93EE4CFFC0180819181009791
:1032100011F00C94663D0895CF92DF92EF92FF92E9
:103220000F931F93CF93DF93CDB7DEB72E970FB6D3
:10323000F894DEBF0FBECDBF8EE598E00E94AC0EC5
:1032400082E598E00E94AC0E40E060E08EE598E0F8
:103250000E946C0E6FE97BE08EE598E00E94460DBF
:1032600010E08091E906181708F079C060E573E076
:10327000CE0109960E947A1800E0812F90E07C012F
:10328000EE0CFF1CE80EF91E8091E906081758F5B0
:10329000C02ED12CF701EC0DFD1DEE0FFF1FEE0F20
:1032A000FF1FEB53F94F608171818281938128E088
:1032B000AE014F5F5F4F0E94DE14BE016F5F7F4F14
:1032C000CE0109960E940E188091E9068150990B53
:1032D000C816D90634F464ED73E0CE0109960E9455
:1032E0000E180F5FD1CF6FEC74E0CE0109960E94EB
:1032F0000E1811111EC041E060E08EE598E00E94BA
:103300006C0EBE01675F7F4FCE0101960E94AB1825
:10331000BE016F5F7F4F8EE598E00E943B08CE01B3
:1033200001960E940419CE0109960E9404191F5F9C
:1033300098CF40E0113009F041E060E082E598E08C
:103340000E946C0EBE01675F7F4FCE0101960E9406
:10335000AB18BE016F5F7F4F82E598E0DECF81E062
:1033600080934B072E960FB6F894DEBF0FBECDBFED
:10337000DF91CF911F910F91FF90EF90DF90CF9051
:1033800008953F924F925F926F927F928F929F9299
:10339000AF92BF92CF92DF92EF92FF920F931F9363
:1033A000CF93DF933090E9060DE716E0F12C4C0146
:1033B000990FAA08BB083F1429F1E801E12C3E143B
:1033C000E9F049905990699079906E0184E4C80EB3
:1033D000D11CC501B4010E94B73728A139A14AA167
:1033E0005BA10E94E132A30192010E944538F601DF
:1033F0006083718382839383E394E1CFF394045FCA
:103400001F4FD9CFDF91CF911F910F91FF90EF9078
:10341000DF90CF90BF90AF909F908F907F906F90F4
:103420005F904F903F900C940C1985ED8093BC00F9
:103430008091D2059091D305A091D405B091D50586
:103440000796A11DB11D23E0B695A7959795879581
:103450002A95D1F72091BC0024FD03C01092D0051D
:1034600008954091D2055091D3056091D405709193
:10347000D505452B462B472B69F30097A105B105D0
:1034800041F02AE22A95F1F700C00197A109B1099C
:10349000E1CF8091D1050C94D70A1F920F920FB6FD
:1034A0000F9211242F933F938F939F93AF93BF93CA
:1034B0008091150690911606A0911706B0911806F6
:1034C0003091140623E0230F2D3758F50196A11DE6
:1034D000B11D209314068093150690931606A093B1
:1034E0001706B09318068091190690911A06A091BC
:1034F0001B06B0911C060196A11DB11D80931906F3
:1035000090931A06A0931B06B0931C06BF91AF912F
:103510009F918F913F912F910F900FBE0F901F9011
:10352000189526E8230F0296A11DB11DD2CF1F9238
:103530000F920FB60F9211240BB60F922F933F9359
:103540004F935F936F937F938F939F93AF93BF93AB
:10355000EF93FF938091B900887F803609F44DC0C6
:1035600008F040C0883209F4A9C028F5803109F478
:103570009DC0C8F4882309F4FBC0883009F496C0C4
:10358000FF91EF91BF91AF919F918F917F916F913B
:103590005F914F913F912F910F900BBE0F900FBEF7
:1035A0000F901F901895883109F488C0803241F738
:1035B0008093CE0514C0803409F49DC040F480335C
:1035C000B9F38833E9F68093CE0585ECB0C0803539
:1035D00009F485C0883509F496C0883489F60E94BC
:1035E000151ACECF883909F48CC038F5883729F000
:1035F00050F4883611F0803719F683E08093D005B7
:103600001092A90557C0883809F47BC0803919F099
:10361000803809F0B5CF8091A905803208F071C0DB
:10362000E091A90581E08E0F8093A9058091BB00F0
:10363000F0E0E757FA4F80833DC0803B39F0E0F47B
:10364000803A09F479C0883A09F09ACF84E08093EF
:10365000D0051092880510928705E091FA05F09147
:10366000FB0519958091870581110FC081E080933A
:1036700087051092670509C0803C09F4A6CF883CF5
:1036800009F4A3CF883B09F07BCFE091880581E066
:103690008E0F80938805F0E0E959FA4F808180937E
:1036A000BB00909188058091870529C08091AB056A
:1036B0008093BB0085EC8093BC0062CF9091CD05D8
:1036C0008091CC05981758F5E091CD0581E08E0FDB
:1036D0008093CD05F0E0E455FA4F8081E9CFE09189
:1036E000CD0581E08E0F8093CD058091BB00F0E089
:1036F000E455FA4F80839091CD058091CC059817C1
:10370000C8F285E8D8CFE091CD0581E08E0F809397
:10371000CD058091BB00F0E0E455FA4F80838091A5
:10372000CF0581115CCF81E08093AA0584EA809364
:10373000BC001092D00524CF85EC8093BC00109281
:10374000D0058091A905803230F4E091A905F0E020
:10375000E757FA4F10826091A90570E0E091F805F3
:10376000F091F90589E895E019951092A90508CF1F
:103770001092CE0534CF10926B0710926A0788EE34
:1037800093E0A0E0B0E080936C0790936D07A09366
:103790006E07B0936F0782E792E09093690780937A
:1037A000680710926108109260082EE832E03093AA
:1037B0005F0820935E0887E28093620890E190930F
:1037C000670882E080936808109269081092550893
:1037D00010925408309353082093520821E220930A
:1037E000560890935B0880935C0810925D081092D5
:1037F000E5071092E9071092E8071092EA0784E8BB
:1038000092E09093E4078093E307EFEFF7E01082F4
:10381000148213821582369688E0EB33F807B9F7E5
:103820008CE292E0909346088093450888E292E00B
:10383000909348088093470884E0809349088093D8
:103840004A0886EA92E090934408809343088AE00D
:1038500090E090934C0880934B0884EF91E0909314
:103860004E0880934D081092510810925008109203
:103870003F0810924008109241081092420810929E
:103880004F081092760710927A07109279071092DB
:103890007B0784E892E09093750780937407E0E9D2
:1038A000F7E08CEC97E01082148213821582369632
:1038B0008E179F07C1F784E292E09093D707809319
:1038C000D60780E292E09093D9078093D80784E0EE
:1038D0008093DA078093DB0786E992E09093D5071F
:1038E0008093D4078AE090E09093DD078093DC0713
:1038F00084EF91E09093DF078093DE071092E20758
:103900001092E1071092D0071092D1071092D207BF
:103910001092D3071092E0070895CF93DF93CDB7AD
:10392000DEB7C658D1090FB6F894DEBF0FBECDBFC3
:10393000789484B5826084BD84B5816084BD85B58A
:10394000826085BD85B5816085BD80916E00816096
:1039500080936E001092810080918100826080933C
:10396000810080918100816080938100809180003E
:103970008160809380008091B10084608093B10069
:103980008091B00081608093B0008091910082604E
:10399000809391008091910081608093910080914B
:1039A00090008160809390008091A100826080935C
:1039B000A1008091A10081608093A1008091A0006E
:1039C00081608093A0008091210182608093210119
:1039D000809121018160809321018091200181608B
:1039E0008093200180917A00846080937A00809196
:1039F0007A00826080937A0080917A00816080935F
:103A00007A0080917A00806880937A001092C100D9
:103A10001092FF051092FE051092FD051092FC0514
:103A20000E94B90A8CE098E09093FB058093FA0518
:103A30008DE098E09093F9058093F8056CE271E0D1
:103A400080E090E00E94DA0710924107109242074E
:103A500010924307109244071092450710924607B0
:103A600010924707109248071092490710924A0790
:103A700010924B078EE598E00E94841318E0109393
:103A8000690860E08EE598E00E947E0B82E598E090
:103A90000E94841310935D0860E082E598E00E9424
:103AA0007E0B68E172E080E00E94270D60E172E029
:103AB00081E00E94270D68E072E082E00E94270DFD
:103AC00060E072E083E00E94270D8EE598E00E949E
:103AD000AC0E40E062E08EE598E00E946C0E66E578
:103AE00076E08EE598E00E94460D41E060E08EE5CC
:103AF00098E00E946C0E64E476E08EE598E00E9407
:103B0000460D82E598E00E94AC0E40E061E082E55F
:103B100098E00E946C0E62E376E082E598E00E94F5
:103B2000460D41E060E082E598E00E946C0E61E2A3
:103B300076E082E598E00E94460D68E978E080E052
:103B400090E00E94DA078EE598E00E94AC0E82E5D4
:103B500098E00E94AC0E0E9447139E01275D3F4FE4
:103B60006C963FAF2EAF6C97CE0140966E969FAF8E
:103B70008EAF6E97DE0111961D0183EE97E00E94D5
:103B8000EB08182F84E797E00E94EB086F968FAF41
:103B90006F97809141076F96BFAD6F97BD3409F065
:103BA000C0C090E0019683709927182F8093410739
:103BB000109244071092450710924A0710924B0743
:103BC0008EE598E00E94AC0E82E598E00E94AC0E73
:103BD00040E060E08EE598E00E946C0E61E277E0E4
:103BE0008EE598E00E94460D41E060E08EE598E0A9
:103BF0000E946C0E60E177E08EE598E00E94460D31
:103C000041E064E08EE598E00E946C0E123009F409
:103C100052C0133009F46AC0113091F167E077E0C7
:103C20008EE598E00E94460D40E060E082E598E075
:103C30000E946C0E66EF76E082E598E00E94460DE9
:103C400041E060E082E598E00E946C0E66EE76E06E
:103C500082E598E00E94460D68E077E080E090E021
:103C60000E94DA07123011F40C94482B133011F42F
:103C70000C94C42D113009F422C60E9447135DC074
:103C80006DED76E08EE598E00E94460D40E060E044
:103C900082E598E00E946C0E6CEC76E082E598E09C
:103CA0000E94460D41E060E082E598E00E946C0EC3
:103CB00068EB76E0CDCF6FEA76E08EE598E00E9483
:103CC000460D40E060E082E598E00E946C0E6EE9EF
:103CD00076E082E598E00E94460D41E060E082E5F2
:103CE00098E00E946C0E6DE876E0B2CF64E876E072
:103CF0008EE598E00E94460D40E060E082E598E0A5
:103D00000E946C0E63E776E082E598E00E94460D23
:103D100041E060E082E598E00E946C0E62E676E0A9
:103D200097CF813009F49EC580F0823011F40C9455
:103D3000762A833011F40C94AC2D80E090E0892B2E
:103D400009F41BCF0E94000015CF112309F4D9C03C
:103D500080914A07882309F496C0133409F495C06A
:103D600085EC93E00E94F30E6F96EFAD6F97EE2314
:103D700021F36F96FFAD6F97F33409F027C280905F
:103D80004B07811004C080912B078111CFC2E090B6
:103D90004607F0904707009148071091490788248B
:103DA000839460904507D09044077090430771104A
:103DB000E2C22BED3FE049E450E4B701C8010E94A4
:103DC000E13220E030E044E353E40E941739962EBC
:103DD000A72EB82EC92E6F96BFAD6F97BC3609F4CB
:103DE0009CC40CF0CDC2BE3509F4B9C4B43609F494
:103DF0006BC3B13509F038C3DD2009F4DCC297018B
:103E0000A801B701C8010E94E1325B016C0164E8BE
:103E100073E040E150E0CE0189960E94E03E19AE89
:103E200024E1A101B501C6010E94DE14C501D6013D
:103E30008093460790934707A0934807B09349079C
:103E400081E080934B0781108FC480912B078150B4
:103E5000990B8F3F980709F4E3C4FC01E550F94F33
:103E60002081322F3D7F3D3209F4DAC436ED320F26
:103E7000323008F4D5C42E3509F4D2C4283209F4FE
:103E8000CFC40197E6CF133449F40E9447136CE680
:103E900077E081E797E00E94591333C01D3309F0A2
:103EA0004BC180912B07882311F40C94D43219A6AE
:103EB0008BEF96E090933F0780933E0710923D076B
:103EC0001092400710922C070E9441176B017C0151
:103ED00080914007882311F40C94913240E150E026
:103EE0006CE277E0CE0189960E94E03E81E080930B
:103EF0004A0789A5882309F440C0CE0189960E940B
:103F0000F30E6F96FFAD6F97FF2309F416CF8091E4
:103F10004A0781112ECF6F963FAD6F973E3309F45C
:103F2000ACCE0CF06DC13E3209F4CFC10CF059C1DA
:103F3000832F8852823008F022CF80914B0788234C
:103F400059F06F96BFAD6F97B83231F41092FB06FF
:103F500010922B0710924B07E0912B07EE3208F0DE
:103F6000D0C181E08E0F80932B07F0E0E550F94F30
:103F70006F962FAD6F972083BFC182E593E0BFCFCF
:103F800081E793E0BCCF24E1A101C701B6010E9403
:103F9000DE14C0924607D0924707E0924807F0929D
:103FA000490781E080934B0710924A078EE598E01D
:103FB0000E94AC0E0BEF16E0D8010D900020E9F73F
:103FC0008D010C5F1640F10101900020E9F7319757
:103FD0007F01E218F30840E060E08EE598E00E947F
:103FE0006C0EC8010031110514F480E190E0FC0171
:103FF000E551F94F6F01C6018B5F9640801791071D
:1040000044F4D6016D916D018EE598E00E94640D37
:10401000F2CF41E060E08EE598E00E946C0E6DE327
:104020008EE598E00E94640D8101B0E1EB16F10489
:1040300008F043C0B1018EE598E00E94E20C1092B6
:104040004C073F922F9286ED93E09F938F931F92A0
:1040500081E18F938E010B5E1F4F1F930F930E9480
:10406000EF3EB801CE018F5A9F4F0E947A181EAEC4
:104070001DAE21961FAE1EAE219723961FAE1EAE1B
:10408000239760E677E0CE01CD960E945218BE01DC
:104090006F5A7F4FCE01CD960E948F12CE01CD96E2
:1040A0000E940419CE018F5A9F4F0E9404190FB627
:1040B000F894DEBF0FBECDBF24CFF80161918F0110
:1040C0008EE598E00E94640D6E962EAD3FAD6E9722
:1040D0000217130791F782E598E00E94AC0E40E0CA
:1040E00060E082E598E00E946C0E6FE477E082E584
:1040F00098E00E94460D41E060E082E598E00E9471
:104100006C0E8E01005F1F4F5FE0C52ED12CD801D1
:104110006D918D0182E598E00E94640DBFEFCB1A8E
:10412000DB0ACE14DF0424F43FE1C316D10479F78F
:1041300081E080934C0785CF80914B07882371F0F5
:10414000812F8D7F8D3299F086ED810F823078F04E
:104150001092FB0610922B0710924B07E0912B0751
:10416000EE3210F162E377E08EE397E094CE609157
:10417000460770914707809148079091490724E1CD
:10418000A1010E94DE14F10101900020E9F73197AE
:10419000E219F309E0932B0740E350E0B1018BEF04
:1041A00096E00E94E03ED8CF81E08E0F80932B07EF
:1041B000F0E0E550F94F1083E82FF0E0E550F94FBB
:1041C00010828BEF96E00E94BB129BCE6F962FADB4
:1041D0006F972E3309F451CD85EC93E00E94F30ED6
:1041E000ACCD6F968FAD6F978C3309F0C8CDE09151
:1041F0002B07EE2309F4A1CDE150E0932B077DC0FE
:104200006F969FAD6F979335D1F02CF4913419F1DF
:10421000923469F3B4CD6F96AFAD6F97AE3509F4B4
:1042200075C0A83609F0ABCD8091450791E089278C
:1042300080934507882361F01092440709C080915C
:10424000440791E089278093440781111092450724
:104250000E941F1072CD80914B07882331F010927D
:10426000FB0610922B0710924B0760914607709146
:104270004707809148079091490724E1A1010E94D6
:10428000DE14D1019D9180912B07E82FF0E09F0172
:104290002550394F992361F08E3250F48F5F80930F
:1042A0002B07CD010197FC018081F9018083EACFC2
:1042B000D9011C928BEF96E00E94BB1270E060E087
:1042C00088E797E00E94591338CD80914B078823E7
:1042D00031F01092FB0610922B0710924B07E091E1
:1042E0002B07EE3270F481E08E0F80932B07F0E005
:1042F000E550F94F9EE29083E82FF0E0E550F94F4A
:1043000010828BEF96E00E94BB1217CDE0912B0735
:10431000EE32B8F781E08E0F80932B07F0E0E55086
:10432000F94F6F963FAD6F973083E6CF8150990B71
:10433000FC01E550F94F2081322F3D7F3D3251F095
:1043400036ED320F323030F02E3521F0283211F0B8
:10435000019770F78450994F90933F0780933E07E1
:1043600010923D071092400710922C070E944117AF
:104370007B018C0116CD9E2CAF2CB02EC12E2BCDE7
:104380006F96EFAD6F97E33761F1E43709F40FC132
:10439000EE3609F069C0DD2009F4A8C19701A80133
:1043A00060E070E080E291E40E94663B5B016C019A
:1043B00063EB73E02ECD20E030E0A901B701C80126
:1043C0000E94B03741E150E06DED73E087FD48C0D9
:1043D000B701C8010E94EA3B5B016C0167E873E02A
:1043E00018CD662011F1B701C801DD20B9F00E9497
:1043F000DD3220E030E040E85FE30E9445380E9473
:10440000EA3B9B01AC01B701C8010E9445380E94FC
:10441000EA3A5B016C016CE873E0FBCC0E94B63BAE
:104420005B016C016DE873E0F4CCDD2009F441C060
:1044300020E030E040E85FEBB701C8010E94B037F0
:1044400087FD0AC020E030E040E85FE3B701C80123
:104450000E94933A1816A4F441E150E068EE73E02C
:10446000CE0189960E94E03E81E080934A07CE010A
:1044700089960E94F30E10924407109245075DCC76
:10448000B701C8010E94B1385B016C0171100EC008
:1044900020E030E044E353E40E94E1322BED3FE0C2
:1044A00049E450E40E9417395B016C0162E973E052
:1044B000B0CC692D7A2D8B2D9C2D0E94DC3B5B01AD
:1044C0006C0165E973E0A5CC662091F1DD2039F13E
:1044D00020E030E040E85FE3B701C8010E94B03758
:1044E00041E150E067EF73E087FDBACFB701C80143
:1044F0000E94DD3220E030E040E85FE30E94443873
:104500000E94EA3B9B01AC01B701C8010E944538FB
:104510000E94EA3A5B016C0169E973E07ACCB70169
:10452000C8010E94FB385B016C016AE973E071CC41
:10453000DD2091F120E030E040E85FEBB701C801F9
:104540000E94B03787FD0AC020E030E040E85FE31A
:10455000B701C8010E94933A18162CF441E150E0CB
:1045600064E074E07DCFB701C8010E9433385B017D
:104570006C0171100EC020E030E044E353E40E946F
:10458000E1322BED3FE049E450E40E9417395B0132
:104590006C016FE973E03DCC692D7A2D8B2D9C2D3C
:1045A0000E9412395B016C0162EA73E032CC662032
:1045B00009F44AC0DD2009F43EC020E030E040E8C4
:1045C0005FEBB701C8010E94B037181654F420E021
:1045D00030E040E85FE3B701C8010E94933A87FDED
:1045E00005C041E150E063E174E03ACF20E030E003
:1045F00040E85FE3B701C8010E9445382B013C0148
:104600009701A80160E070E080E89FE30E944438D1
:104610009B01AC01C301B2010E9417390E94EA3A22
:1046200020E030E040E05FE30E94E1325B016C019A
:1046300066EA73E0EECBB701C8010E942A3C5B0139
:104640006C0167EA73E0E5CBDD20C9F0B701C80172
:104650000E94CC385B016C0171100EC020E030E08C
:1046600044E353E40E94E1322BED3FE049E450E49F
:104670000E9417395B016C016CEA73E0CACB692DAB
:104680007A2D8B2D9C2D0E9412392B013C0120E0AC
:1046900030E0A9010E94933A18167CF42FEF36EE11
:1046A0004BED5EE2C301B2010E94B03787FF0FC03D
:1046B00041E150E060E274E0D3CE2FEF36EE4BEDF7
:1046C0005EEAC301B2010E94933A18168CF3692D79
:1046D0007A2D8B2D9C2D0E94DC3BA30192010E9420
:1046E00017395B016C016FEA73E093CB20E030E097
:1046F000A901B701C8010E94B03718162CF041E19A
:1047000050E06FE274E0ACCEB701C8010E94DA3A23
:104710005B016C0168EB73E07CCBDD2049F0B701F5
:10472000C8010E9491395B016C016EEB73E071CBA3
:1047300020E030E0A901B701C8010E94B03741E193
:1047400050E069E374E018160CF08ACEB701C80196
:104750000E94EA3A5B016C0162EC73E05ACB5701AC
:10476000680162E873E055CB40E350E0B1018BEFA4
:1047700096E00E94E03E8BEF96E0DC010D90002079
:10478000E9F7CD018C5F964080932B078BEF96E085
:104790000E94BB122CE040E056E0B701C8010E9425
:1047A000DE1480E096E09F938F936C96BFAD6C977C
:1047B000BF936B96EFAD6B97EF9382E494E09F937A
:1047C0008F931F9281E18F938E010B5E1F4F1F937A
:1047D0000F930E94EF3EB101CE018F5A9F4F0E946E
:1047E0007A18B801CE01CD960E947A18BE016F5A90
:1047F0007F4FCE01CD960E948F12CE01CD960E94A2
:104800000419CE018F5A9F4F0E9404191092440739
:10481000109245070FB6F894DEBF0FBECDBF8DCA0C
:104820008F5F80932B07E82FF0E0E550F94F10825F
:10483000D1019D9180912B07E82FF0E09F01255039
:10484000394F992361F08E3250F48F5F80932B079C
:10485000CD010197FC018081F9018083EACFD90164
:104860001C9294CF112321F0133461F50E9404149B
:104870006F96BFAD6F97BB2309F45FCAB23421F0C6
:10488000BC3311F00C94C532E091FA06EE2339F0F6
:10489000E150E093FA06F0E0E251F94F10822EEE7B
:1048A00036E04091E9066091EC068091EB060E94AB
:1048B0004B0F6F96EFAD6F97EE3309F0F3C50E9483
:1048C00004143BCA90ED910F9A3010F01E32E1F4BF
:1048D000E091FA06EB3068F481E08E0F8093FA06DF
:1048E000F0E0E251F94F1083E82FF0E0E251F94F88
:1048F00010822EEE36E04091E9066091EC06809140
:10490000EB060E944B0FB4CF1D3259F49091FA067A
:104910009111AECF8093FA061093EE061092EF0637
:10492000E8CF1D3309F08AC58EEE96E00E94BD33B4
:104930003091ED062091EB06A091EC06332309F4AB
:1049400048C0E22FF0E0AF01440F551FE40FF51F00
:10495000EA0FF11DEE0FFF1FEE0FFF1FEF55F94F8E
:1049600060837183828393831092EE061092FA061D
:10497000AF5FA093EC061091E906A11728F0109202
:10498000EC062F5F2093EB068091EB06811708F46D
:10499000B0CF8091EA0631112CC0833050F581E010
:1049A0008093ED061092EB061092EC068EE598E0EF
:1049B0000E94AC0E40E060E08EE598E00E946C0E34
:1049C0006DE977E08EE598E00E94460D0E941F1089
:1049D00090CF422F50E0FA01EE0FFF1FE40FF51FBA
:1049E000EA0FF11DEE0FFF1FEE0FFF1FE358F94F07
:1049F000B7CF8230A1F148F4882309F494C0813004
:104A000009F036CF8FEF9FEF90C0843009F4E5C1F5
:104A100008F493C04DE756E09A0160E0853009F054
:104A200027CF161709F496C2DA0190E080E08117CB
:104A300008F0FEC4CD90DD90ED90FC901397FC0142
:104A4000EE0FFF1FEE0FFF1FE85BFF4FE20FF31F9C
:104A5000C082D182E282F38201961C96E8CFFDE704
:104A6000EF2EF6E0FF2E00E0101709F473C2570195
:104A700038E4A30EB11CEDE7CE2EE6E0DE2EA096C4
:104A80001FAEA097A0968FADA097181709F450C03D
:104A9000D5011D921D921D921C9213974601A99655
:104AA000FFAEEEAEA997412C512C3201A4961FAE59
:104AB000A497A996EEADFFADA997619171918191EF
:104AC0009191A996FFAFEEAFA997D40194962D913D
:104AD0003D914D915C9197970E94E1329B01AC0111
:104AE000C301B2010E9445382B013C01A496BFAD21
:104AF000A497BF5FA496BFAFA497ECE08E0E911C65
:104B00001B13D7CFD5014D925D926D927D925D01C1
:104B1000A096BFADA097BF5FA096BFAFA097E4E0FF
:104B2000CE0ED11CAFCF81E090E00E94C119A0CE83
:104B30000F5FFCE0EF0EF11C97CF80907D06909008
:104B40007E06A0907F06B090800640908D06509023
:104B50008E0660908F0670909006809181069091ED
:104B60008206A0918306B0918406E3968CAF9DAF38
:104B7000AEAFBFAFE3978091890690918A06A0916E
:104B80008B06B0918C06A3968CAF9DAFAEAFBFAF36
:104B9000A397123009F064C0A5019401C301B201CA
:104BA0000E94E1326B017C01E3962CAD3DAD4EAD30
:104BB0005FADE397A3966CAD7DAD8EAD9FADA39732
:104BC0000E94E1329B01AC01C701B6010E9444384A
:104BD000609346077093470780934807909349076F
:104BE00024E1A1010E94DE148EE598E00E94AC0E43
:104BF00040E060E08EE598E00E946C0E64E977E0AA
:104C00008EE598E00E94460D41E060E08EE598E078
:104C10000E946C0EB1018EE598E00E94E20CB10199
:104C2000CE0189960E947A181E8A1D8A188E1F8AC4
:104C30001A8E198E63E877E0CE0145960E945218CD
:104C4000BE01675D7F4FCE0145960E948F12CE0157
:104C500045960E940419CE0189960E94041908CE37
:104C6000C0909D06D0909E06E0909F06F090A00612
:104C70008091910690919206A0919306B09194062E
:104C8000A7968CAF9DAFAEAFBFAFA79780919906A7
:104C900090919A06A0919B06B0919C06AB968CAF22
:104CA0009DAFAEAFBFAFAB97809195069091960642
:104CB000A0919706B0919806AF968CAF9DAFAEAF1E
:104CC000BFAFAF97A3019201C701B6010E94E132C5
:104CD000E7966CAF7DAF8EAF9FAFE797AB962CADED
:104CE0003DAD4EAD5FADAB97A7966CAD7DAD8EADD6
:104CF0009FADA7970E94E1329B01AC01E7966CAD96
:104D00007DAD8EAD9FADE7970E944438A50194011B
:104D10000E94E1324B015C01A3962CAD3DAD4EAD3E
:104D20005FADA397C701B6010E94E1326B017C0120
:104D3000AF962CAD3DAD4EAD5FADAF97A7966CADC8
:104D40007DAD8EAD9FADA7970E94E1329B01AC0176
:104D5000C701B6010E944438E3962CAD3DAD4EAD7F
:104D60005FADE3970E94E1329B01AC01C501B40144
:104D70000E9444386B017C01A3962CAD3DAD4EAD35
:104D80005FADA397AB966CAD7DAD8EAD9FADAB9790
:104D90000E94E1324B015C01A3019201AF966CAD20
:104DA0007DAD8EAD9FADAF970E94E1329B01AC010E
:104DB000C501B4010E9444382091850630918606D1
:104DC00040918706509188060E94E1329B01AC0118
:104DD000C701B6010E944538FBCE80917D069091B7
:104DE0007E06A0917F06B0918006A3968CAF9DAF02
:104DF000AEAFBFAFA39780918D0690918E06A09124
:104E00008F06B0919006AB968CAF9DAFAEAFBFAFA3
:104E1000AB97409081065090820660908306709018
:104E200084068091890690918A06A0918B06B091A4
:104E30008C06A7968CAF9DAFAEAFBFAFA7971230D1
:104E400009F08BC0A3962CAD3DAD4EAD5FADA397E1
:104E5000AB966CAD7DAD8EAD9FADAB970E94E13250
:104E60006B017C01A3019201A7966CAD7DAD8EAD67
:104E70009FADA7970E94E1329B01AC01C701B6012B
:104E80000E9444386B017C0120E030E0A9010E94BF
:104E9000933A18167CF42CEC3CEB4CE85BE2C7012F
:104EA000B6010E94B03787FF0FC089E494E00E94EA
:104EB000F30EDECC2CEC3CEB4CE85BEAC701B60110
:104EC0000E94933A18168CF3A7019601AB966CAD2D
:104ED0007DAD8EAD9FADAB970E9417396093C5062F
:104EE0007093C6068093C7069093C806C301B201AB
:104EF0009058A70196010E9417396093C9067093D4
:104F0000CA068093CB069093CC06A7966CAD7DAD78
:104F10008EAD9FADA7979058A70196010E941739B3
:104F20006093D1067093D2068093D3069093D406F3
:104F3000A7019601A3966CAD7DAD8EAD9FADA397F5
:104F40000E9417396093D5067093D6068093D706D2
:104F50009093D8060E940C198BCC80909D0690905F
:104F60009E06A0909F06B090A00680919106909119
:104F70009206A0919306B0919406E3968CAF9DAFF4
:104F8000AEAFBFAFE3978091990690919A06A0913A
:104F90009B06B0919C06E7968CAF9DAFAEAFBFAFBE
:104FA000E797AB962CAD3DAD4EAD5FADAB97C50170
:104FB000B4010E94E1326B017C01E7962CAD3DAD5E
:104FC0004EAD5FADE797E3966CAD7DAD8EAD9FAD19
:104FD000E3970E94E1329B01AC01C701B6010E9438
:104FE0004438EB966CAF7DAF8EAF9FAFEB9780915F
:104FF000950690919606A0919706B0919806EF9627
:105000008CAF9DAFAEAFBFAFEF97A7962CAD3DADC8
:105010004EAD5FADA797C501B4010E94E1326B01AF
:105020007C01EF962CAD3DAD4EAD5FADEF97E396B5
:105030006CAD7DAD8EAD9FADE3970E94E1329B01DB
:10504000AC01C701B6010E944438C158DF4F6883E4
:1050500079838A839B83CF57D04080918506909136
:105060008606A0918706B0918806AF968CAF9DAF5B
:10507000AEAFBFAFAF97A7962CAD3DAD4EAD5FAD18
:10508000A797E7966CAD7DAD8EAD9FADE7970E947B
:10509000E1326B017C01AB962CAD3DAD4EAD5FAD09
:1050A000AB97EF966CAD7DAD8EAD9FADEF970E9447
:1050B000E1329B01AC01C701B6010E944438CD57D3
:1050C000DF4F688379838A839B83C358D040A3963C
:1050D0002CAD3DAD4EAD5FADA397EB966CAD7DAD08
:1050E0008EAD9FADEB970E94E1326B017C01A30175
:1050F0009201C158DF4F688179818A819B81CF57A6
:10510000D0400E94E1329B01AC01C701B6010E9470
:1051100044386B017C01CD57DF4F288139814A81AA
:105120005B81C358D040AF966CAD7DAD8EAD9FAD69
:10513000AF970E94E1329B01AC01C701B6010E940A
:1051400045386B017C0120E030E0A9010E94933AD0
:1051500018160CF061C12CEC3CEB4CE85BE2C7018B
:10516000B6010E94B03787FDA0CEA7019601EB964D
:105170006CAD7DAD8EAD9FADEB970E9417396093FE
:10518000C5067093C6068093C7069093C806A30110
:105190009201C501B4010E94E132EB966CAF7DAF84
:1051A0008EAF9FAFEB97AF962CAD3DAD4EAD5FADE3
:1051B000AF97E7966CAD7DAD8EAD9FADE7970E9442
:1051C000E1329B01AC01EB966CAD7DAD8EAD9FAD38
:1051D000EB970E9444389058A70196010E94173916
:1051E0006093C9067093CA068093CB069093CC0651
:1051F000A3019201E3966CAD7DAD8EAD9FADE397BB
:105200000E94E132EB966CAF7DAF8EAF9FAFEB9714
:10521000AB962CAD3DAD4EAD5FADAB97AF966CADE3
:105220007DAD8EAD9FADAF970E94E1329B01AC0189
:10523000EB966CAD7DAD8EAD9FADEB970E94443883
:10524000A70196010E9417396093CD067093CE0690
:105250008093CF069093D006C158DF4F6881798143
:105260008A819B81CF57D0409058A70196010E9418
:1052700017396093D1067093D2068093D30690932A
:10528000D406A3962CAD3DAD4EAD5FADA397C50141
:10529000B4010E94E1324B015C01AF962CAD3DADF3
:1052A0004EAD5FADAF97EF966CAD7DAD8EAD9FAD62
:1052B000EF970E94E1329B01AC01C501B4010E944D
:1052C0004438A70196010E9417396093D506709360
:1052D000D6068093D7069093D806A3962CAD3DAD05
:1052E0004EAD5FADA397E3966CAD7DAD8EAD9FAD3A
:1052F000E3970E94E1324B015C01A7962CAD3DADD6
:105300004EAD5FADA797AF966CAD7DAD8EAD9FAD49
:10531000AF970E94E1329B01AC01C501B4010E942C
:1053200044389058A70196010E9417396093D90616
:105330007093DA068093DB069093DC06A701960152
:10534000CD57DF4F688179818A819B81C358D040D6
:105350000E9417396093DD067093DE068093DF06A6
:105360009093E006A3962CAD3DAD4EAD5FADA397F7
:10537000E7966CAD7DAD8EAD9FADE7970E94E132B3
:105380004B015C01A3019201EF966CAD7DAD8EAD3A
:105390009FADEF970E94E1329B01AC01C501B401C2
:1053A0000E9444389058A70196010E9417396093D3
:1053B000E1067093E2068093E3069093E406A396D9
:1053C0002CAD3DAD4EAD5FADA397AB966CAD7DAD55
:1053D0008EAD9FADAB970E94E1324B015C01A30102
:1053E0009201A7966CAD7DAD8EAD9FADA7970E9443
:1053F000E1329B01AC01C501B4010E944438A70110
:1054000096010E9417396093E5067093E606809333
:10541000E7069093E8069ECD2CEC3CEB4CE85BEA6B
:10542000C701B6010E94933A18160CF43ECD9DCEEA
:105430006F5F4C5F5F4F245F3F4FF3CA1B3269F4CD
:105440008091EA0690E0019666E070E00E94783C68
:105450008093EA060E945E110BCA1F3209F008CA47
:105460008091E9068230E1F483E08093E9061092AE
:10547000EB061092EC061092ED0684E2EDE7F6E002
:10548000DF01282F1D922A95E9F7E1EAF6E0DF0116
:105490001D928A95E9F71092EE061092FA06DACF7D
:1054A00082E0E3CF6F96FFAD6F97FC3311F00C9461
:1054B0009D1E8091EC064091E906882369F0815099
:1054C0008093EC062EEE36E06091EC068091EB06C0
:1054D0000E944B0F0C949D1E8091EB06882391F344
:1054E00081508093EB068FEF840FEACF112309F4EC
:1054F000A6C0133419F510924D071092560710925A
:10550000570710925807109259071092520710929D
:105510005307109254071092550710924E0710929D
:105520004F07109250071092510710925A0710928D
:105530005B07109267070E94B50E81C080ED810F56
:105540008A3010F01E32F9F4E0916707EB3068F40E
:1055500081E08E0F80936707F0E0E35BF84F1687DA
:10556000E82FF0E0E35BF84F168640915A078091F0
:105570004D07813011F00C94D13282E06BE577E079
:105580000E94C80F5CC01D3269F4809167078111C9
:1055900056C081E0809367078DE280935B0710928D
:1055A0005C07E3CF1D3309F0CAC28BE597E00E9488
:1055B000BD3340915A0741118FC060934E077093DD
:1055C0004F07809350079093510710925B071092FA
:1055D00067074F5F40935A0780914D07882309F46E
:1055E000DDC7433030F28EE598E00E94AC0E82E5D4
:1055F00098E00E94AC0E80914D07C0904E07D0906D
:105600004F07E0905007F090510720E030E0A901EB
:10561000811129C1C701B6010E94933A18160CF0F6
:105620006FC02CEC3CEB4CE85BE2C701B6010E947A
:10563000B03787FF70C08AE594E00E94F30E6F9642
:10564000BFAD6F97BB2311F40C949D1EB23411F0C3
:10565000BC33B9F4E0916707EE2339F0E150E093F1
:105660006707F0E0E35BF84F168640915A07809198
:105670004D07813009F06EC282E06BE577E00E9451
:10568000C80F6F96EFAD6F97EE3311F00C949D1E1F
:1056900010924D0710925607109257071092580714
:1056A0001092590710925207109253071092540704
:1056B0001092550710924E0710924F071092500704
:1056C0001092510710925A0710925B0710926707C9
:1056D0000E94B50E0C949D1E413049F46093520710
:1056E0007093530780935407909355076ECF609340
:1056F000560770935707809358079093590765CFC3
:105700002CEC3CEB4CE85BEAC701B6010E94933AF3
:1057100018160CF490CF6091520770915307809146
:105720005407909155079058A70196010E94173988
:1057300024E1A1010E94DE1440E060E08EE598E0E3
:105740000E946C0E65E378E08EE598E00E94460DBD
:1057500041E060E08EE598E00E946C0E62E378E044
:105760008EE598E00E94460DB1018EE598E00E941A
:10577000E20CB101CE0189960E947A181E8A1D8A18
:10578000188E1F8A1A8E198E8E010B5E1F4F66E2CD
:1057900078E0C8010E945218BE01675D7F4FC801C2
:1057A0000E948F12C8010E940419CE0189960E949E
:1057B000041982E598E00E94AC0E40E060E082E5CA
:1057C00098E00E946C0E6EEA77E082E598E00E9415
:1057D000460D60914E0770914F0780915007909150
:1057E000510728E04CE056E00E94DE146091520719
:1057F00070915307809154079091550728E04CE031
:1058000056E00E94DE148CE096E09F938F939F9366
:105810008F938AE694E09F938F931F9281E18F93F9
:105820001F930F930E94EF3E41E060E082E598E015
:105830000E946C0E7E0125E2E20EF11C0FB6F89478
:10584000DEBF0FBECDBFD8016D918D01662339F04B
:1058500082E598E00E94640D0E151F05A1F781E016
:1058600080934B07ECCEC701B6010E94933A1816FD
:105870006CF42CEC3CEB4CE85BE2C701B6010E94F7
:10588000B03787FF0DC082E794E0D7CE2CEC3CEB1D
:105890004CE85BEAC701B6010E94933A18169CF3E4
:1058A000609152077091530780915407909155076A
:1058B0009B01AC010E94E1324B015C0120E030E031
:1058C00040E850E4C701B6010E94E132209156073A
:1058D0003091570740915807509159070E94E13283
:1058E0009B01AC01C501B4010E9444386B017C01ED
:1058F00040E060E08EE598E00E946C0E65E178E0A3
:105900008EE598E00E94460D24E1AE01475D5F4FB1
:10591000C701B6010E94DE1420E030E0A901C701F2
:10592000B6010E94B03787FF26C041E060E08EE5F7
:1059300098E00E946C0E63E078E08EE598E00E94AB
:10594000460D40E060E082E598E00E946C0E63EF57
:1059500077E082E598E00E94460D41E060E082E554
:1059600098E00E946C0EBE01675D7F4F82E598E073
:105970000E94E20C74CF8091520790915307A0913E
:105980005407B0915507A3968CAF9DAFAEAFBFAF94
:10599000A39760914E0770914F07809150079091A7
:1059A00051079B01AC010E9445384B015C01A39655
:1059B0004CAC5DAC6EAC7FACA39777FA709477F883
:1059C000709420E030E0A901C701B6010E94B03711
:1059D00081112FC0A5019401C301B2010E941739A2
:1059E00024E1A1010E94DE1441E060E08EE598E030
:1059F0000E946C0E6BEE77E08EE598E00E94460DFB
:105A0000B1018EE598E00E94E20C40E060E082E5A2
:105A100098E00E946C0E69ED77E082E598E00E94C4
:105A2000460D41E060E082E598E00E946C0EB10115
:105A30009DCFC701B6010E94EA3B6B017C01AC011E
:105A40009B01C301B2010E944438A50194010E9448
:105A500017392B013C01A3962CAD3DAD4EAD5FAD8A
:105A6000A397C701B6010E944438A50194010E9482
:105A7000173924E1AE014B5E5F4F0E94DE1424E132
:105A8000A101C301B2010E94DE1440E060E08EE596
:105A900098E00E946C0E65ED77E08EE598E00E943C
:105AA000460DDE0155967D018E010E5D1F4FF701FB
:105AB00061917F01662339F08EE598E00E94640DC4
:105AC000E016F106A1F741E060E08EE598E00E9463
:105AD0006C0E61ED77E08EE598E00E94460D710155
