:100000000C94070F0C94380F0C94380F0C94380F85
:100010000C94380F0C94380F0C94380F0C94380F44
:100020000C94380F0C94380F0C94380F0C94380F34
:100030000C94380F0C94380F0C94380F0C94380F24
:100040000C94380F0C94380F0C94380F0C94380F14
:100050000C94380F0C94380F0C94380F0C94632BBD
:100060000C94380F0C94380F0C94380F0C94380FF4
:100070000C94380F0C94380F0C94380F0C94380FE4
:100080000C94380F0C94380F0C94380F0C94380FD4
:100090000C94380F0C94380F0C94380F0C94AD2B33
:1000A0000C94380F0C94380F0C94380F0C94380FB4
:1000B0000C94380F0C94380F0C94380F0C94380FA4
:1000C0000C94380F0C94380F0C94380F0C94380F94
:1000D0000C94380F0C94380F0C94380F0C94380F84
:1000E0000C94380F036EDB363D9A9999993DABAA73
:1000F000AA2A3E000000803F084AD73B3BCE016E53
:1001000084BCBFFDC12F3D6C74319ABD56833DDA6E
:100110003D00C77F11BED9E4BB4C3E916BAAAABE7D
:10012000000000803F07634236B79BD8A71A3968A2
:100130005618AEBAAB558C1D3CB7CC5763BD6DEDB0
:10014000FD753EF6177231BF000000803F072C7A24
:10015000A5BA6CC590DA3B9365FC8BBC53F810FDD7
:100160003C5692834DBD879D3AB63DCBC9BF5BBE21
:1001700073DA0FC93F05A84CCDB2D44EB93836A9B1
:10018000020C50B9918688083CA6AAAA2ABE000093
:1001900000803F08000000BE922449123EABAAAA8C
:1001A0002ABECDCCCC4C3E00000080BEABAAAAAA91
:1001B0003E00000000BF000000803F000000000083
:1001C000084178D3BB4387D1133D190E3CC3BD42D0
:1001D00082AD2B3E68EC8276BED98FE1A93E4C8081
:1001E000EFFFBE01C4FF7F3F0000000000028988CE
:1001F000083CABAAAA2A3E000000803F028988087A
:100200003EABAAAAAABE000000803F000C94971043
:100210000C94D12C0C9463110C9490130C94C41373
:100220000C94660F0C949D0F0C94810F0C94730F1B
:100230000C94930F0C9497130C946D0F0C945F1106
:100240000C9498100C948F0F0C945E0F0C94580F14
:100250000C9467110C947D0F0C9406130C94961556
:100260000C9499100C94620F0C94990F0C947D13BC
:100270000C94770F0C948B0F0C946E130C946D13DD
:100280000C946A0F0C94980F0C94850F0C94DA144C
:100290004E414E494E495459494E46CDCCCC3D0A6B
:1002A000D7233C17B7D13877CC2B329595E6241F4E
:1002B000B14F0A000020410000C84200401C462007
:1002C000BCBE4CCA1B0E5AAEC59D7400407A10F3DA
:1002D0005A00A0724E18090010A5D4E80000E87674
:1002E00048170000E40B54020000CA9A3B000000CB
:1002F000E1F505000080969800000040420F0000E4
:1003000000A08601000000102700000000E80300A4
:100310000000006400000000000A0000000000016E
:1003200000000000002C76D888DC674F0823DFC16E
:10033000DFAE59E1B1B796E5E3E453C63AE6519929
:100340007696E8E6C28426EB898C9B62ED407C6F52
:10035000FCEFBC9C9F40F2BAA56FA5F490055A2A09
:10036000F75C936B6CF9676DC11BFCE0E40D47FE15
:10037000F520E6B500D0ED902E030094357705000A
:1003800080841E080000204E0A000000C80C333391
:1003900033330F986E12831141EF8D2114893BE6A0
:1003A0005516CFFEE6DB18D1844B381BF77C1D9029
:1003B0001DA4BBE424203284725E228100C9F12492
:1003C000ECA1E53D276C696D20782D3E2D696E66A8
:1003D000203D20302000322A73696E2861292A636B
:1003E0006F7328612920007A3D7C7A7C2A655E281B
:1003F000692A7468742920006E2A2875302B756E5E
:10040000292F32202020202000496E6465703A2078
:100410005028417C42293D2020004F7274686F2093
:10042000736920752E763D3020200065783A2031A2
:100430002F78202D3E20793D30202000636F6E7490
:10044000696E7573202020202020202000783D2810
:100450002D622B2D7371727444292F32610028494B
:100460003A206964656E746974652920202000490A
:100470006E743D462862292D4628612920202000DF
:1004800028757629273D7527762B7576272020201D
:10049000003D312028666F726D2E696E6465742E82
:1004A000290044657269763A6E2A785E286E2D318D
:1004B00029200044657269763A312F2832737172AF
:1004C0007478290044657269763A312F28782A6C4D
:1004D0006E31302900446572697665653A20312FA6
:1004E00078202020200044657269763A312F636FAE
:1004F000735E322020200044657269763A2D73695C
:100500006E28782920202000446572697665653A56
:1005100020636F73287829200028656C6C652D6D29
:10052000656D652129202020200073696E283261C5
:10053000293D2020202020202020002020617461DF
:100540006E28622F6129202020202000536F6D6DBE
:10055000652061726974682E3A20202000202020D6
:1005600020202020502842292020202020007C7C90
:10057000757C7C2A7C7C767C7C2A636F7320006689
:100580002878292D3E4C20782D3E696E662020006B
:10059000506F6C796E6F6D65733A746A7273202058
:1005A00000517561647261743A20443D62322D34A9
:1005B0006300412A415E2D31203D2049202020202A
:1005C0002020005072696D6974697620463A204691
:1005D000273D660028785E6E29273D6E2A785E28C2
:1005E0006E2D31290065783A206C696D20782D3E9A
:1005F0003020782F7800325E31303D313032342077
:10060000202020202020002020202020202020200A
:10061000202A7371727462006C6F673D6C6E28786B
:10062000292F6C6E28313029006C6E28615E6E298E
:100630003D6E2A6C6E2861292000506572696F64D6
:10064000653A205049202020202000636F732850F5
:1006500049293D2D312020202020200073696E285B
:100660003930646567293D312020202000446572BF
:10067000697665653A20655E7820202020007369E0
:100680006E286229202020202020202020200041C8
:1006900072673A2074686574613D20202020200034
:1006A00075286E292A71202020202020202020203B
:1006B000005028417C42293D5028416E42292F207C
:1006C000200050726F64207363616C3A752E763D22
:1006D000202000486F72697A3A20793D4C20736976
:1006E000202020006E692064652074726F752020C0
:1006F00020202020002D3E20783D2D622F612020DB
:100700002020202020006465743D303A206E6F6EFA
:1007100020696E762E20006E3D313030207472617B
:100720006E63686573202000206628782D68295D37
:100730002F2832682920202000457869737420739F
:100740006920473D3D4420202000615E282D6E2910
:100750003D312F28615E6E2920200073717274284C
:10076000612A62293D737172746120006C6F672881
:10077000313030293D32202020202020006C6E288E
:100780006162293D6C6E612B6C6E62202000746189
:100790006E2830293D30202020202020202000639A
:1007A0006F73283930646567293D30202020200090
:1007B00073696E283330646567293D302E352020FB
:1007C00000655E28612B62293D655E612A655E6277
:1007D0002000636F732862292B636F732861292AB5
:1007E0002020007C7A7C3D737172742861322B6208
:1007F0003229200047656F2E3A2075286E2B31294B
:100800003D2020200020502842292D5028416E42B2
:100810002920202020007C7C767C7C3D73717274C2
:100820002878322B2E2E2900736920662D3E696EA2
:100830006620656E20612020005061732064652071
:10084000736175742020202020004C696E656169F9
:1008500072653A61782B623D3020006465742841EE
:10086000293A207363616C61697265004D65746833
:100870006F64652053696D70736F6E200066277E0C
:100880005B6628782B68292D2020202020004472C8
:100890006F6974653A20782D3E612B20202000611D
:1008A0005E30203D203120202020202020202000EC
:1008B000737172742878293D785E28312F3229208F
:1008C000006C6F67283130293D3120202020202006
:1008D00020006C6E2865293D312028653D322E3779
:1008E00031290074616E283435646567293D3120F3
:1008F00020202000636F732830293D3120202020E4
:10090000202020200073696E2830293D30202020CF
:10091000202020202000655E303D312020655E31A2
:100920003D322E3731200073696E28612B62293DDC
:1009300073696E2861292A00695E32203D202D31BD
:1009400020202020202020200075286E292B7220B6
:1009500020202020202020202000502841206F75BA
:100960002042293D502841292B20002B2073656E01
:1009700073202B206E6F726D652020005665727497
:100980006963616C653A20783D61202000736920BD
:100990006C696D20782D3E6120663D6628612900D6
:1009A00071756520662878293D3020202020202080
:1009B000006465206E6F6D627265732020202020B8
:1009C0002000656E747265206120657420622020AD
:1009D0002020006465206C612074616E67656E7410
:1009E000652020004761756368653A20782D3E6177
:1009F0002D202020002020286E20666F697329207A
:100A0000202020202000737172742834293D322068
:100A1000202020202020006C6F672831293D3020C5
:100A200020202020202020006C6E2831293D3020FD
:100A3000202020202020202000496E64C3A9666960
:100A40006E693A20636F733D302000656E74726585
:100A5000202D31206574202B31202000656E7472AA
:100A600065202D31206574202B31202000655E78B3
:100A7000203A20746F756A6F7572732B200073694A
:100A80006E322B636F73323D312020202020007A9C
:100A9000203D2061202B20622A6920202020200078
:100AA00041726974682E3A2075286E2B31293D20D9
:100AB00000502841293A2030203C3D20503C3D3117
:100AC00020005175616E746974653A206469722EF4
:100AD00020200044726F697465206C696D697465CB
:100AE000202020006620636F6E74696E7565206536
:100AF0006E2061200054726F7576657220782074C4
:100B0000656C202020005461626C656175206E2048
:100B100078206D202020004169726520736F757305
:100B200020662878292020006627287830293A2056
:100B300070656E7465202020006C696D20782D3EF4
:100B40006120662878293D4C2000615E6E3A206164
:100B50002A612A2E2E2E2A61202000737172742899
:100B600078293A20783E3D3020202000426173658C
:100B7000203130202020202020202020006C6E28D2
:100B800078293A2078203E20302020200074616EA1
:100B90003D73696E2878292F636F73202000636F7F
:100BA000732878293A206F7363696C6C6520007331
:100BB000696E2878293A206F7363696C6C65200030
:100BC0000073717274286162293D73717274612AB5
:100BD000620044657269763A312F283273717274FB
:100BE00078290073717274287829203D20785E304E
:100BF0002E3520007371727428342920203D203254
:100C00002020202000737172742878293A207820DF
:100C10003E3D203020000044657269766565203ACB
:100C200020312F78202020006C6E28615E6E293DD7
:100C30006E2A6C6E28612920006C6E28612A622958
:100C40003D6C6E612B6C6E6220006C6E28652920F5
:100C5000203D2031202020202020006C6E283129CA
:100C600020203D2030202020202020006C6E28787D
:100C700029203A2078203E2030202000003D6C6E54
:100C80002878292F6C6E28313029202020006C6FA5
:100C90006731302831303029203D20322020006C4F
:100CA0006F6731302831302920203D20312020004D
:100CB0006C6F6731302831292020203D20302020E2
:100CC000006C6F673130203A2062617365203130EB
:100CD00020000044657269763A20312F636F735E9D
:100CE00032202000506572696F64653A20504920B7
:100CF000202020200074616E283435646567292027
:100D00003D2031202000556E6465662073692063A4
:100D10006F733D3020200074616E3D73696E2878DA
:100D2000292F636F732020000044657269763A2092
:100D30002D73696E287829202000506572696F64D0
:100D4000653A20322A504920202000636F732839E9
:100D50003064656729203D2030202000636F7328B0
:100D60003029203D20312020202020200056616C99
:100D7000657572733A205B2D312C2B315D00636FEA
:100D800073287829206F7363696C6C61742E00007E
:100D90005B3020315D2020202020202020202020BA
:100DA000005B3120305D20202020202020202020CA
:100DB00020004D2A4D5E2D313D4964656E74697485
:100DC000652000706173206427696E7665727365B3
:100DD000202020005369206465743D303A20202093
:100DE0002020202000646574284D293D612A642D4F
:100DF000622A632020005B6320645D20203D204D3B
:100E0000203278322020005B6120625D202020208B
:100E100020202020202020005461626C6561752014
:100E20006465206E62726573004D415452494345BA
:100E30005320464143494C45200000544F554A4FEA
:100E400055525320565241492120200073696E3279
:100E50002B636F73323D3120202020200032373049
:100E60006465673A2028302C2D3129202000313844
:100E7000306465673A20282D312C30292020003934
:100E8000306465673A2028302C312920202020004A
:100E9000306465673A2028312C302920202020201A
:100EA000004D3D28636F7320742C2073696E20748D
:100EB0002900506F696E74204D3A20616E676C6531
:100EC000207400436572636C6520646520723D3157
:100ED00020202000545249474F20464143494C4569
:100EE0002020202000005072696D697469763A20D4
:100EF000785E332F3320003D3E203920286578610D
:100F000063742920202020004F6E20736F6D6D6563
:100F1000206C276169726520003130302072656372
:100F200074616E676C65732020004F6E206465638A
:100F30006F75706520656E2020200065783A206905
:100F40006E7428785E322C302C332900656E7472F2
:100F5000652061206574206220202020004C2761DC
:100F600069726520736F7573206628782900494E71
:100F700054454752414C45203F202020202000511D
:100F800055274553542D434520515527554E45006F
:100F9000006F75206D696E206C6F63616C2020207E
:100FA000200053692066272878293D303A206D615A
:100FB00078200066206573742063726F69737361B3
:100FC0006E74650053692066272878293E303A20E0
:100FD0002020202000656E20783D333A20662728A7
:100FE00033293D362000662878293D785E323A2044
:100FF00070656E746520006465206C6120636F7598
:1010000072626520202020004327657374206C6184
:101010002070656E74652020004445524956454550
:10102000203F2020202020202000515527455354C8
:101030002D434520515527554E4500005B3E5D2010
:10104000706F757220737569746520200066283290
:10105000293D343A20636F6E74696E7521003D3E00
:10106000206C696D20782D3E32203D3420200078A0
:101070003D312E3939393A20663D332E3939360023
:10108000783D312E39393A20663D332E39362020CD
:1010900000783D312E393A20663D332E36312020FE
:1010A000200064616E7320662878293D782A7820B4
:1010B000202000496D6167696E6F6E7320782D3E48
:1010C000322020004C494D495445203F202020200B
:1010D00020202020005155274553542D43452051B1
:1010E0005527554E45004D415452494345530054F0
:1010F0005249474F4E4F4D455452494500494E5471
:10110000454752414C455300444552495645455385
:10111000004C494D49544553004558504F4E454E9B
:101120005449454C4C4520202000545249474F20FB
:1011300028636572636C65292020004E4220434F6E
:101140004D504C45584553202020200053554954BC
:101150004553202020202020202020200050524FC6
:10116000424142494C495445202020202000564508
:10117000435445555220202020202020202000418B
:1011800053594D50544F54452020202020202000FA
:10119000434F4E54494E554954452020202020208D
:1011A000004551554154494F4E20202020202020F9
:1011B00020004D415452494345202020202020202A
:1011C000202000494E54454752414C4520202020C4
:1011D000202020004445524956454520202020200B
:1011E00020202020004C494D49544520202020201B
:1011F0002020202020005055495353414E43452084
:1012000020202020202000524143494E45204341C8
:1012100052524545202020004C4F474152495448E6
:101220004D45204C4F473130004C4F4741524954B7
:10123000484D45204C4E2020200054414E47454EFD
:101240005445202020202020202000434F53494E89
:1012500055532020202020202020200053494E5587
:101260005320202020202020202020200000203279
:1012700066322B2E2E2E2B666E2920202020005326
:101280003D682F332A2866302B3466312B2020000E
:10129000683D28622D61292F6E20202020202020EB
:1012A000006E3D31303020696E74657276616C6C11
:1012B0006573004D6574686F64652053696D707364
:1012C0006F6E2000496E743D6169726520736F75A1
:1012D000732066200000446572697665653A206374
:1012E0006F732878292000506572696F64653A2011
:1012F000322A50492020200073696E2839306465F5
:101300006729203D203120200073696E2830292074
:101310003D20302020202020200056616C65757211
:10132000733A205B2D312C2B315D0073696E287868
:1013300029206F7363696C6C61742E0000287576C8
:1013400029273D7527762B757627202020002878C1
:101350005E6E2927203D206E2A785E6E2D31006852
:10136000203D20302E303030303120202020200011
:1013700020206628782D68295D202F2032682020C3
:101380000066277E5B6628782B68292D2020202088
:1013900020004D6574686F6465206E756D657269B7
:1013A000712E0066272878293D7461757820766152
:1013B000722E20000020202020203D203020286395
:1013C0006F6E742E290065783A206C696D20782D37
:1013D0003E3020785E32004C213D52203D3E207050
:1013E0006173206C696D20004C3D52203D3E206CA5
:1013F000696D20657869737400417070726F2E207A
:1014000064726F69746520202000417070726F2EC5
:1014100020676175636865202020006C696D207805
:101420002D3E6120662878293D4C20004859200037
:10143000534820005D007C005B0029205B4D5D72FD
:101440006574005B3D5D4F4B203C3E202800080545
:10145000F704E604D504C404B304A2049104800490
:101460006F045E044D043C042B041A040904F803C1
:10147000E703D603C5035C064B063A0629061806A1
:101480000706F605E505D405C305B205A1059005D7
:101490007F056E055D054C053B052A051905B0075E
:1014A0009F078E077D076C075B074A0739072807E8
:1014B00017070607F506E406D306C206B106A0061E
:1014C0008F067E066D060509F408E308D208C108F8
:1014D000B0089F088E087D086C085B084A08390828
:1014E000280816080508F407E307D207C1075C0AB5
:1014F0004B0A390A280A170A060AF509E409D3092A
:10150000C209B109A0098D097C096B095A09490969
:10151000380927091609AF0B9E0B8D0B7D0B6C0B41
:101520005B0B4A0B390B280B170B060BF50AE40A69
:10153000D30AC20AB10AA00A8F0A7E0A6D0A4D6F49
:1015400064653A20434F4D50207C20444547002D90
:101550002D2D204249454E56454E5545202D2D2DC9
:101560000043616C63756C617472696365207632E7
:101570002E300043414C435520204941005B3D5DE6
:1015800063616C63205B4D5D6D656E752000434F3C
:101590004D503A20736169736972206578707200EA
:1015A0004D6178203438206361722E004578707266
:1015B0002074726F70206C6F6E677565003E3E2000
:1015C000537569746520726573756C743A00526561
:1015D00073756C746174204F4B00507265740045D4
:1015E0006666616365004D6F64652049413A434F0B
:1015F0004E4345505420005B434F4E434550543AB0
:10160000505549532036205D005B434F4E434550B3
:10161000543A535152542035205D005B434F4E43A2
:101620004550543A4C4E2020332F345D005B434FDD
:101630004E434550543A53494E20302F315D004EB1
:101640006F6D627265205052454D49455221200010
:1016500056616C65757220617070726F6368656544
:10166000007E4E622064276F723D312E3631382065
:1016700020007E737172742832293D312E3431344A
:101680003220007E653D322E37313832382E2E2EF4
:10169000202020007E50493D332E31343135392E03
:1016A0002E2E202000456E74696572206578616376
:1016B0007421202020005472657320706574697451
:1016C00020283C312920004772616E64206E6F6DC6
:1016D0006272652120202000526573756C746174FC
:1016E000206E65676174696600526573756C74611C
:1016F00074203D20312020202000526573756C74C9
:101700006174203D2030202020200049413A2000F3
:10171000414E5320696E736572650044657465724D
:101720006D696E616E742063616C6300646574281A
:101730004129203D00536169736972204D617472C3
:1017400069636520420061782B623D30202D3E2088
:10175000783D2D622F61003220736F6C7574696F54
:101760006E73204F4B00443D0078323D0078313D90
:1017700000443D3020646F75626C6520726163695E
:101780006E650078313D78323D20004469736372A4
:10179000696D696E616E7420443D00443C303A20AE
:1017A00070617320736F6C7574696F6E006178324D
:1017B0002B62782B633D30202020202020004C69B4
:1017C0006E6561697265206F6B00783D0061782BF2
:1017D000623D3020536F6C7574696F6E3A00050C72
:1017E000F40BE30BD20BC10BC00B6C0C5B0C4A0C63
:1017F000390C280C170C160CC10CB00C9F0C8E0C5D
:101800007D0C7C0C170D060DF50CE40CD30CD20CE2
:101810007E0D6D0D5C0D4B0D3A0D290D280D000050
:101820002100240027002A002D0030003300010190
:101830000000040107010A01000022002500280021
:101840002B002E00310034000201000005010801C8
:101850000B01000020002300260029002C002F008F
:10186000320000010000030106010901050505051C
:10187000070508080808020202020A0A0808040408
:101880000404010101010101010103030303030336
:101890000303040707070C0C0C0C0C0C0C0C0202C5
:1018A000020206060606060606060B0B0B0B0B0BC2
:1018B0000B0B01021020200808102040102040804F
:1018C0000201020108040201010204081020408004
:1018D0008040201008040201800402018040201092
:1018E00008040201080402010102040810204080DB
:1018F000010204081020408000000A0B02090C0DB0
:101900000E080703040100000000000000000000B2
:1019100000000000000000000000000000000000C7
:101920000000000012111000000000000000000084
:1019300000000000000000000000000000005B420A
:101940005D206368616E6765722067756964650014
:10195000427261766F21202020202020202020202C
:10196000005B435D207265636F6D6D656E636572CC
:10197000200046494E2044552047554944452120E2
:101980002020005B3E5D206F75205B3D5D3A7375E6
:10199000697465002020202020202020200045742C
:1019A0006170652000D510C410B310A21091108092
:1019B000106F105E104D103C103B102A10191008CB
:1019C00010F70FE60FD50FC40FB30FA20F910F90B2
:1019D0000F7F0F6E0F5D0F4C0F3B0F2A0F190F0873
:1019E0000FF70EE60EE50ED40EC30EB20EA10E904A
:1019F0000E7F0E6E0E5D0E4C0E3B0E3A0E290E182B
:101A00000E070EF60DE50DD40DC30DB20DA10D9010
:101A10000D8F0D5B3D5D20636F6D6D656E6365724F
:101A2000202020002020202020202020002F0047E0
:101A3000756964652000203E0011110811FD10EF4A
:101A400010E6103C200043484F4953495220475567
:101A50004944453A2020005B3C5D5B3E5D3A636F44
:101A60006E63657074202000203E3E006C69676ED6
:101A7000653A002920002F0028005C124B123A1210
:101A8000291218120712F611E511D411C311B2115F
:101A9000A11190117F116E115D114C113B112A1192
:101AA00019115B4D5D203D207265746F7572206D5C
:101AB000656E75004D4F4445203A20004D4F44451A
:101AC000204941203A20004368617267656D656E68
:101AD000742E2E2E202020002B20666F6E637469DA
:101AE0006F6E73207363692E0043616C63756C7352
:101AF00020636C6173736971756573004D4F444564
:101B0000204941203A20202020202020004D4F4411
:101B100045204E4F524D414C203A20202000496E26
:101B200074656772616C65732C4578706C69632E9F
:101B3000004C696D697465732C2064657269766503
:101B40006573003D3D3D2043414C435520204941B4
:101B5000203D3D3D00C412B312A11290127F126EBF
:101B6000126D122B131A130913F812E712D612D59D
:101B700012A3139213811370135F134E133D133C82
:101B8000131B140A14F913E813D713C613B513B4AF
:101B90001353696D70736F6E206E3D3130302020AD
:101BA0002000646966662E2063656E7472616C65E0
:101BB00020200066287829203D2000506173206491
:101BC00065206C696D69746521006C696D203D202C
:101BD000002020443A2000473A20005F20202020A7
:101BE00020202020202020003E205F2020202020B8
:101BF000202020202020202000426F726E6520626D
:101C0000203D203F202020202000426F726E652062
:101C100061203D203F2020202020006627287829B1
:101C200020656E2078203D203F2020006C696D20CB
:101C300078202D3E203F20202020202000203C0026
:101C4000203E0029002F00202800202020202020D6
:101C50002020202020202020202000662878293DD8
:101C60003F20202020202020202020005B2B5D6FA3
:101C700070205B2F5D7461696C6C65006C0570058C
:101C8000740578057C0580054F703A200078004D7A
:101C90004F4445204D4154524943452000526573FD
:101CA000756C7461743A0030002D496E66002B49E2
:101CB0006E66004E614E002020414E533D0020488C
:101CC000595000205348494654005D005B002D00E8
:101CD0004D6F64653A20005F2020202000633D3F67
:101CE0002020202020202020202020202000623DB5
:101CF0003F202020202020202020202020200061A4
:101D00003D3F2020202020202020202020202000B7
:101D100045712E20717561647261746971756520F9
:101D200000623D3F20202020202020202020202055
:101D30002000613D3F202020202020202020202046
:101D400020200045712E206C696E656169726520E6
:101D5000202020005B3D5D3A76616C6964657220ED
:101D6000202020003C203E3A6E61766967756572DE
:101D7000202020005F005D3D002C004D5B007800BE
:101D80004D617472696365200065666661636572A2
:101D900020657272657572202000417070757965DA
:101DA00072205B435D20706F7572002121204552C7
:101DB00052455552202121202020200045712E20FF
:101DC0006178322B62782B633D300045712E2061A3
:101DD000782B623D3020202020005B2B5D3A636829
:101DE000616E6765722074797065005B3D5D3A6372
:101DF0006F6E6669726D6572202000536169736948
:101E00007220613D3F20202020200000D12C112491
:101E10001FBECFEFD1E2DEBFCDBF00E00CBF29E097
:101E2000A2EAB5E001C01D92A433B207E1F715E0C4
:101E3000A0E0B2E0E2ECF7EA00E00BBF02C00790DE
:101E40000D92A23AB107D9F71FE0C7E0DFE000E04A
:101E500006C021970109802FFE010E94B04EC630B6
:101E6000D10780E00807A9F70E94A32D0C94DF5347
:101E70000C9400008150823108F05AC0E82FF0E045
:101E80008827EA5BF04F8F4F0C94B04E660F6A0FB5
:101E9000580F5E0F620F980F6D0F730F770F7D0F46
:101EA000810F850F8B0F8F0F980F930F990F9D0F39
:101EB000809180008F7780938000089580918000CA
:101EC0008F7DF9CF80918000877FF5CF84B58F77A4
:101ED00084BD089584B58F7DFBCF8091B0008F774E
:101EE0008093B00008958091B0008F7DF9CF8091EC
:101EF00090008F77809390000895809190008F7D5F
:101F0000F9CF80919000877FF5CF8091A0008F77E7
:101F10008093A00008958091A0008F7DF9CF8091DB
:101F2000A000877FF5CF809120018F7780932001DB
:101F30000895809120018F7DF9CF80912001877FC6
:101F4000F5CFCF93DF93282F30E0F901E850F74E1B
:101F50008491F901EE54F74ED491F901E459F74E0A
:101F6000C491CC23A1F081110E943A0FEC2FF0E034
:101F7000EE0FFF1FEE5AF74EA591B491EC91ED23B1
:101F800081E090E009F480E0DF91CF91089580E056
:101F900090E0FACF1F93CF93DF93282F30E0F90121
:101FA000E850F74E8491F901EE54F74ED491F901BF
:101FB000E459F74EC491CC23A9F0162F81110E9449
:101FC0003A0FEC2FF0E0EE0FFF1FE85CF74EA59103
:101FD000B4918FB7F894EC91111108C0D095DE231D
:101FE000DC938FBFDF91CF911F910895DE2BF8CF47
:101FF000CF93DF9390E0FC01EE54F74E2491845987
:10200000974EFC0184918823C9F090E0880F991FB6
:10201000FC01E25EF74EA591B491FC01E85CF74E3D
:10202000C591D49161110DC09FB7F8948C91209502
:1020300082238C938881282328839FBFDF91CF91AF
:102040000895623051F49FB7F8943C91822F8095A7
:1020500083238C93E8812E2BEFCF8FB7F894EC91EC
:102060002E2B2C938FBFEACF3FB7F8948091750643
:1020700090917606A0917706B091780626B5A89B38
:1020800005C02F3F19F00196A11DB11D3FBFBA2F0A
:10209000A92F982F8827BC01CD01620F711D811DCA
:1020A000911D42E0660F771F881F991F4A95D1F74F
:1020B00008958F929F92AF92BF92CF92DF92EF924C
:1020C000FF924B015C010E9434106B017C010E9465
:1020D00034106C197D098E099F09683E7340810593
:1020E0009105A8F321E0821A9108A108B10888EEB1
:1020F000C80E83E0D81EE11CF11C81149104A104D8
:10210000B10429F7FF90EF90DF90CF90BF90AF9090
:102110009F908F9008952FB7F894609171067091F9
:10212000720680917306909174062FBF08950895EA
:102130000895AF92BF92CF92DF92EF92FF920F93EA
:102140001F93CF93DF936C017B018B01040F151F4D
:10215000EB015E01AE18BF08C017D10759F06991B5
:10216000D601ED91FC910190F081E02DC601199509
:10217000892B79F7C501DF91CF911F910F91FF90C6
:10218000EF90DF90CF90BF90AF900895FB01448116
:102190005581608171810C949910CF93DF93DC019C
:1021A00026E0629FA00DB11D112490965C934E9382
:1021B0005F9721E091962C939197FC01E359FF4F93
:1021C0000190F081E02DEC01C459DF4F28812223DA
:1021D00041F0309719F0DC01662329F0DF91CF91AF
:1021E00008953097D9F35C968C91DF91CF91199433
:1021F000CF92DF92EF92FF920F931F93CF93DF93D3
:10220000EC01162F042FFC0186E0689FE00DF11D04
:10221000112411A2878D90A18130910509F180F0E0
:102220008230910509F443C0039709F445C0DF915A
:10223000CF911F910F91FF90EF90DF90CF90089575
:102240004423A9F341E050E0CE010E94CD100E944A
:102250008B10C85ADF4F688379838A839B83E7CFCB
:102260000E948B10FE01E85AFF4FC080D180E280AF
:10227000F380AB01BC014C195D096E097F097296B0
:1022800080819181B0E0A0E084179507A607B70789
:1022900070F442E050E0612FCE01DF91CF911F91A9
:1022A0000F91FF90EF90DF90CF900C94CD1043E012
:1022B00050E00111BCCFEFCF50E040E0ECCF862FD3
:1022C000642F0C94F80F862F642F0C94CA0F862F5E
:1022D0000C94A10F2F923F924F925F926F927F9238
:1022E0008F929F92AF92BF92CF92DF92EF92FF9226
:1022F0000F931F93CF93DF93CDB7DEB72C970FB615
:10230000F894DEBF0FBECDBF9C878B8784599F4F4B
:102310009A83898381E0A981BA818C930E948B1072
:10232000EB85FC85E45AFF4FFC83EB830081118130
:1023300022813381AB01BC01401B510B620B730B3B
:10234000EB85FC85E859FF4F80819181B0E0A0E0EA
:1023500084179507A607B70708F04FC110E0CB8494
:10236000DC84F6E6CF0ED11CEB84FC8422E6E20E80
:10237000F11CD6018C91181758F4D701ED91FC91FE
:10238000E10FF11D62E080810E94F80F1F5FF1CF25
:10239000312C4B845C84B7E64B0E511CEB84FC84DF
:1023A000E4E6EE0EF11C812C912C540183942B85D4
:1023B0003C852E593F4F3A872987D2018C91381698
:1023C00008F063C0032D10E0D701ED91FC91E00F00
:1023D000F11F61E080810E94F80FD701ED91FC911F
:1023E000E00FF11F60E080810E94CA0FD501C40197
:1023F000032C04C0880F991FAA1FBB1F0A94D2F791
:102400009E838D83FC01E095F095F887EF83212C66
:10241000D6018C91281620F5622C712CA985BA85DD
:10242000ED91FC91E60DF71D80810E94A10F660CD5
:10243000771CEB85FC85E60DF71D892B51F4808513
:1024400091852D813E81822B932B918780872394C8
:10245000DFCF80859185AF81B8858A239B23F5CF17
:10246000D701ED91FC91E00FF11F61E080810E94A6
:10247000CA0FF70180819181080F191F60E0D80110
:102480008C910E94F80F339498CF0B851C85C8015E
:10249000CC9678012FEF3FEFF701478D50A1452BE8
:1024A00021F4148E368F258F11A2F6E0EF0EF11C69
:1024B000E816F90689F7A12C8B849C8420E6820E0D
:1024C000911C96E0392ED6018C91A81608F058C0C0
:1024D000B12C6A2C712CB4E06B0E711C660C771C4D
:1024E000EB85FC856E0E7F1ED2018C91B81608F02C
:1024F00045C0F301408151810B2C02C05695479590
:102500000A94E2F7A89EC00111248B0D911DEB8562
:10251000FC8560E0258D368D8217930709F472C023
:102520006F5F36966A30B1F740FF26C0EB85FC85B9
:1025300070E060E0248D211119C0D401ED91FC916F
:10254000E80FF91F4081369EF001379EF00D1124EF
:102550002B853C85E20FF31F448F968F858F10A249
:10256000178E41E0C9010E94F81006C06F5F7F4FCF
:1025700036966A307105F1F6B394B6CFA394A3CF23
:10258000D12CD80191968C918111D82E0A5F1F4FC2
:10259000E016F106B1F70E948B10EB81FC8160839D
:1025A000718382839383DD2041F1AB85BC85919655
:1025B0008C919197882309F15F968D919C919097CA
:1025C0000197D9F45C968C912C960FB6F894DEBFE7
:1025D0000FBECDBFDF91CF911F910F91FF90EF9074
:1025E000DF90CF90BF90AF909F908F907F906F9033
:1025F0005F904F903F902F900895E981FA8110826B
:1026000080E0E2CF41708B859C85ADCF089520910D
:10261000E305260F3327331F21323105ECF42091D7
:102620002C06FC0190E080E0243069F082E00895FF
:10263000A091E3052191AC014D535A4FA40FB52F42
:10264000B11D2C930196861798F38091E305680FCE
:102650006093E30580E0089581E0089510922C06D0
:1026600081E080932B061092060661E084E10E94CF
:10267000CA0F61E085E10E94CA0FE9EBF0E08081BA
:102680008E7F808380818D7F808388E48093B800F3
:1026900085E48093BC000895CF93DF9391E09093FD
:1026A000C2058823B9F0C091B800D091BA008091DA
:1026B000BC008A7B8093BC0060E084E10E94CA0F6A
:1026C00060E085E10E94CA0F0E942E13D093BA00E9
:1026D000C093B800DF91CF9108950895E0915B0613
:1026E00080915A06E81730F4F0E0EE55FA4F8081F9
:1026F00090E008958FEF9FEF089590915B06809191
:102700005A062FEF3FEF981748F4E92FF0E0EE5507
:10271000FA4F208130E09F5F90935B06C9010895D6
:1027200080915A0690915B06891B990B0895CF9270
:10273000DF92EF92FF920F931F93CF93DF937C0171
:10274000CB018A0120913206222389F0EB016B0133
:10275000C40ED51ECC15DD0569F06991D701ED9148
:10276000FC910190F081E02DC7011995F3CF642F02
:102770000E940713C801DF91CF911F910F91FF9025
:10278000EF90DF90CF900895CF93DF931F92CDB756
:10279000DEB76983209132062223F9F02091580692
:1027A000203258F021E030E0FC013383228390E0B6
:1027B00080E00F90DF91CF91089580915906E82F26
:1027C000F0E0ED5CF94F998190838F5F809359061B
:1027D0008093580681E090E0ECCF61E0CE01019655
:1027E0000E940713F7CFCF92DF92EF92FF920F93E1
:1027F0001F93CF93DF93FC01C48121E02093320625
:10280000C093530610925906109258068385682B80
:102810008CE298E00E94C413D0915806D13208F09F
:1028200092C00E9434106B017C0180912C068111B2
:1028300065C082E080932C0681E080932B068FEFA9
:1028400080932A0610922906D0932806A3E3B6E0C7
:10285000E8E0F6E080E0D81385C01092070680918A
:102860000706CC0FC82BC09307068091060681305F
:1028700009F07CC0109206060E9434106B017C01A6
:10288000809107068093BB0080912E0690912F06C1
:10289000A0913006B0913106892B8A2B8B2B99F0B1
:1028A0000E94341000912E0610912F0620913006C0
:1028B000309131066C197D098E099F09061717079B
:1028C00028073907E0F18091BC0083FDD9CF85EC62
:1028D0008093BC000E9434106B017C0180912C0617
:1028E000823009F445C080912A068F3F61F18091C2
:1028F0002A06803241F180912A0625C080912E0659
:1029000090912F06A0913006B0913106892B8A2B29
:102910008B2B09F48ACF0E94341000912E0610915F
:102920002F0620913006309131066C197D098E09F1
:102930009F09061717072807390708F076CF8091F7
:102940002D060E944C1310925906109258061092B0
:102950003206DF91CF911F910F91FF90EF90DF90A2
:10296000CF9008959D9191938F5F75CF85EEB0CFF5
:1029700080912E0690912F06A0913006B0913106DD
:10298000892B8A2B8B2B09F4A9CF0E94341000913C
:102990002E0610912F0620913006309131066C19C9
:1029A0007D098E099F09061717072807390708F0C0
:1029B00095CFC5CF90E080E008952091CA0730916F
:1029C000CB078091C90741E0480FF901E80FF11DDD
:1029D0009081903219F08093C9070895842FF3CF26
:1029E0008091C9078F5F8093C9070895E091C90757
:1029F0008091CA079091CB07E80FF92FF11D8081D4
:102A00000895FB0101900020E9F73197AF01461BC3
:102A1000570B0C9499108F929F92AF92BF92EF92A6
:102A2000FF920F931F93CF93DF93CDB7DEB7A1979C
:102A30000FB6F894DEBF0FBECDBF7C01FA01CB010B
:102A400019A2223008F42AE08E010F5D1F4F822E5A
:102A5000912CB12CA12CBF01A50194010E946F4EB5
:102A6000F901CA016A300CF5605DD8016E938D01E1
:102A7000232B242B252B79F790E080E0109721F071
:102A8000BD01C7010E940115A1960FB6F894DEBFE3
:102A90000FBECDBFDF91CF911F910F91FF90EF90AF
:102AA000BF90AF909F908F900895695CDECF6115C5
:102AB000710511F00C94011590E080E00895462F07
:102AC00050E070E060E02AE00C940B150F931F9328
:102AD000CF938C01C62F0E94F3136C2F6460C80142
:102AE0000E94F3136C2F6B7FC8010E94F31383ECD9
:102AF00090E00197F1F7CF911F910F9108950F93F7
:102B00001F93CF93DF938C01D62FC42F607F642B4C
:102B10000E94661580E1D89FB00111246C2BC8017A
:102B2000DF91CF911F910F910C94661541E00E94A7
:102B30007F1581E090E008950F931F93CF93DF936B
:102B40008B0198E0899FB0011124606440E082E22B
:102B500099E00E947F15E801085F1F4F699182E2AA
:102B600099E00E949615C017D107C1F7DF91CF9168
:102B70001F910F910895EF92FF920F931F93CF93A0
:102B8000DF938C017B01D0E0C0E0F701EC0FFD1F6B
:102B90006491662331F041E0C8010E947F152196BF
:102BA000F4CFCE01DF91CF911F910F91FF90EF9065
:102BB000089541E00E947F1581E090E008950F9311
:102BC0001F93CF93DF93009779F0162F082FC02F14
:102BD000D92F6991662341F086E199E00E94D915C9
:102BE0008C2F801B8117A8F3DF91CF911F910F913C
:102BF00008954F925F926F927F928F929F92AF92C1
:102C0000BF92CF92DF92EF92FF920F931F93CF93D9
:102C10006B017C01742EAC019B010E94314E66EC6D
:102C200072E0811126C046015701E894B7F82FEFF2
:102C30003FEF4FE75FE7C501B4010E94314E8111BC
:102C40000CC02FEF3FEF4FE75FE7C501B4010E94D3
:102C500083496AEC72E0181664F02FEF3FEF4FE7FC
:102C60005FE4C701B6010E94664C1816ACF46EEC26
:102C700072E086E199E0CF911F910F91FF90EF9064
:102C8000DF90CF90BF90AF909F908F907F906F908C
:102C90005F904F900C9401152FEF3FEF4FE75FECE3
:102CA000C701B6010E94834987FDE1CF20E030E0F3
:102CB000A901C701B6010E94834910E000E087FF27
:102CC0000AC06DE286E199E00E94D9158C01F7FAFD
:102CD000F094F7F8F094C0E060E070E080E09FE3EB
:102CE0007C1641F020E030E040E251E40E94EA4AE4
:102CF000CF5FF6CFA70196010E94184A2B013C0135
:102D00000E949D4B4B015C012AE0BC01A40186E1BD
:102D100099E00E940B157C01E00EF11ECC23D1F14D
:102D2000C501B4010E9488499B01AC01C301B201F5
:102D30000E94174A4B015C016EE286E199E00E9415
:102D4000D915E80EF91EC15028F120E030E040E22C
:102D500051E4C501B4010E94B4442B013C010E941E
:102D60009D4B4B01B12CA12C2AE0B501A40186E1B9
:102D700099E00E940B15E80EF91EC501B4010E94EE
:102D800088499B01AC01C301B2010E94174A4B0163
:102D90005C01D9CFC701CF911F910F91FF90EF90A8
:102DA000DF90CF90BF90AF909F908F907F906F906B
:102DB0005F904F900895AB01770F660B770B2AE079
:102DC0000C940B15CF93DF93D091CF07DF5F8091E9
:102DD000CE07C3E0813021F0C5E0823009F0C2E0C7
:102DE00063E474E186E199E00E94BB156D2F86E1F2
:102DF00099E00E945F156FE286E199E00E94D91583
:102E00006C2F86E199E00E945F156AE374E186E128
:102E100099E0DF91CF910C94BB15CF93DF9300D055
:102E200000D01F921F92CDB7DEB728E0E6E3F2E0B4
:102E3000DE01119601900D922A95E1F7FC012085A3
:102E4000241708F44FEF50E0440F551F21E030E005
:102E50002C0F3D1F420F531FFA012081620F606843
:102E600040E028960FB6F894DEBF0FBECDBFDF91CD
:102E7000CF910C947F1541E062E082E299E00E94DC
:102E80000D1761EC76E082E299E00E9457156BED38
:102E90007BE182E299E00C94BB15CF92DF92EF9236
:102EA000FF920F931F93CF93DF9341E060E082E2A4
:102EB00099E00E940D178091830660E281116CE316
:102EC00082E299E00E94D91560E282E299E00E94D4
:102ED000D9158091CE07813079F028F0823089F1C0
:102EE00002ED12E012C08091CF070BED12E08111CC
:102EF0000CC004ED12E009C0E091CF07F0E0EE0F46
:102F0000FF1FEE59FD4F00811181F8010190002053
:102F1000E9F731977F01E01AF10A8AE090E08E1913
:102F2000910997FD0196EC01D595C795CC2ED12C32
:102F3000DC1478F460E282E299E00E94D915D3941F
:102F4000F7CFE091CF07F0E0EE0FFF1FE459FD4F00
:102F5000DACFB80182E299E00E9457158AE08E1913
:102F60008C1BC82FD0E060E282E299E0CD1721F0FF
:102F70000E94D915DF5FF7CF0E94D9158091830693
:102F800060E281116EE382E299E00E94D91580919E
:102F9000D20762E5811101C064E482E299E0DF9129
:102FA000CF911F910F91FF90EF90DF90CF900C94F5
:102FB000D91540E061E00E947F158BE39FE1019706
:102FC000F1F7089582E299E00E94D91740E060E0AD
:102FD00082E299E00E940D17809111086CEB7DE16F
:102FE000811102C06BEC7DE182E299E00E94BB1589
:102FF00041E060E082E299E00E940D176BEF7DE115
:1030000082E299E00E94BB1586E199E00E94D917FF
:1030100040E060E086E199E00E940D176BEE7DE1F3
:1030200086E199E00E94BB1541E060E086E199E00D
:103030000E940D176AED7DE186E199E00C94BB15C5
:10304000EF92FF920F931F93CF93DF93EC0182E2F5
:1030500099E00E94D91740E060E082E299E00E9486
:103060000D176BEA7DE182E299E00E94BB1541E019
:1030700060E082E299E00E940D17FE0101900020BD
:10308000E9F731978F010C1B1D0BF12CE12CE01699
:10309000F10664F4699182E299E00E94D9158FEFFC
:1030A000E81AF80A80E1E816F10489F786E199E068
:1030B0000E94D91740E060E086E199E00E940D1778
:1030C0006AE97DE186E199E00E94BB1541E060E09C
:1030D00086E199E00E940D1769E87DE186E199E0BB
:1030E000DF91CF911F910F91FF90EF900C94BB1542
:1030F000FF920F931F93CF93DF93D82FC62FF42EF9
:10310000890182E299E00E94D91740E060E082E202
:1031100099E00E940D1760E87DE182E299E00E944B
:10312000BB156F2D82E299E00E945F156EE77DE18D
:1031300082E299E00E94BB156F2D82E299E00E9425
:103140005F1541E060E082E299E00E940D176BE7B5
:103150007DE182E299E00E94BB156D2F70E06F5F08
:103160007F4F82E299E00E94DB1669E77DE182E20F
:1031700099E00E94BB156C2F70E06F5F7F4F82E279
:1031800099E00E94DB1666E77DE182E299E00E9409
:10319000BB15B80182E299E00E94571564E77DE112
:1031A00082E299E00E94BB1586E199E00E94D9175E
:1031B00040E060E086E199E00E940D1764E67DE161
:1031C00086E199E00E94BB1541E060E086E199E06C
:1031D0000E940D1764E57DE186E199E0DF91CF91D2
:1031E0001F910F91FF900C94BB150F931F93CF93DA
:1031F000DF93D82F8B01C42F82E299E00E94D91768
:1032000040E060E082E299E0D13069F50E940D175C
:1032100063E47DE182E299E00E94BB1541E060E059
:1032200082E299E00E940D1762E37DE1CC2311F068
:1032300061E27DE182E299E00E94BB1541E062E03B
:1032400082E299E00E940D17B80182E299E00E94A3
:10325000571567ED7CE182E299E0DF91CF911F91F4
:103260000F910C94BB150E940D1760E17DE182E285
:1032700099E00E94BB1541E060E082E299E00E9483
:103280000D176FEF7CE1CC23A9F26EEE7CE1C1302B
:1032900089F26DED7CE1CECF8F929F92AF92BF927B
:1032A000CF92DF92EF92FF928091100881112AC194
:1032B00086E199E00E94D91740E060E086E199E05C
:1032C0000E940D1760ED7CE186E199E00E94BB153C
:1032D000E091D007F0E0EE0FFF1FEA58FD4F60814C
:1032E000718186E199E00E9457158091D007833063
:1032F00099F46EEC7CE186E199E00E94BB15E091C7
:10330000D107F0E0EE0FFF1FE459FD4F608171819E
:1033100086E199E00E94571541E060E086E199E07E
:103320000E940D176CEC7CE186E199E00E94BB15D0
:10333000E091D207F0E0EE0FFF1FE859FD4F6081EA
:10334000718186E199E00E9457156AEC7CE186E183
:1033500099E00E94BB158091D307882331F063EC7C
:103360007CE186E199E00E94BB158091D407882317
:1033700031F06EEB7CE186E199E00E94BB1567EBD2
:103380007CE186E199E00E94BB15C090D507D09002
:10339000D607E090D707F090D807A7019601C7019C
:1033A000B6010E94314E63EB7CE1811125C04601DC
:1033B0005701E894B7F82FEF3FEF4FE75FE7C501FC
:1033C000B4010E94314E811123C02FEF3FEF4FE730
:1033D0005FE7C501B4010E9483491816CCF420E0D0
:1033E00030E0A901C701B6010E94664C6EEA7CE19B
:1033F000181614F069EA7CE186E199E0FF90EF90FD
:10340000DF90CF90BF90AF909F908F900C94BB15A2
:1034100020E030E0A901C701B6010E948349811173
:1034200003C067EA7CE1E8CF20E030E0A901C701F2
:10343000B6010E94664C1816BCF420E034E244E762
:1034400059E4C701B6010E94664C87FD22C042E0E4
:10345000C701B601FF90EF90DF90CF90BF90AF9083
:103460009F908F900C94F91520E034E244E759ECDA
:10347000C701B6010E94834918164CF72FE632E1C6
:1034800043E85AEBC701B6010E94664C18165CF47B
:10349000DECF2FE632E143E85AE3C701B6010E94CE
:1034A000834987FDD4CFC701B6010E94964B4B01DB
:1034B0005C010E948A499B01AC01C701B6010E94D0
:1034C000834944E08111C4CF2AE0B501A401B7FECD
:1034D0000DC06DE286E199E00E94D9154427552779
:1034E000BA01481959096A097B092AE086E199E07D
:1034F000FF90EF90DF90CF90BF90AF909F908F9014
:103500000C940B15FF90EF90DF90CF90BF90AF9091
:103510009F908F900895CF93DF9382E299E00E946D
:10352000D91740E060E082E299E00E940D176FE851
:103530007CE182E299E00E94BB15C5E7D7E0688193
:1035400082E299E00E945F156DE87CE182E299E0F9
:103550000E94BB15688182E299E00E945F1586E1B6
:1035600099E00E94D91740E060E086E199E00E946E
:103570000D1768E87CE186E199E00E94BB15E091B7
:103580007607F0E0EE0FFF1FE458F34E6081718183
:1035900086E199E00E94571541E060E086E199E0FC
:1035A0000E940D176CE67CE186E199E00E94BB1554
:1035B0002AE737E048816091780780917707DF91AB
:1035C000CF910C9478189F92AF92BF92CF92DF92D6
:1035D000EF92FF920F931F93CF93DF938091D206C8
:1035E000C2EDD6E0811102C0D0E0C0E01091EF063C
:1035F00082E299E00E94D91740E060E082E299E01F
:103600000E940D17E0E9F6E001900020E9F7CF01F4
:10361000815996407C01082F811143C06BE57CE104
:1036200082E299E00E94BB1541E060E082E299E00D
:103630000E940D17209709F464C08881882309F43B
:1036400060C0FE0101900020E9F7EC1BE03158F466
:1036500000E10E1B10E060E282E299E00E94D915C1
:103660001F5F0113F8CF6DE382E299E00E94D91544
:103670008E01015F1F4F6991662339F082E299E064
:103680000E94D9150C171D07B1F7DF91CF911F913B
:103690000F91FF90EF90DF90CF90BF90AF909F90F1
:1036A0000895181708F010E0C12ED12CF601E0574C
:1036B000F94F5F0180E1982E910E191559F01017FE
:1036C00048F4F50161915F0182E299E00E94D91509
:1036D0001F5FF3CF013108F4A7CF40E06FE082E233
:1036E00099E00E940D17F0E1CF0ED11C6CE3EC14B1
:1036F0001D0411F00CF06EE382E299E00E94D915EE
:1037000093CF6AE47CE182E299E0DF91CF911F914F
:103710000F91FF90EF90DF90CF90BF90AF909F9070
:103720000C94BB1582E299E00E94D9178091D107D1
:103730008130E1F070F0823011F141E060E082E22E
:1037400099E00E940D1768EE7BE182E299E00C940B
:10375000BB1540E060E082E299E00E940D176CE248
:103760007CE182E299E00E94BB15E7CF40E060E097
:1037700082E299E00E940D176BE17CE1F2CF40E01C
:1037800060E082E299E00E940D178091E60669EF01
:103790007BE1813031F76AE07CE1E3CF82E299E0BE
:1037A0000E94D91786E199E00E94D9178091CE072F
:1037B0008130F1F120F0823009F463C0089540E0D7
:1037C00060E082E299E00E940D1763E47BE182E20F
:1037D00099E00E94BB150E944D1740E060E086E131
:1037E00099E00E940D178091CF07811112C069EEF8
:1037F0007AE186E199E00E94BB1541E060E086E154
:1038000099E00E940D1768ED7AE186E199E00C9449
:10381000BB1561E37BE186E199E00E94BB1541E0C5
:1038200060E086E199E00E940D176EE17BE1EDCF4B
:1038300040E060E082E299E00E940D176DE07BE1DC
:1038400082E299E00E94BB150E944D1740E060E0C3
:1038500086E199E00E940D17E091CF07F0E0EE0FAE
:10386000FF1FE45AFD4F6081718186E199E00E945B
:10387000571541E060E086E199E00E940D170C9435
:10388000E21640E060E082E299E00E940D176CEFE2
:103890007AE182E299E00E94BB150E944D1740E058
:1038A00060E086E199E00E940D17E091CF07F0E01B
:1038B000EE0FFF1FEE5AFD4FD6CFCF93C82F82E2F7
:1038C00099E00E94D91786E199E00E94D91740E05B
:1038D00060E082E299E00E940D1767EC7AE182E2F3
:1038E00099E00E94BB1541E060E082E299E00E940D
:1038F0000D17CC23D1F16CEB7AE182E299E00E94C2
:10390000BB15E091D107F0E0EE0FFF1FE459FD4F2A
:103910006081718182E299E00E94571540E060E089
:1039200086E199E00E940D17C0E16DE386E199E020
:103930000E94D91568E270E080E090E00E94591082
:10394000C15099F741E060E086E199E00E940D17CF
:1039500062EA7AE186E199E00E94BB1564EF71E0CA
:1039600080E090E0CF910C94591064EB7AE182E210
:1039700099E00E94BB15E091D007F0E0EE0FFF1F29
:10398000EE59FD4FC5CF0F931F93CF93DF938C015B
:10399000EB0186E199E00E94D91740E060E086E102
:1039A00099E00E940D1760E1F801808191810E94E9
:1039B000DF158C819D81892B79F041E060E086E103
:1039C00099E00E940D1760E188819981DF91CF9184
:1039D0001F910F910C94DF15DF91CF911F910F91E3
:1039E0000895CF92DF92EF92FF920F931F93CF93A0
:1039F000DF937C0182E299E00E94D917E7010990E8
:103A00000020E9F72197CE19DF0940E060E082E26B
:103A100099E00E940D176E01C031D1051CF420E120
:103A2000C22ED12C8601005111090C171D0774F408
:103A3000C016D10659F0F701E00FF11F608182E254
:103A400099E00E94D9150F5F1F4FEFCF41E060E072
:103A500082E299E00E940D1768E374E182E299E046
:103A60000E94BB15E091D007F0E0EE0FFF1FEA586F
:103A7000FD4F6081718182E299E00E94571566E3F3
:103A800074E182E299E00E94BB15E091D207F0E078
:103A9000EE0FFF1FE859FD4F6081718182E299E0CE
:103AA0000E94571564E374E182E299E00E94BB151D
:103AB0008091D307882331F060E374E182E299E0DA
:103AC0000E94BB158091D407882371F06CE274E1E9
:103AD00082E299E0DF91CF911F910F91FF90EF90DB
:103AE000DF90CF900C94BB15DF91CF911F910F9178
:103AF000FF90EF90DF90CF900895E7E8F7E0108215
:103B000010AAEDECF7E01486158616821782109243
:103B1000100887E897E00E94F11C0C944C190F9351
:103B20001F93CF93DF938C01EB0186E199E00E9414
:103B3000D91740E060E086E199E00E940D17B801D6
:103B400086E199E00E94BB15209779F041E060E0A2
:103B500086E199E00E940D17BE0186E199E0DF91B0
:103B6000CF911F910F910C94BB15DF91CF911F91B5
:103B70000F9108950F931F93CF93DF93EC01109251
:103B80005B0610925A0610925906109258060E942F
:103B90002E1387E990E1909357068093560688E9A3
:103BA00090E190935506809354061D828A85823059
:103BB00010F098E09D83888762E370E080E090E0F9
:103BC0000E9459106B85CE010E94F31368EE73E0DA
:103BD00080E090E00E94591060E3CE010E946615DB
:103BE0000BE416E4C8010197F1F760E3CE010E94EF
:103BF0006615C8010197F1F760E3CE010E946615D2
:103C000083E592E00197F1F760E2CE010E9466152C
:103C10006D81606240E0CE010E947F1584E08E835A
:103C200040E06CE0CE010E947F15CE010E94D917C2
:103C300082E08F8340E066E0CE010E947F1540E085
:103C400062E0CE010E947F158BE39FE10197F1F7BF
:103C5000DF91CF911F910F9108957093F6066093B5
:103C6000F5064093F7061092F80649E050E0BC01D3
:103C700089EF96E00E94ED5010920207109204071F
:103C800010920307089521E02093CC0740E150E013
:103C9000BC0188EB97E00E94ED501092C807089590
:103CA00082E0809375071092760784E2E9E0F7E0FE
:103CB000DF01982F1D929A95E9F7EDE2F7E0DF0119
:103CC0001D928A95E9F71092770710927807109263
:103CD000790710927A07109286070C948B1AEF924C
:103CE000FF920F931F93CF93DF93CDB7DEB7639708
:103CF0000FB6F894DEBF0FBECDBFE091F506F09190
:103D0000F606309719F18091F7068823F9F0909123
:103D1000F806981710F01092F8068091F80690E0D7
:103D2000880F991FE80FF91F6591749140E150E0E9
:103D3000CE0101960E94A445198A898110E000E015
:103D4000811111C01092F8060E946F1E63960FB683
:103D5000F894DEBF0FBECDBFDF91CF911F910F91C1
:103D6000FF90EF9008958091F7061817B8F4812F0F
:103D700090E0880F991FE091F506F091F606E80FA4
:103D8000F91F6591749141E050E0CE0142960E9486
:103D9000A4458A8981110F5F1F5FE5CFF09004076A
:103DA000E09003071091F80686E199E00E94D91788
:103DB00040E060E086E199E00E940D1768E089EF3D
:103DC00096E00E94DF1567E47CE186E199E00E94BD
:103DD000BB15612F70E06F5F7F4F86E199E00E9415
:103DE000DB1665E47CE186E199E00E94BB15602F5B
:103DF00086E199E00E945F1563E47CE186E199E049
:103E00000E94BB1560E47CE1E11004C0FF2031F0AA
:103E10006DE37CE186E199E00E94BB1541E060E042
:103E200086E199E00E940D1760E1CE0101960E94A3
:103E3000DF158CCF109290061092C0061092C1062A
:103E40001092D1061092D2061092EB061092EC0658
:103E50001092ED061092EE061092E7061092E80618
:103E60001092E9061092EA061092E6061092EF060A
:103E70001092F0061092F1061092F2061092F306DC
:103E80001092F4061092030710920407109205078F
:103E90001092060710920707109208071092D30796
:103EA0001092D4078091D107813089F040F08230A0
:103EB000D1F0833091F00E94E31A0C946F1E48E019
:103EC00061E87BE18EED92E00E942D1EF4CF48E088
:103ED00061E77BE185EE92E0F7CF47E063E67BE1C7
:103EE0008DEE92E0F1CF47E065E57BE182EF92E075
:103EF000EBCF0F931F93CF93DF93CDB7DEB76197CF
:103F00000FB6F894DEBF0FBECDBF82E299E00E94EB
:103F1000D91740E060E082E299E00E940D1766E464
:103F20007AE182E299E00E94BB1541E060E082E222
:103F300099E00E940D1763E47AE182E299E00E9421
:103F4000BB1509E716E0D8011796EC91F0E0EE0FEB
:103F5000FF1FE75CF54E6591749140E150E0CE01A2
:103F600001960E94A445198ABE016F5F7F4F82E2CD
:103F700099E00E94571566E37AE182E299E00E9497
:103F8000BB1586E199E00E94D91740E060E086E128
:103F900099E00E940D176FE27AE186E199E00E94B4
:103FA000BB15F801678170E06F5F7F4F86E199E094
:103FB0000E94DB166DE27AE186E199E00E94BB1572
:103FC00065E070E086E199E00E94DB1664E27AE148
:103FD00086E199E00E94BB1541E060E086E199E04E
:103FE0000E940D1763E17AE186E199E00E94BB151A
:103FF00061960FB6F894DEBF0FBECDBFDF91CF91B3
:104000001F910F9108951F93CF93DF93CDB7DEB724
:10401000A2970FB6F894DEBF0FBECDBF8091800689
:104020001BE0E0918106F0E0819FE00DF11D11247D
:10403000EE0FFF1FEB55F64E6591749140E150E095
:10404000CE0142960E94A4451AA28A89811142C0DB
:1040500082E299E00E94D91786E199E00E94D9177F
:1040600040E060E082E299E00E940D1762E779E1AA
:1040700082E299E00E94BB1541E060E082E299E0B3
:104080000E940D1761E679E182E299E00E94BB157A
:1040900040E060E086E199E00E940D1760E579E17B
:1040A00086E199E00E94BB1541E060E086E199E07D
:1040B0000E940D176EE379E186E199E00E94BB153D
:1040C000A2960FB6F894DEBF0FBECDBFDF91CF91A1
:1040D0001F91089582E299E00E94D91740E060E0C4
:1040E00082E299E00E940D17BE016E5E7F4F82E270
:1040F00099E00E94571580918006E0918106F0E0DA
:104100003196819FE00DF11D1124EE0FFF1FEB553D
:10411000F64E6591749140E150E0CE0101960E9407
:10412000A4458981882369F041E060E082E299E05A
:104130000E940D17BE016F5F7F4F82E299E00E94DF
:10414000571586E199E00E94D91740E060E086E1CA
:1041500099E00E940D176EE979E186E199E00E94ED
:10416000BB1560918106669570E06F5F7F4F86E1B9
:1041700099E00E94DB1664E979E186E199E00E940A
:10418000BB1541E060E086E199E00E940D1763E80D
:1041900079E192CFCF93DF93623059F158F46623DF
:1041A00029F1EEEEF4E1613061F0FA011082DF9165
:1041B000CF9108956430B9F098F0EEE4F4E1653001
:1041C000A1F7EA0190E0880F991FE80FF91F6591A8
:1041D000749140E150E0CE010E94A445188AE7CFD7
:1041E000EEE9F4E1EECFE6E7F4E1EBCFE6E1F5E16D
:1041F000E8CFE6ECF4E1E5CFCF93DF93CDB7DEB7C0
:10420000A2970FB6F894DEBF0FBECDBFE09179063E
:10421000F0E0EE0FFF1FE658F54E6591749140E116
:1042200050E0CE0142960E94A4451AA282E299E093
:104230000E94D91740E060E082E299E00E940D17E9
:10424000BE016E5E7F4F82E299E00E94571541E009
:1042500060E082E299E00E940D1768E77AE182E26D
:1042600099E00E94BB156091790670E06F5F7F4F07
:1042700082E299E00E94DB1666E77AE182E299E049
:104280000E94BB1564E170E082E299E00E94DB16B7
:1042900063E77AE182E299E00E94BB156CE67AE17D
:1042A00082E299E00E94BB1560917A0670E06F5F30
:1042B0007F4F82E299E00E94DB1680917B06882383
:1042C00031F068E67AE182E299E00E94BB15AE0126
:1042D0004F5F5F4F60917A06809179060E94CA20F5
:1042E00086E199E00E94D91740E060E086E199E01C
:1042F0000E940D1767E57AE186E199E00E94BB15FF
:1043000041E060E086E199E00E940D17898181110A
:104310000AC010927A06AE014F5F5F4F60E0809155
:1043200079060E94CA20BE016F5F7F4F86E199E047
:104330000E945715A2960FB6F894DEBF0FBECDBFF0
:10434000DF91CF9108951092790610927A0610921B
:104350007B0610927C0610927D0610927E061092CB
:104360007F06109280061092810681E0809382067B
:104370001092D3071092D4078091D107833011F4A3
:104380000C94FC20843011F40C94791F0895CF9381
:10439000DF93CDB7DEB761970FB6F894DEBF0FBEDF
:1043A000CDBF60917A066F5FAE014F5F5F4F809126
:1043B00079060E94CA20898181110DC010927A0667
:1043C0000E94FC2061960FB6F894DEBF0FBECDBFF1
:1043D000DF91CF91089580917A068F5F80937A065E
:1043E000EFCF4F925F926F927F929F92AF92BF9268
:1043F000CF92DF92EF92FF920F931F93CF93DF93B1
:104400006B017C01EA01122FAC019B010E94314E2D
:10441000412F50E063E073E0811128C0260137018D
:10442000E89477F82FEF3FEF4FE75FE7C301B20162
:104430000E94314E81112CC02FEF3FEF4FE75FE715
:10444000C301B2010E948349181614F5012F10E030
:1044500020E030E0A901C701B6010E94664C69EF77
:1044600072E0181614F06EEF72E0A801CE01DF9131
:10447000CF911F910F91FF90EF90DF90CF90BF9061
:10448000AF909F907F906F905F904F900C94ED5005
:1044900020E030E0A901C701B6010E9483498111E3
:1044A00005C0412F50E067EC74E0E0CF20E030E041
:1044B000A901C701B6010E94664C20E030E040E04F
:1044C0005FE387FD4CC0C701B6010E94184A0E94F5
:1044D000964B0E948A49962EA72EB82E092F20E0CF
:1044E00030E0A9010E948349882309F447C0292D9F
:1044F0003A2D4B2D502FC701B6010E94174A2B01B0
:104500003C0120E030E0A9010E94664C181664F5D9
:1045100027E137EB41ED58E3C301B2010E94834923
:1045200087FF2CC020E030E0A901692D7A2D8B2D6A
:10453000902F0E94664C18160CF06CC028E23BE6E7
:104540004EE65EE4692D7A2D8B2D902F0E948349D3
:1045500087FF14C0C92CDA2CEB2CF02E0FC0C7013A
:10456000B6010E94174AB3CF27E137EB41ED58EB74
:10457000C301B2010E94664C1816A4F2C701B6012D
:104580000E94964B062FB72EA82E992E0E948A497C
:104590009B01AC01C701B6010E948349811153C040
:1045A00020E030E0A901C701B6010E94664C181650
:1045B0000CF03EC028E23BE64EE65EE4C701B601E1
:1045C0000E94834987FF48C09F92AF92BF920F938A
:1045D00087E093E09F938F931F921F93DF93CF9376
:1045E0000E94FC50EDB7FEB73A960FB6F894FEBFA6
:1045F0000FBEEDBFDF91CF911F910F91FF90EF9014
:10460000DF90CF90BF90AF909F907F906F905F9022
:104610004F90089528E23BE64EE65EEC692D7A2D38
:104620008B2D902F0E94664C18160CF493CFA6CFBA
:1046300028E23BE64EE65EECC701B6010E94664CFE
:1046400018160CF4C1CF20E030E0A901C701B60173
:104650000E94664C181694F429EF32E045E150E5CB
:10466000C701B6010E94664C87FD26C08E0124E07A
:104670004AE0C701B6010E947245BCCF29EF32E083
:1046800045E150EDC701B6010E948349181674F741
:1046900027E137EB41ED58EBC701B6010E94664CAC
:1046A0001816A4F420E030E0A901C701B6010E9469
:1046B0008349882359F0DACF27E137EB41ED58E3FE
:1046C000C701B6010E94834987FDD0CF8E0126E045
:1046D00041E0C701B6010E947245FE01AF014C1BCB
:1046E0005D0B8191882309F485CF8E32B9F7FE01E5
:1046F00001900020E9F7CF010197FC013197CF012C
:104700002081BF016C1B7D0B4617570724F4203313
:1047100011F41082F2CF2E3209F06CCF10826ACFE2
:104720004F925F926F927F928F929F92AF92BF92C1
:10473000CF92DF92EF92FF920F931F93CF93DF936D
:104740000E94DD140E94F614883209F056C00E94BF
:10475000F0140E9441258B01D82FC92F0E94DD142F
:104760000E94F614893209F043C00E94F0140E949E
:10477000DD140E94F6148E3509F010C10E94F01469
:104780000E94D2244B015C0120E030E0A901B80175
:104790008D2F9C2F0E94834987FF9CC0C501B401C7
:1047A0000E94964B072E000C880B990B0E948A4999
:1047B000A50194010E948349882309F48BC08BE3EF
:1047C00093E00E94431E60E070E080E090E0DF91A3
:1047D000CF911F910F91FF90EF90DF90CF90BF90FE
:1047E000AF909F908F907F906F905F904F900895C3
:1047F0008BE093E00E94431EBACF811109C08CE187
:1048000093E00E94431E00E010E0D0E0C0E0AFCF94
:104810008DECC82E8CECD82EED2C8DE3F82E00E01C
:1048200010E0D0E0C0E0A12CB12C0E94F614682F5B
:1048300080ED860F8A3008F03FC0062E000C770B03
:1048400060537109072E000C880B990B0E948A494E
:104850002B013C01BB20E9F0A70196010E94B44462
:104860009B01AC01B8018D2F9C2F0E94184A8B012F
:10487000D82FC92F2DEC3CEC4CEC5DE3C701B60101
:104880000E94B4446B017C010E94F014AA24A394FA
:10489000CCCF20E030E040E251E4B8018D2F9C2FD6
:1048A0000E94B4449B01AC01C301B2010E94184AAA
:1048B0008B01D82FC92FE8CF6E3239F4B11005C063
:1048C0000E94F014BB24B394B0CFA11050CF8CE25F
:1048D00093E090CFC501B4010E94964B7B01072E57
:1048E000000C880B990B0E948A49A50194010E9433
:1048F000834981113CC0F7FC17C02FE1E216F10497
:10490000B4F5D12CC12C60E070E080E89FE3CE14B8
:10491000DF0409F45CCF98014D2F5C2F0E94B44452
:104920002FEFC21AD20AF3CF82EEE8168FEFF80605
:10493000F4F0D12CC12C60E070E080E89FE3F194AA
:10494000E194F108CE14DF044CF498014D2F5C2F54
:104950000E94B4442FEFC21AD20AF4CF9B01AC01DB
:1049600060E070E080E89FE30E94EA4A30CFA50152
:104970009401B8018D2F9C2FDF91CF911F910F9142
:10498000FF90EF90DF90CF90BF90AF909F908F906F
:104990007F906F905F904F900C94394DB8018D2FA0
:1049A0009C2F15CF0E94DD140E94F6148D3231F435
:1049B0000E94F0140E949023905808958B3211F4B5
:1049C0000E94F0140C9490238F929F92AF92BF920A
:1049D000CF92DF92EF92FF920E94D2246B017C0172
:1049E0008091CC07811131C00E94DD140E94F61421
:1049F0008A3259F40E94F0140E94D2249B01AC0127
:104A0000C701B6010E94B444E9CF8F32F1F40E948D
:104A1000F0140E94D2244B015C0120E030E0A90197
:104A20000E94664C1816E4F42DE73DE140E956E299
:104A3000C501B4010E94834987FF1CC08FE493E045
:104A40000E94431EC12CD12C7601C701B601FF90F4
:104A5000EF90DF90CF90BF90AF909F908F90089590
:104A60002DE73DE140E956EAC501B4010E94664CDC
:104A7000181624F3A5019401C701B6010E94EA4A61
:104A8000ADCFCF92DF92EF92FF920E94E4246B01B0
:104A90007C018091CC0781111EC00E94DD140E9410
:104AA000F6148B3259F40E94F0140E94E4249B0106
:104AB000AC01C701B6010E94184AE9CF8D3259F402
:104AC0000E94F0140E94E4249B01AC01C701B601CE
:104AD0000E94174ADCCFC701B601FF90EF90DF902C
:104AE000CF900895CF92DF92EF92FF920F931F9392
:104AF000CF93DF93CDB7DEB7CC59D1090FB6F89479
:104B0000DEBF0FBECDBF6C01CB01BA0179018E01B2
:104B10000F561F4F28E041E00E94724530E020E030
:104B2000AE014F5F5F4F18E209E2F601E30FF11D9E
:104B30006081822F90E0662329F1243818F52F5FD9
:104B4000762F7F7D840F951FFC017835C9F4108383
:104B5000BE016F567F4FDA01A20FB11DFB0181919B
:104B6000BF012F5FFD01E41BF50B882321F02F38D7
:104B700011F08D93F3CFE40FF51F00833F5FD5CF86
:104B80006083FCCF840F951FFC0110825093CB07EC
:104B90004093CA071092C9071092CC071092B80729
:104BA0000E9441252091CC07F7012083C456DF4F96
:104BB0000FB6F894DEBF0FBECDBFDF91CF911F912E
:104BC0000F91FF90EF90DF90CF9008952F923F923A
:104BD0004F925F926F927F928F929F92AF92BF920D
:104BE000CF92DF92EF92FF920F931F93CF93DF93B9
:104BF000CDB7DEB7AA970FB6F894DEBF0FBECDBF14
:104C000081EC96E00E9490456B017C011092C106F8
:104C10001092D1068091D107813009F433C130F070
:104C2000823009F4CBC11092E606D8C1C092E706E3
:104C3000D092E806E092E906F092EA0684E1EEE31B
:104C4000F2E09E012F5F3F4F1901D90101900D92B3
:104C50008A95E1F71DA28E010B5E1F4F0EA31AA7C6
:104C6000F80172906290529042908F01A3019201DC
:104C7000C701B6010E94174AAB01BC019E012B5D22
:104C80003F4F80E996E00E9472254B015C011DA216
:104C9000A3019201C701B6010E94184AAB01BC01F1
:104CA0009E012B5D3F4F80E996E00E9472252B010B
:104CB0003C011DA22016310699F6AC019B01C501ED
:104CC000B4010E94174A6B017C0120E030E0A90189
:104CD0000E94664C1816A4F42CEA35EC47E257E320
:104CE000C701B6010E94834987FD14C044E150E02A
:104CF00061E673E082ED96E00E94ED50F12C47C032
:104D00002CEA35EC47E257EBC701B6010E94664C2E
:104D1000181664F7A5019401C501B4010E94314E33
:104D20008111E4CF75016401E894F7F82FEF3FEFAC
:104D30004FE75FE7C701B6010E94314E81110AC0FB
:104D40002FEF3FEF4FE75FE7C701B6010E948349AE
:104D5000181664F2A3019201C501B4010E94184A19
:104D600020E030E040E05FE30E94B4446B017C014E
:104D700024E142ED56E00E94F121C092D507D09285
:104D8000D607E092D707F092D807FF24F394109249
:104D9000EF0681E09091C006913108F480E08093A5
:104DA000F4060E94E31A28E0AE01435E5F4FC5019E
:104DB000B4010E94F12128E04EA15AA5C301B2011D
:104DC0000E94F12186E199E00E94D91740E060E05D
:104DD00086E199E00E940D1767ED7BE186E199E09D
:104DE0000E94BB158E01035E1F4F6E01F3E2CF0ED2
:104DF000D11CF80161918F01662339F086E199E0B9
:104E00000E94D915C016D106A1F761ED7BE186E1BC
:104E100099E00E94BB150EA11AA56E01F9E1CF0E13
:104E2000D11CF80161918F01662339F086E199E088
:104E30000E94D915C016D106A1F741E060E086E1D5
:104E400099E00E940D176BEB7BE1FF2011F06AECFB
:104E50007BE186E199E00E94BB15FF2079F002ED2D
:104E600016E0F80161918F01662341F086E199E037
:104E70000E94D915F6E00C3D1F0799F781E0809359
:104E8000DA07D1CEC092E706D092E806E092E906B2
:104E9000F092EA061D8A2CEA35EC47E257E3C70197
:104EA000B6010E94184AAB01BC019E012B5E3F4F28
:104EB00080E996E00E9472254B015C011D8A2CEA74
:104EC00035EC47E257E3C701B6010E94174AAB0130
:104ED000BC019E012B5E3F4F80E996E00E94722547
:104EE0002B013C011D8A9E012B5E3F4FB701A6019D
:104EF00080E996E00E9472256B017C011D8AA30166
:104F00009201C501B4010E94174A2CEA35EC47EA28
:104F100057E30E94EA4A4B015C0124E142ED56E06E
:104F20000E94F1218092D5079092D607A092D707D0
:104F3000B092D8071092EF0681E09091C0069131AF
:104F400008F480E08093F4060E94E31A2AE0AE01A0
:104F50004F5F5F4FC701B6010E94F12186E199E0E2
:104F60000E94D91740E060E086E199E00E940D17A9
:104F700063EB7BE186E199E00E94BB158E010F5F38
:104F80001F4F7E012AE0E20EF11CF80161918F01B2
:104F9000662339F086E199E00E94D9150E151F05A8
:104FA000A1F741E060E086E199E00E940D1762EA16
:104FB0007BE186E199E00E94BB1560CF9091E60607
:104FC000913029F5C092E706D092E806E092E90612
:104FD000F092EA068093E6060E94921BAA960FB60C
:104FE000F894DEBF0FBECDBFDF91CF911F910F911F
:104FF000FF90EF90DF90CF90BF90AF909F908F90F9
:105000007F906F905F904F903F902F900895C09247
:10501000EB06D092EC06E092ED06F092EE064090A0
:10502000E7065090E8066090E9067090EA06A30152
:105030009201C701B6010E94174A20E030E048EC17
:1050400052E40E94EA4A6EA37FA388A799A71D8A0B
:105050009E012B5E3F4FB301A20180E996E00E94C2
:1050600072254B015C011D8A9E012B5E3F4FB701EB
:10507000A60180E996E00E9472259B01AC011D8A81
:10508000C501B4010E94184A4B015C0101E010E027
:10509000B801012E000C880B990B0E948A492EA1A1
:1050A0003FA148A559A50E94B444A30192010E94C2
:1050B000184AAB01BC019E012B5E3F4F80E996E090
:1050C0000E9472252D89222329F08BE693E00E940D
:1050D0002018A9CD00FD89C09B01AC010E94184A8F
:1050E0009B01AC01C501B4010E94184A4B015C014F
:1050F0000F5F1F4F0436110559F6AC019B016EA1DD
:105100007FA188A599A50E94B44420E030E040E446
:1051100050E40E94EA4A4B015C0124E142ED56E072
:105120000E94F1218092D5079092D607A092D707CE
:10513000B092D8071092EF0681E09091C0069131AD
:1051400008F480E08093F4060E94E31A28E048E81F
:1051500056E0C701B6010E94F12128E048E856E078
:10516000C301B2010E94F12188E896E09F938F93DA
:105170009F938F938CE793E09F938F931F9281E18E
:105180008F938E010F5F1F4F1F930F930E94FC5050
:1051900086E199E00E94D91740E060E086E199E05D
:1051A0000E940D1761E97BE186E199E00E94BB1541
:1051B00041E060E086E199E00E940D177E01F1E197
:1051C000EF0EF11C0FB6F894DEBF0FBECDBFF80195
:1051D00061918F01662309F451CE86E199E00E9426
:1051E000D915E016F10699F749CE20E030E040E805
:1051F00050E40E94B44474CF0F931F93CF93DF9376
:10520000EC0188819981009759F02A813B8126170A
:10521000370730F081E0DF91CF911F910F91089512
:105220008B016F5F7F4F0E94F14F009759F0998378
:1052300088831B830A832C813D81232B59F7FC0132
:105240001082E8CF80E0E7CFEF92FF920F931F9399
:10525000CF93DF93FB0101900020E9F73197E61B24
:10526000F70BE1F07B018C01DC011496CD91DC9110
:10527000CE0FDF1FBE010E94FC28882381F0F801B9
:105280002081318184819581B701820F931F0E9413
:10529000E650D8011596DC93CE93149781E0DF9108
:1052A000CF911F910F91FF90EF900895CF93DF93CF
:1052B000EC0188819981009711F00E94684F198252
:1052C00018821D821C821B821A82DF91CF91089561
:1052D000EF92FF920F931F93CF93DF93EC018B011B
:1052E0006115710551F0CB010E949B457C01BC0109
:1052F000CE010E94FC2881110BC0CE010E945629CC
:10530000CE01DF91CF911F910F91FF90EF90089503
:10531000FD82EC82B801888199810E949445F0CF8A
:10532000EF92FF920F931F93CF93DF93EC017B01DA
:10533000198218821B821A821D821C82FB01019035
:105340000020E9F731978F01061B170BB8010E9467
:10535000FC28811109C0CE01DF91CF911F910F91DF
:10536000FF90EF900C9456291D830C83B701888120
:105370009981DF91CF911F910F91FF90EF900C9445
:10538000E6509F92AF92BF92CF92DF92EF92FF9240
:105390000F931F93CF93DF93EC016B0169E074E0EF
:1053A0000E949029D6011496ED90FC90E114F1042E
:1053B00061F1B0E1EB16F10418F080E1E82EF12C78
:1053C000D601ED91FC911197EE0DFF1D908010829A
:1053D000AD90BC90A114B10471F0F50101900020D2
:1053E000E9F731978F010A191B09B801CE010E9414
:1053F000FC28811117C0CE010E945629F601808138
:105400009181E80EF91ED7019C92CE01DF91CF91D8
:105410001F910F91FF90EF90DF90CF90BF90AF90D2
:105420009F9008951D830C83B501888199810E9406
:10543000E650E4CFFC0180819181009711F00C943B
:10544000684F0895CF92DF92EF92FF920F931F93D0
:10545000CF93DF93CDB7DEB72E970FB6F894DEBFAC
:105460000FBECDBF82E299E00E94D91786E199E094
:105470000E94D91740E060E082E299E00E940D1797
:105480006DE97CE182E299E00E94BB1510E0809119
:105490007507181708F079C064E873E0CE01099623
:1054A0000E94902900E0812F90E07C01EE0CFF1C0F
:1054B000E80EF91E80917507081758F5C02ED12CFB
:1054C000F701EC0DFD1DEE0FFF1FEE0FFF1FEF5A52
:1054D000F84F608171818281938128E0AE014F5F36
:1054E0005F4F0E94F121BE016F5F7F4FCE01099691
:1054F0000E942429809175078150990BC816D906FE
:1055000034F468E074E0CE0109960E9424290F5F0C
:10551000D1CF62E873E0CE0109960E9424291111CF
:105520001EC041E060E082E299E00E940D17BE01DA
:10553000675F7F4FCE0101960E94C129BE016F5F58
:105540007F4F82E299E00E94C610CE0101960E9430
:105550001A2ACE0109960E941A2A1F5F98CF40E0AE
:10556000113009F041E060E086E199E00E940D17FA
:10557000BE01675F7F4FCE0101960E94C129BE0127
:105580006F5F7F4F86E199E0DECF81E08093DA079D
:105590002E960FB6F894DEBF0FBECDBFDF91CF9130
:1055A0001F910F91FF90EF90DF90CF9008953F9261
:1055B0004F925F926F927F928F929F92AF92BF9223
:1055C000CF92DF92EF92FF920F931F93CF93DF93CF
:1055D0003090750709E017E0F12C4C01990FAA08EB
:1055E000BB083F1429F1E801E12C3E14E9F0499091
:1055F0005990699079906E0184E4C80ED11CC50160
:10560000B4010E948A4928A139A14AA15BA10E9444
:10561000B444A30192010E94184AF6016083718389
:1056200082839383E394E1CFF394045F1F4FD9CF38
:10563000DF91CF911F910F91FF90EF90DF90CF906E
:10564000BF90AF909F908F907F906F905F904F90A2
:105650003F900C94222A85ED8093BC0080912E0609
:1056600090912F06A0913006B09131060796A11DAA
:10567000B11D23E0B695A795979587952A95D1F703
:105680002091BC0024FD03C010922C060895409187
:105690002E0650912F066091300670913106452BF1
:1056A000462B472B69F30097A105B10541F02AE28B
:1056B0002A95F1F700C00197A109B109E1CF8091C6
:1056C0002D060C944C131F920F920FB60F921124BB
:1056D0002F933F938F939F93AF93BF9380917106C6
:1056E00090917206A0917306B09174063091700685
:1056F00023E0230F2D3758F50196A11DB11D2093EE
:1057000070068093710690937206A0937306B0930F
:1057100074068091750690917606A0917706B091F7
:1057200078060196A11DB11D8093750690937606AB
:10573000A0937706B0937806BF91AF919F918F9118
:105740003F912F910F900FBE0F901F90189526E854
:10575000230F0296A11DB11DD2CF1F920F920FB63B
:105760000F9211240BB60F922F933F934F935F9399
:105770006F937F938F939F93AF93BF93EF93FF9319
:105780008091B900887F803609F44DC008F040C090
:10579000883209F4A9C028F5803109F49DC0C8F405
:1057A000882309F4FBC0883009F496C0FF91EF917B
:1057B000BF91AF919F918F917F916F915F914F9129
:1057C0003F912F910F900BBE0F900FBE0F901F9027
:1057D0001895883109F488C0803241F780932A06F1
:1057E00014C0803409F49DC040F48033B9F3883389
:1057F000E9F680932A0685ECB0C0803509F485C0AF
:10580000883509F496C0883489F60E942B2BCECFB8
:10581000883909F48CC038F5883729F050F4883677
:1058200011F0803719F683E080932C06109205065C
:1058300057C0883809F47BC0803919F0803809F0E6
:10584000B5CF80910506803208F071C0E091050661
:1058500081E08E0F809305068091BB00F0E0EB5154
:10586000FA4F80833DC0803B39F0E0F4803A09F480
:1058700079C0883A09F09ACF84E080932C06109280
:10588000E4051092E305E0915606F091570619954C
:105890008091E30581110FC081E08093E3051092B0
:1058A000C30509C0803C09F4A6CF883C09F4A3CF06
:1058B000883B09F07BCFE091E40581E08E0F809377
:1058C000E405F0E0ED53FA4F80818093BB009091A6
:1058D000E4058091E30529C0809107068093BB0011
:1058E00085EC8093BC0062CF9091290680912806B8
:1058F000981758F5E091290681E08E0F80932906CC
:10590000F0E0E85FF94F8081E9CFE091290681E07E
:105910008E0F809329068091BB00F0E0E85FF94F7D
:10592000808390912906809128069817C8F285E80F
:10593000D8CFE091290681E08E0F809329068091CF
:10594000BB00F0E0E85FF94F808380912B06811166
:105950005CCF81E08093060684EA8093BC001092BD
:105960002C0624CF85EC8093BC0010922C068091ED
:105970000506803230F4E0910506F0E0EB51FA4F75
:1059800010826091050670E0E0915406F091550692
:1059900085EE95E019951092050608CF10922A061B
:1059A00034CF10922F0810922E0888EE93E0A0E0DA
:1059B000B0E08093300890933108A0933208B09300
:1059C000330882E892E090932D0880932C0810927F
:1059D0002509109224092EE932E0309323092093FF
:1059E000220987E28093260990E190932B0982E0B7
:1059F00080932C0910922D09109219091092180900
:105A0000309317092093160921E220931A099093E5
:105A10001F0980932009109221091092A908109261
:105A2000AD081092AC081092AE0884E992E0909311
:105A3000A8088093A708E3ECF8E010821482138290
:105A40001582369688E0EF3FF807B9F78CE292E0CE
:105A500090930A098093090988E292E090930C09D7
:105A600080930B0984E080930D0980930E0986EBE7
:105A700092E090930809809307098AE090E0909360
:105A8000100980930F0984EF91E09093120980939D
:105A9000110910921509109214091092030910921D
:105AA0000409109205091092060910921309109228
:105AB0003A0810923E0810923D0810923F0884E97F
:105AC00092E09093390880933808E4E5F8E080E9A3
:105AD00098E0108214821382158236968E179F07E3
