:100000000C9458000C9480000C9480000C94800098
:100010000C9480000C9480000C9480000C94800060
:100020000C9480000C9480000C9480000C94800050
:100030000C9480000C9480000C9480000C94800040
:100040000C94D3030C9480000C9480000C948000DA
:100050000C9480000C9480000C9480000C94800020
:100060000C941D040C948000000000002500280062
:100070002B00040404040404040402020202020229
:10008000030303030303010204081020408001025C
:1000900004081020010204081020000000080002DB
:1000A00001000003040700000000000000003C0500
:1000B00011241FBECFEFD8E0DEBFCDBF11E0A0E01E
:1000C000B1E0EEE6FDE002C005900D92AC32B10762
:1000D000D9F722E0ACE2B1E001C01D92AA30B2072C
:1000E000E1F710E0C8E5D0E004C02197FE010E94CE
:1000F000AF06C735D107C9F70E945D050C94B50658
:100100000C94000008950895AF92BF92CF92DF92B1
:10011000EF92FF920F931F93CF93DF936C017B01BC
:100120008B01040F151FEB015E01AE18BF08C0174D
:10013000D10759F06991D601ED91FC910190F081C0
:10014000E02DC6010995892B79F7C501DF91CF9183
:100150001F910F91FF90EF90DF90CF90BF90AF90E5
:10016000089590E0FC01E656FF4F2491FC01EA5708
:10017000FF4F3491FC01EE58FF4FE491EE23C9F09C
:10018000222339F0233001F1A8F4213019F1223073
:1001900029F1F0E0EE0FFF1FE859FF4FA591B49150
:1001A0008FB7F894EC91611126C030953E233C93B3
:1001B0008FBF08952730A9F02830C9F0243049F7BF
:1001C000809180008F7D03C0809180008F77809325
:1001D0008000DFCF84B58F7784BDDBCF84B58F7D82
:1001E000FBCF8091B0008F778093B000D2CF809109
:1001F000B0008F7DF9CF3E2BDACF3FB7F8948091D6
:10020000910190919201A0919301B091940126B532
:10021000A89B05C02F3F19F00196A11DB11D3FBF3E
:10022000BA2FA92F982F8827BC01CD01620F711D0D
:10023000811D911D42E0660F771F881F991F4A9507
:10024000D1F708958F929F92AF92BF92CF92DF9293
:10025000EF92FF924B015C010E94FD006B017C015B
:100260000E94FD006C197D098E099F09683E73404C
:1002700081059105A8F321E0821A9108A108B1082F
:1002800088EEC80E83E0D81EE11CF11C8114910495
:10029000A104B10429F7FF90EF90DF90CF90BF90B9
:1002A000AF909F908F900895089520916D01260F33
:1002B0003327331F21323105ECF42091C501FC01B5
:1002C00090E080E0243069F082E00895A0916D0113
:1002D0002191AC01435B5E4FA40FB52FB11D2C9350
:1002E0000196861798F380916D01680F60936D01F8
:1002F00080E0089581E008951092C50181E0809327
:10030000C40110929F0161E082E10E94B10061E0AE
:1003100083E10E94B100E9EBF0E080818E7F808371
:1003200080818D7F808388E48093B80085E480930A
:10033000BC000895CF93DF9391E090934C01882304
:10034000B9F0C091B800D091BA008091BC008A7B0E
:100350008093BC0060E082E10E94B10060E083E134
:100360000E94B1000E947C01D093BA00C093B800F3
:10037000DF91CF910895CF92DF92EF92FF920F938A
:100380001F93CF93DF93D091EE0181E0D13208F03B
:100390009CC0C091ED010E94FD006B017C01809129
:1003A000C50181116CC082E08093C50181E080931A
:1003B000C4018FEF8093C3011092C201D093C10199
:1003C000ADECB1E0E1EAF1E080E0D8138DC010922D
:1003D000A0018091A001CC0FC82BC093A0018091F7
:1003E0009F01813009F084C010929F010E94FD009E
:1003F0006B017C018091A0018093BB008091C701BB
:100400009091C801A091C901B091CA01892B8A2B92
:100410008B2BA1F00E94FD000091C7011091C80133
:100420002091C9013091CA016C197D098E099F097B
:10043000061717072807390708F442C08091BC0047
:1004400083FDD8CF85EC8093BC000E94FD006B013A
:100450007C018091C501823009F44CC08091C301B8
:100460008F3F09F469C08091C301803209F466C0EE
:100470008091C301803309F463C084E026C0809179
:10048000C7019091C801A091C901B091CA01892BFF
:100490008A2B8B2B09F483CF0E94FD000091C701AA
:1004A0001091C8012091C9013091CA016C197D09D0
:1004B0008E099F09061717072807390708F06FCF1D
:1004C0008091C6010E949A0185E01092CC011092A1
:1004D000EE011092CB01DF91CF911F910F91FF9010
:1004E000EF90DF90CF9008959D9191938F5F6DCFA6
:1004F00085EEA9CF8091C7019091C801A091C90153
:10050000B091CA01892B8A2B8B2B09F4A2CF0E94B0
:10051000FD000091C7011091C8012091C9013091DF
:10052000CA016C197D098E099F090617170728074C
:10053000390708F08ECFC4CF80E0C7CF82E0C5CFA7
:1005400083E0C3CF0895E0919A0180919901E81763
:1005500030F4F0E0E45DFE4F808190E008958FEF8D
:100560009FEF089590919A01809199012FEF3FEFAD
:10057000981748F4E92FF0E0E45DFE4F208130E069
:100580009F5F90939A01C90108958091990190917C
:100590009A01891B990B0895CF92DF92EF92FF92F7
:1005A0000F931F93CF93DF937C01CB018A0120919E
:1005B000CB01222389F0EB016B01C40ED51ECC15B3
:1005C000DD0569F06991D701ED91FC910190F08111
:1005D000E02DC7010995F3CF642F0E945501C80192
:1005E000DF91CF911F910F91FF90EF90DF90CF900F
:1005F0000895CF93DF931F92CDB7DEB76983209123
:10060000CB012223F9F02091EE01203258F021E0B5
:1006100030E0FC013383228390E080E00F90DF9193
:10062000CF9108958091CC01E82FF0E0E353FE4F85
:10063000998190838F5F8093CC018093EE0181E05C
:1006400090E0ECCF61E0CE0101960E945501F7CF1A
:10065000CF93C62F9091060221E02093CB01909377
:10066000ED011092CC011092EE01682F8FEE91E017
:100670000E94F9026C2F8FEE91E00E94F902CF9157
:100680000C94BB01CF93DF93EB01FC01828591E0D9
:100690009093CB018093ED011092CC011092EE016A
:1006A00068818FEE91E00E94F90265E070E080E0E1
:1006B00090E00E94220169818FEE91E00E94F90290
:1006C00065E070E080E090E00E942201DF91CF9130
:1006D0000C94BB01CF93DF9300D01F92CDB7DEB750
:1006E0001B8290E899838A83BE016F5F7F4F8BEFF7
:1006F00091E00E9442030F900F900F90DF91CF91F5
:100700000895CF93DF9300D01F92CDB7DEB71B8241
:1007100020E429836A83BE016F5F7F4F0E944203FA
:1007200081E090E00F900F900F90DF91CF910895AE
:1007300090E080E0089585ED8093BC008091C70132
:100740009091C801A091C901B091CA010796A11D5D
:10075000B11D23E0B695A795979587952A95D1F772
:100760002091BC0024FD03C01092C5010895409162
:10077000C7015091C8016091C9017091CA01452B10
:10078000462B472B69F30097A105B10541F025E3FE
:100790002A95F1F700000197A109B109E1CF8091F5
:1007A000C6010C949A011F920F920FB60F9211245A
:1007B0002F933F938F939F93AF93BF9380919B0110
:1007C00090919C01A0919D01B0919E01309190016A
:1007D00023E0230F2D3758F50196A11DB11D20935D
:1007E000900180939B0190939C01A0939D01B093F5
:1007F0009E018091910190919201A0919301B091FD
:1008000094010196A11DB11D8093910190939201D5
:10081000A0939301B0939401BF91AF919F918F9159
:100820003F912F910F900FBE0F901F90189526E8C3
:10083000230F0296A11DB11DD2CF1F920F920FB6AA
:100840000F9211242F933F934F935F936F937F9356
:100850008F939F93AF93BF93EF93FF938091B900D2
:10086000887F803609F44AC0F0F5883209F4A7C0C1
:1008700018F5803109F49BC0B8F4882309F4F9C055
:10088000883009F494C0FF91EF91BF91AF919F918F
:100890008F917F916F915F914F913F912F910F9029
:1008A0000FBE0F901F901895883109F488C08032D0
:1008B00051F78093C30114C0803409F49DC040F403
:1008C0008033B9F38833F9F68093C30185ECB0C067
:1008D000803509F485C0883509F496C0883499F6C6
:1008E0000E949B03D0CF883909F48CC038F5883733
:1008F00029F050F4883611F0803729F683E0809390
:10090000C50110928F0157C0883809F47BC0803927
:1009100019F0803809F0B7CF80918F01803208F04C
:1009200071C0E0918F0181E08E0F80938F018091E3
:10093000BB00F0E0E159FE4F80833DC0803B39F0C1
:10094000E0F4803A09F479C0883A09F09CCF84E059
:100950008093C50110926E0110926D01E091970194
:10096000F0919801099580916D0181110FC081E08E
:1009700080936D0110924D0109C0803C09F4A6CF0F
:10098000883C09F4A3CF883B09F07DCFE0916E014C
:1009900081E08E0F80936E01F0E0E35BFE4F80817B
:1009A0008093BB0090916E0180916D0129C0809170
:1009B000A0018093BB0085EC8093BC0064CF909134
:1009C000C2018091C101981758F5E091C20181E000
:1009D0008E0F8093C201F0E0EF55FE4F8081E9CF8A
:1009E000E091C20181E08E0F8093C2018091BB0033
:1009F000F0E0EF55FE4F80839091C2018091C101DC
:100A00009817C8F285E8D8CFE091C20181E08E0F37
:100A10008093C2018091BB00F0E0EF55FE4F8083D0
:100A20008091C40181115CCF81E080939F0184EAB1
:100A30008093BC001092C50126CF85EC8093BC004A
:100A40001092C50180918F01803230F4E0918F01C6
:100A5000F0E0E159FE4F108260918F0170E0E0916B
:100A60009501F09196018FE691E0099510928F0122
:100A70000ACF1092C30134CFEFEEF1E0138212825D
:100A800088EE93E0A0E0B0E084839583A683B783EB
:100A900084E091E091838083EBEFF1E01382128296
:100AA00086E191E0918380838EE3828780E683876D
:100AB00080E1848782E085870895CF93DF93CDB767
:100AC000DEB7A1970FB6F894DEBF0FBECDBF789406
:100AD00084B5826084BD84B5816084BD85B5826043
:100AE00085BD85B5816085BD80916E0081608093F4
:100AF0006E0010928100809181008260809381005D
:100B0000809181008160809381008091800081606C
:100B1000809380008091B10084608093B1008091C7
:100B2000B00081608093B00080917A0084608093EF
:100B30007A0080917A00826080937A0080917A00B6
:100B4000816080937A0080917A00806880937A0037
:100B50001092C10010929A01109299011092CC014A
:100B60001092EE010E947C0182E890E0909398013F
:100B70008093970183E890E090939601809395018C
:100B80001092FF0180910802823018F098E0909353
:100B9000FF01809303021092040262E370E080E0A0
:100BA00090E00E9422018091FF0180620E946A030E
:100BB00065E070E080E090E00E9422018091FF01FA
:100BC00080620E946A0365E070E080E090E00E942D
:100BD00022018091FF0180620E946A0384E0809379
:100BE00000028CE00E946A0381E00E946A038BE3AA
:100BF0009FE10197F1F782E08093010286E00E9475
:100C00006A0360E080E00E9428036FEF88E00E94A2
:100C1000280360E281E00E9428036FEF84E00E94D5
:100C200028036FEF83E00E9428036FEF82E00E94A9
:100C300028036FEF84E00E94280360E083E00E94B5
:100C4000280360E082E00E9428034DE050E06EE15E
:100C500071E08BEF91E00E94840068EE73E080E029
:100C600090E00E94220180E8F82E90ECE92E28EE18
:100C7000822E23E0922EA12CB12C3AE0432E512C4F
:100C8000612C712C40E0C42E40E0D42E1B82F982EE
:100C9000EA82BE016F5F7F4F8BEF91E00E944203BB
:100CA0002FB7F89460919B0170919C0180919D01F8
:100CB00090919E012FBFA50194010E948D0619A25B
:100CC0008E010F5D1F4FCA01B901A30192010E945D
:100CD0008D06605DF80162938F0121153105410594
:100CE000510589F7309761F001900020E9F73197BD
:100CF000AF01401B510BB8018BEF91E00E948400C3
:100D000064E670E080E090E00E942201C114D1040A
:100D100009F4BCCF0E940000B9CFA1E21A2EAA1B91
:100D2000BB1BFD010DC0AA1FBB1FEE1FFF1FA2179B
:100D3000B307E407F50720F0A21BB30BE40BF50B98
:100D4000661F771F881F991F1A9469F76095709521
:100D5000809590959B01AC01BD01CF010895EE0FE8
:0E0D6000FF1F0590F491E02D0994F894FFCF49
:100D6E0000000000F902CC029803A202C502B202F2
:100D7E00A3020000000081038400980354016865FB
:0C0D8E006C6C6F2C20776F726C6421007D
:00000001FF
