:100000000C945C000C9479000C9479000C947900A9
:100010000C9479000C9479000C9479000C9479007C
:100020000C9479000C9479000C9479000C9479006C
:100030000C9479000C9479000C9479000C9479005C
:100040000C94A0000C9479000C9479000C94790025
:100050000C9479000C9479000C9479000C9479003C
:100060000C9479000C947900000000002400270013
:100070002A0000000000250028002B0004040404CE
:100080000404040402020202020203030303030342
:10009000010204081020408001020408102001021F
:1000A00004081020000000080002010000030407FB
:1000B000000000000000000011241FBECFEFD8E0B8
:1000C000DEBFCDBF11E0A0E0B1E0E4EAF3E002C0A2
:1000D00005900D92A230B107D9F721E0A2E0B1E07E
:1000E00001C01D92AB30B207E1F70E94EA000C9408
:1000F000D0010C9400003FB7F894809107019091D3
:100100000801A0910901B0910A0126B5A89B05C07C
:100110002F3F19F00196A11DB11D3FBFBA2FA92F86
:10012000982F8827BC01CD01620F711D811D911D83
:1001300042E0660F771F881F991F4A95D1F70895EF
:100140001F920F920FB60F9211242F933F938F930C
:100150009F93AF93BF938091030190910401A0916D
:100160000501B09106013091020123E0230F2D37E4
:1001700058F50196A11DB11D209302018093030142
:1001800090930401A0930501B093060180910701AB
:1001900090910801A0910901B0910A010196A11D59
:1001A000B11D8093070190930801A0930901B093BA
:1001B0000A01BF91AF919F918F913F912F910F9025
:1001C0000FBE0F901F90189526E8230F0296A11DD1
:1001D000B11DD2CF789484B5826084BD84B581602E
:1001E00084BD85B5826085BD85B5816085BD809102
:1001F0006E00816080936E0010928100809181007A
:100200008260809381008091810081608093810071
:10021000809180008160809380008091B100846033
:100220008093B1008091B00081608093B000809194
:100230007A00846080937A0080917A008260809353
:100240007A0080917A00816080937A0080917A00B0
:10025000806880937A001092C100C1E9D0E0FE016D
:1002600024910DE710E0F8018491882399F090E043
:10027000880F991FFC01E859FF4FA591B491FC012B
:10028000EE58FF4F859194918FB7F8949C91292B4C
:100290002C938FBF3324339425EA822E20E0922EB4
:1002A00030E0A32E30E0B32E2091000123252093CF
:1002B0000001F4019491FE018491F80134913323FB
:1002C000F1F0992359F0933009F450C008F043C07D
:1002D000913009F451C0923009F452C0E32FF0E09C
:1002E000EE0FFF1FEE58FF4FA591B4919FB7F89402
:1002F000211153C02C91809582238C939FBF0E9423
:100300007B002B013C018CE2C82EDD24D394E12C30
:10031000F12C0E947B006419750986099709683ED3
:10032000734081059105A8F3F1E0CF1AD108E108E7
:10033000F10828EE420E23E0521E611C711CC1140C
:10034000D104E104F10429F7A114B10409F4ACCFFC
:100350000E940000A9CF9730B1F09830D1F09430CE
:1003600009F0BCCF909180009F7D03C090918000E8
:100370009F7790938000B2CF94B59F7794BDAECF16
:1003800094B59F7DFBCF9091B0009F779093B00084
:10039000A5CF9091B0009F7DF9CF2C91822BADCF4E
:0403A000F894FFCFFF
:0203A400010056
:00000001FF
