:100000000C9488020C94B9020C94B9020C94B902B5
:100010000C94B9020C94B9020C94B9020C94B90274
:100020000C94B9020C94B9020C94B9020C94B90264
:100030000C94B9020C94B9020C94B9020C94B90254
:100040000C94B9020C94B9020C94B9020C94B90244
:100050000C94B9020C94B9020C94B9020C94F814E3
:100060000C94B9020C94B9020C94B9020C94B90224
:100070000C94B9020C94B9020C94B9020C94B90214
:100080000C94B9020C94B9020C94B9020C94B90204
:100090000C94B9020C94B9020C94B9020C94421558
:1000A0000C94B9020C94B9020C94B9020C94B902E4
:1000B0000C94B9020C94B9020C94B9020C94B902D4
:1000C0000C94B9020C94B9020C94B9020C94B902C4
:1000D0000C94B9020C94B9020C94B9020C94B902B4
:1000E0000C94B902036EDB363D9A9999993DABAAFF
:1000F000AA2A3E000000803F084AD73B3BCE016E53
:1001000084BCBFFDC12F3D6C74319ABD56833DDA6E
:100110003D00C77F11BED9E4BB4C3E916BAAAABE7D
:10012000000000803F07634236B79BD8A71A3968A2
:100130005618AEBAAB558C1D3CB7CC5763BD6DEDB0
:10014000FD753EF6177231BF000000803F072C7A24
:10015000A5BA6CC590DA3B9365FC8BBC53F810FDD7
:100160003C5692834DBD879D3AB63DCBC9BF5BBE21
:1001700073DA0FC93F05A84CCDB2D44EB93836A9B1
:10018000020C50B9918688083CA6AAAA2ABE000093
:1001900000803F08000000BE922449123EABAAAA8C
:1001A0002ABECDCCCC4C3E00000080BEABAAAAAA91
:1001B0003E00000000BF000000803F000000000083
:1001C000084178D3BB4387D1133D190E3CC3BD42D0
:1001D00082AD2B3E68EC8276BED98FE1A93E4C8081
:1001E000EFFFBE01C4FF7F3F0000000000028988CE
:1001F000083CABAAAA2A3E000000803F028988087A
:100200003EABAAAAAABE000000803F0664EC1B3CDD
:1002100004BC163E3BE5B93CC93C37C29E5A3D661C
:100220000498083EEA69AAAA3E000000803F0C94A8
:10023000F0070C9400080C941F040C9406030C9413
:10024000DF020C94EC190C9484090C94EE020C94CB
:10025000E3020C94FA040C940C030C94F6040C9432
:1002600066160C94F1070C94F2040C94D9020C94C9
:100270001A080C9410030C94EB020C9419030C94C0
:1002800047080C94FE020C9414030C940D040C9477
:10029000F4020C9420040C94F8020C9413080C94AF
:1002A000E7020C941E030C94D4080C941A030C94CB
:1002B00002030C940C044E414E494E495459494E88
:1002C00046CDCCCC3D0AD7233C17B7D13877CC2BC1
:1002D000329595E6241FB14F0A000020410000C866
:1002E0004200401C4620BCBE4CCA1B0E5AAEC59DE7
:1002F0007400407A10F35A00A0724E18090010A53D
:10030000D4E80000E87648170000E40B540200002F
:10031000CA9A3B000000E1F50500008096980000B5
:100320000040420F000000A08601000000102700DE
:10033000000000E803000000006400000000000A64
:1003400000000000000100000000002C76D888DCCE
:10035000674F0823DFC1DFAE59E1B1B796E5E3E4AB
:1003600053C63AE651997696E8E6C28426EB898C24
:100370009B62ED407C6FFCEFBC9C9F40F2BAA56F86
:10038000A5F490055A2AF75C936B6CF9676DC11B55
:10039000FCE0E40D47FEF520E6B500D0ED902E031D
:1003A00000943577050080841E080000204E0A0066
:1003B0000000C80C333333330F986E12831141EFB2
:1003C0008D2114893BE65516CFFEE6DB18D1844B10
:1003D000381BF77C1D901DA4BBE424203284725E80
:1003E000228100C9F124ECA1E53D27000021002471
:1003F0000027002A002D0030003300010100000416
:100400000107010A0100002200250028002B002E10
:10041000003100340002010000050108010B010059
:100420000020002300260029002C002F00320000AD
:10043000010000030106010901050505050705087E
:10044000080808020202020A0A0808040404040157
:100450000101010101010103030303030303030479
:100460000707070C0C0C0C0C0C0C0C020202020609
:10047000060606060606060B0B0B0B0B0B0B0B01F9
:1004800002102020080810204010204080020102A5
:10049000010804020101020408102040808040206D
:1004A00010080402018004020180402010080402A8
:1004B0000108040201010204081020408001020426
:1004C000081020408000000A0B02090C0D0E0807DE
:1004D0000304010000000000000000000000000014
:1004E000000000000000000000000000000000000C
:1004F00000121110000000000000000000000000C9
:100500000000000000000000000000006616EC196A
:1005100011241FBECFEFD1E2DEBFCDBF00E00CBF84
:1005200027E0A4E4B5E001C01D92AE32B207E1F7C6
:1005300015E0A0E0B2E0E6E5FCE400E00BBF02C09D
:1005400007900D92A434B107D9F712E0C7E8D2E0C2
:1005500000E006C021970109802FFE010E94FB23C5
:10056000C638D10780E00807A9F70E9444170C9409
:1005700019260C9400008150823108F05AC0E82FEF
:10058000F0E08827E953FD4F8F4F0C94FB23E702DF
:10059000EB02D902DF02E3021903EE02F402F802D1
:1005A000FE02020306030C031003190314031A03CB
:1005B0001E03809180008F77809380000895809142
:1005C00080008F7DF9CF80918000877FF5CF84B543
:1005D0008F7784BD089584B58F7DFBCF8091B00067
:1005E0008F778093B00008958091B0008F7DF9CF10
:1005F000809190008F778093900008958091900073
:100600008F7DF9CF80919000877FF5CF8091A000FA
:100610008F778093A00008958091A0008F7DF9CFFF
:100620008091A000877FF5CF809120018F77809304
:1006300020010895809120018F7DF9CF80912001C4
:10064000877FF5CFCF93DF93282F30E0F901EB536D
:10065000FB4F8491F901E158FB4FD491F901E75C1C
:10066000FB4FC491CC23A1F081110E94BB02EC2F5F
:10067000F0E0EE0FFF1FE15EFB4FA591B491EC910E
:10068000ED2381E090E009F480E0DF91CF910895BF
:1006900080E090E0FACF1F93CF93DF93282F30E0D4
:1006A000F901EB53FB4F8491F901E158FB4FD491D1
:1006B000F901E75CFB4FC491CC23A9F0162F8111FF
:1006C0000E94BB02EC2FF0E0EE0FFF1FEB5FFB4F31
:1006D000A591B4918FB7F894EC91111108C0D09501
:1006E000DE23DC938FBFDF91CF911F910895DE2B26
:1006F000F8CFCF93DF9390E0FC01E158FB4F2491BA
:10070000875C9B4FFC0184918823C9F090E0880F9F
:10071000991FFC01E551FC4FA591B491FC01EB5FE1
:10072000FB4FC591D49161110DC09FB7F8948C9186
:10073000209582238C938881282328839FBFDF9173
:10074000CF910895623051F49FB7F8943C91822F75
:10075000809583238C93E8812E2BEFCF8FB7F8946D
:10076000EC912E2B2C938FBFEACF3FB7F89480915A
:10077000C0059091C105A091C205B091C30526B5F1
:10078000A89B05C02F3F19F00196A11DB11D3FBFC9
:10079000BA2FA92F982F8827BC01CD01620F711D98
:1007A000811D911D42E0660F771F881F991F4A9592
:1007B000D1F708958F929F92AF92BF92CF92DF921E
:1007C000EF92FF924B015C010E94B5036B017C012B
:1007D0000E94B5036C197D098E099F09683E73401C
:1007E00081059105A8F321E0821A9108A108B108BA
:1007F00088EEC80E83E0D81EE11CF11C8114910420
:10080000A104B10429F7FF90EF90DF90CF90BF9043
:10081000AF909F908F90089508950895FC012481D2
:1008200035816217730748F480819181009729F020
:10083000860F971FFC018081089580E00895089538
:10084000AF92BF92CF92DF92EF92FF920F931F93DE
:10085000CF93DF936C017B018B01040F151FEB011C
:100860005E01AE18BF08C017D10759F06991D601D3
:10087000ED91FC910190F081E02DC6011995892B35
:1008800079F7C501DF91CF911F910F91FF90EF9004
:10089000DF90CF90BF90AF900895FB0144815581C8
:1008A000608171810C942004CF93DF93DC0126E0FA
:1008B000629FA00DB11D112490965C934E935F979B
:1008C00021E091962C939197FC01E359FF4F019001
:1008D000F081E02DEC01C459DF4F2881222341F043
:1008E000309719F0DC01662329F0DF91CF9108954C
:1008F0003097D9F35C968C91DF91CF911994CF9278
:10090000DF92EF92FF920F931F93CF93DF93FC013F
:1009100026E0629FE00DF11D112411A2278D30A168
:100920002130310559F188F02230310509F452C0E7
:100930002330310509F453C0DF91CF911F910F91FE
:10094000FF90EF90DF90CF9008954423A9F3EC013E
:1009500041E050E00E9454042FB7F8948091BC0508
:100960009091BD05A091BE05B091BF052FBFC85A9B
:10097000DF4F88839983AA83BB83DECF2FB7F89498
:10098000C090BC05D090BD05E090BE05F090BF05BD
:100990002FBFFC01E85AFF4F008111812281338172
:1009A000C01AD10AE20AF30A72960081118130E07E
:1009B00020E00C151D052E053F0560F442E050E0D7
:1009C000DF91CF911F910F91FF90EF90DF90CF902B
:1009D0000C9454044111B0CF43E050E0F1CF50E00B
:1009E00040E0EECF862F642F0C947903862F642F7E
:1009F0000C944B03862F0C9422032F923F924F921C
:100A00005F926F927F928F929F92AF92BF92CF929E
:100A1000DF92EF92FF920F931F93CF93DF93CDB7A7
:100A2000DEB72C970FB6F894DEBF0FBECDBF9C018A
:100A300024593F4F3A83298321E0A981BA812C931D
:100A40004FB7F8940091BC051091BD052091BE05EB
:100A50003091BF054FBFFC01E45AFF4FFC83EB838D
:100A60004081518162817381041B150B260B370B6A
:100A70003C964081518170E060E040175107620769
:100A8000730708F059C19C878B8710E06C01F6E66C
:100A9000CF0ED11C7C0122E6E20EF11CD6018C9116
:100AA000181758F4D701ED91FC91E10FF11D62E0A8
:100AB00080810E9479031F5FF1CF312C4B845C84CD
:100AC000B7E64B0E511CEB84FC84E4E6EE0EF11C01
:100AD000812C912C540183942B853C852E593F4FBA
:100AE0003A872987D2018C91381608F063C0032D0C
:100AF00010E0D701ED91FC91E00FF11F61E08081E2
:100B00000E947903D701ED91FC91E00FF11F60E0A5
:100B100080810E944B03D501C401032C04C0880FBF
:100B2000991FAA1FBB1F0A94D2F79E838D83FC01D5
:100B3000E095F095F887EF83212CD6018C9128164B
:100B400020F5622C712CA985BA85ED91FC91E60DFA
:100B5000F71D80810E942203660C771CEB85FC85C3
:100B6000E60DF71D892B51F4808591852D813E81FD
:100B7000822B932B918780872394DFCF808591856B
:100B80004F81588584239523F5CFD701ED91FC91B2
:100B9000E00FF11F61E080810E944B03F70180812B
:100BA0009181080F191F60E0D8018C910E94790390
:100BB000339498CF0B851C85C801CC9678012FEF14
:100BC0003FEFF701478D50A1452B21F4148E368F4E
:100BD000258F11A2F6E0EF0EF11CE816F90689F751
:100BE000912CAB84BC8420E6A20EB11C96E0392E79
:100BF000D6018C91981608F059C0812C692C712C63
:100C0000B4E06B0E711C660C771CEB85FC856E0ED8
:100C10007F1ED2018C91881608F046C0F3014081F6
:100C20005181082C02C0569547950A94E2F7989E88
:100C3000C0011124880D911DEB85FC8560E0258D98
:100C4000368D8217930709F47CC06F5F36966A3041
:100C5000B1F740FF27C0EB85FC8570E060E0248D94
:100C600021111AC0D501ED91FC91E80FF91F2081E7
:100C7000369EF001379EF00D11244B855C85E40F04
:100C8000F51F248F968F858F10A2178E41E08B85DC
:100C90009C850E947F0406C06F5F7F4F36966A3046
:100CA0007105E9F68394B5CF9394A2CF80E0D80183
:100CB00091969C919111892F0A5F1F4FE016F106C2
:100CC000B1F79FB7F8944091BC055091BD05609174
:100CD000BE057091BF059FBFEB81FC8140835183AE
:100CE00062837383882341F1AB85BC8591968C9197
:100CF0009197882309F15F968D919C919097019728
:100D0000D9F45C968C912C960FB6F894DEBF0FBE8A
:100D1000CDBFDF91CF911F910F91FF90EF90DF90AA
:100D2000CF90BF90AF909F908F907F906F905F908B
:100D30004F903F902F900895E981FA81108280E0D2
:100D4000E2CF4170A4CF20918705260F3327331FB0
:100D500021323105ECF42091EA05FC0190E080E0BD
:100D6000243069F082E00895A09187052191AC01BB
:100D700049595A4FA40FB52FB11D2C9301968617D0
:100D800098F380918705680F6093870580E0089548
:100D900081E008951092EA0581E08093E9051092C0
:100DA000C40561E084E10E944B0361E085E10E949B
:100DB0004B03E9EBF0E080818E7F808380818D7F23
:100DC000808388E48093B80085E48093BC00089514
:100DD000CF93DF9391E0909366058823B9F0C0919B
:100DE000B800D091BA008091BC008A7B8093BC008F
:100DF00060E084E10E944B0360E085E10E944B03C8
:100E00000E94CA06D093BA00C093B800DF91CF9178
:100E10000895CF92DF92EF92FF920F931F93CF939B
:100E2000DF93D091130681E0D13208F09CC0C091CD
:100E300012060E94B5036B017C018091EA058111C5
:100E40006CC082E08093EA0581E08093E9058FEF32
:100E50008093E8051092E705D093E605A2EFB5E090
:100E6000E6ECF5E080E0D8138DC01092C5058091C6
:100E7000C505CC0FC82BC093C5058091C405813032
:100E800009F084C01092C4050E94B5036B017C0177
:100E90008091C5058093BB008091EC059091ED0594
:100EA000A091EE05B091EF05892B8A2B8B2BA1F039
:100EB0000E94B5030091EC051091ED052091EE051F
:100EC0003091EF056C197D098E099F0906171707E8
:100ED0002807390708F442C08091BC0083FDD8CFB1
:100EE00085EC8093BC000E94B5036B017C0180916E
:100EF000EA05823009F44CC08091E8058F3F09F47F
:100F000069C08091E805803209F466C08091E805E7
:100F1000803309F463C084E026C08091EC05909191
:100F2000ED05A091EE05B091EF05892B8A2B8B2B57
:100F300009F483CF0E94B5030091EC051091ED05F3
:100F40002091EE053091EF056C197D098E099F09FE
:100F5000061717072807390708F06FCF8091EB05B0
:100F60000E94E80685E01092F10510921306109297
:100F7000F005DF91CF911F910F91FF90EF90DF90DF
:100F8000CF9008959D9191938F5F6DCF85EEA9CFFE
:100F90008091EC059091ED05A091EE05B091EF05E3
:100FA000892B8A2B8B2B09F4A2CF0E94B5030091C9
:100FB000EC051091ED052091EE053091EF056C19CF
:100FC0007D098E099F09061717072807390708F0BA
:100FD0008ECFC4CF80E0C7CF82E0C5CF83E0C3CF40
:100FE0000895E091AF058091AE05E81730F4F0E088
:100FF000EA5BFA4F808190E008958FEF9FEF0895AC
:101000009091AF058091AE052FEF3FEF981748F410
:10101000E92FF0E0EA5BFA4F208130E09F5F909388
:10102000AF05C90108958091AE059091AF05891B68
:10103000990B0895CF92DF92EF92FF920F931F9337
:10104000CF93DF937C01CB018A012091F00522230D
:1010500089F0EB016B01C40ED51ECC15DD0569F0DE
:101060006991D701ED91FC910190F081E02DC701CC
:101070001995F3CF642F0E94A306C801DF91CF9189
:101080001F910F91FF90EF90DF90CF900895CF9335
:10109000DF931F92CDB7DEB769832091F00522233D
:1010A000F9F020911306203258F021E030E0FC01E5
:1010B0003383228390E080E00F90DF91CF910895F9
:1010C0008091F105E82FF0E0EE50FA4F998190837E
:1010D0008F5F8093F1058093130681E090E0ECCF61
:1010E00061E0CE0101960E94A306F7CFCF93DF9374
:1010F000EB01FC01828591E09093F005809312064C
:101100001092F10510921306688184E196E00E9426
:10111000470865E070E080E090E00E94DA036981B2
:1011200084E196E00E94470865E070E080E090E08E
:101130000E94DA03DF91CF910C940907CF93DF93DC
:1011400000D0CDB7DEB79C0190EC611101C090E8F2
:101150001B8280E889839A83BE016F5F7F4FC9013C
:101160000E9476080F900F900F90DF91CF91089515
:10117000CF93DF9300D0CDB7DEB71B8220E8298361
:101180006A83BE016F5F7F4F0E9476080F900F90B9
:101190000F90DF91CF91089561E00E94B8088BE332
:1011A0009FE10197F1F70895CF93DF9300D0CDB77A
:1011B000DEB71B8220E429836A83BE016F5F7F4F05
:1011C0000E94760881E090E00F900F900F90DF91E1
:1011D000CF910895CF93C42FFC01838591E0909324
:1011E000F005809312061092F1051092130684E127
:1011F00096E00E9447086C2F84E196E00E94470821
:10120000CF910C9409070F931F93CF93DF93EC01B9
:10121000042F122F462F64E00E94EA08402F63E05B
:10122000CE010E94EA08412F62E0CE01DF91CF910A
:101230001F910F910C94EA08CF93DF93EC01109269
:10124000AF051092AE051092F105109213060E94A0
:10125000CA068CE094E09093AD058093AC058DE0D8
:1012600094E09093AB058093AA051C828D85823013
:1012700010F098E09C838887198662E370E080E034
:1012800090E00E94DA036C816062CE010E94B8088F
:1012900065E070E080E090E00E94DA036C816062BB
:1012A000CE010E94B80865E070E080E090E00E9406
:1012B000DA036C816062CE010E94B80884E08D83FD
:1012C0006CE0CE010E94B808CE010E94CC0882E0FA
:1012D0008E8366E0CE010E94B80840E060E0CE0157
:1012E0000E94EA084FEF68E0CE010E94EA0840E25F
:1012F00061E0CE010E94EA082FEF4FEF6FEFCE01C1
:10130000DF91CF910C94030990E080E008958091E3
:10131000B0059091B10501969093B1058093B00509
:1013200008956091B0057091B10580912406909167
:1013300025066817790720F480E296E00C940E04E5
:1013400080E00895CF93DF93EC0188819981009725
:1013500011F00E949F24198218821D821C821B8218
:101360001A82DF91CF910895FC01808191810097CD
:1013700011F00C949F240895FB0101900020E9F7DF
:101380003197AF01461B570B0C9420040F931F930A
:10139000CF93DF93EC0188819981009759F02A81DE
:1013A0003B812617370730F081E0DF91CF911F9105
:1013B0000F9108958B016F5F7F4F0E942825009742
:1013C00059F0998388831B830A832C813D81232BC9
:1013D00059F7FC011082E8CF80E0E7CFEF92FF924F
:1013E0000F931F93CF93DF936115710541F480E054
:1013F000DF91CF911F910F91FF90EF9008954115CC
:101400005105B1F07B01EC010C811D81040F151F0A
:10141000B8010E94C609882351F3288139818C8143
:101420009D81B701820F931F0E9412261D830C839A
:1014300081E0DECFCF93DF93EC01FB010190002030
:10144000E9F73197AF01461B570B0E94EE09811156
:1014500003C0CE010E94A209CE01DF91CF91089571
:10146000CF93DF93EC01FB01448155816081718151
:101470000E94EE09811103C0CE010E94A209CE0193
:10148000DF91CF910895FB0101900020E9F731979A
:10149000AF01461B570B0C94EE09EF92FF920F938E
:1014A0001F93CF93DF93EC017B018A01BA010E9465
:1014B000C60981110BC0CE010E94A209CE01DF91A5
:1014C000CF911F910F91FF90EF9008951D830C8392
:1014D000B701888199810E941226F0CFFB0101900B
:1014E0000020E9F73197AF01461B570B0C944D0ACA
:1014F000CF93DF93EC016115710531F00E946E0A04
:10150000CE01DF91CF9108950E94A209F9CFCF9328
:10151000DF93EC01FB018617970749F06081718129
:101520006115710541F0448155810E944D0ACE013B
:10153000DF91CF9108950E94A209F9CFFC01118299
:10154000108213821282158214820C94870AFC0185
:10155000118210821382128215821482FB01019083
:101560000020E9F73197AF01461B570B0C944D0A49
:10157000AF92BF92CF92DF92EF92FF920F931F93A1
:10158000CF93DF935C016B017A0189012417350742
:1015900020F48F2D7901042F182F6CE872E0C5011B
:1015A0000E94A70AD6011496CD91DC91EC16FD0697
:1015B000C8F40C171D0708F4E801D601ED91FC9161
:1015C0001197EC0FFD1F108110826D917C916E0DB3
:1015D0007F1DC5010E94780AF60180819181C80FA4
:1015E000D91F1883C501DF91CF911F910F91FF90F3
:1015F000EF90DF90CF90BF90AF900895EF92FF9261
:101600000F931F93CF93DF9300D000D0CDB7DEB7F9
:101610007C018B018CE296E00E94CC0860E08CE2B9
:1016200096E00E949E0820E130E050E040E0B701E3
:10163000CE0101960E94B80ABE016F5F7F4F8CE217
:1016400096E00E944D04CE0101960E94B409F80173
:1016500084819581892BC9F061E08CE296E00E943B
:101660009E0820E130E050E040E0B801CE01019654
:101670000E94B80ABE016F5F7F4F8CE296E00E9425
:101680004D04CE0101960E94B40926960FB6F89437
:10169000DEBF0FBECDBFDF91CF911F910F91FF90A5
:1016A000EF9008950F931F93CF93DF9300D000D056
:1016B000CDB7DEB78C0181E08093BA056CE872E0AB
:1016C00086E296E00E946E0A1092B8051092B70565
:1016D0008BE396E00E94CC0822E342E36FEF8BE3BA
:1016E00096E00E94030960E08BE396E00E949E086A
:1016F0006EE572E08BE396E00E94BC0961E08BE34B
:1017000096E00E949E0820E130E050E040E0B80101
:10171000CE0101960E94B80ABE016F5F7F4F8BE336
:1017200096E00E944D04CE0101960E94B4098CE21D
:1017300096E00E94CC0860E08CE296E00E949E0851
:1017400020E130E050E040E0B801CE0101960E9477
:10175000B80ABE016F5F7F4F8CE296E00E944D0495
:10176000CE0101960E94B40961E08CE296E00E94ED
:101770009E086DE672E08CE296E00E94BC0964EF80
:1017800071E080E090E00E94DA032FEF4FEF6FEFFF
:101790008BE396E00E94030926960FB6F894DEBF0D
:1017A0000FBECDBFDF91CF911F910F9108951F9371
:1017B000CF93DF93CDB7DEB72C970FB6F894DEBF8B
:1017C0000FBECDBF8BE396E00E94CC0860E08BE3B8
:1017D00096E00E949E0820912A0630912B06213126
:1017E000310508F05DC066E276E0CE0101960E9408
:1017F0009E0ABE016F5F7F4F8BE396E00E944D040F
:1018000061E08BE396E00E949E086BE772E0CE01F8
:1018100007960E94A70A809144059091450569E7C3
:1018200072E0892B11F462EB72E0CE0107960E9400
:10183000430A6AEF73E0CE0107960E94430A1091B3
:10184000B805112331F06DE772E0CE0107960E94D2
:10185000430A8091B70561E872E0811104C011115B
:1018600006C065E872E0CE0107960E94430ABE01F9
:10187000695F7F4F8BE396E00E944D04CE0107968F
:101880000E94B409CE0101960E94B4092C960FB6AD
:10189000F894DEBF0FBECDBFDF91CF911F910895A9
:1018A000A9014051510966E276E0CE0101960E94FD
:1018B000B80A9FCF85ED8093BC008091EC05909194
:1018C000ED05A091EE05B091EF050796A11DB11DA4
:1018D00023E0B695A795979587952A95D1F72091FE
:1018E000BC0024FD03C01092EA0508954091EC0568
:1018F0005091ED056091EE057091EF05452B462B5B
:10190000472B69F30097A105B10541F02AE22A951A
:10191000F1F700C00197A109B109E1CF8091EB0572
:101920000C94E8064F925F926F927F92AF92BF92B3
:10193000CF92DF92EF92FF920F931F93CF93DF939B
:10194000CDB7DEB7E9970FB6F894DEBF0FBECDBFB7
:101950005C016A017B01AB019601CB01B6010E94DB
:10196000E12367E972E0811125C026013701E8947F
:1019700077F82FEF3FEF4FE75FE7C301B2010E9417
:10198000E123811130C02FEF3FEF4FE75FE7C30145
:10199000B2010E944C1E181634F520E030E0A90177
:1019A000C701B6010E94ED216DE872E0181614F02F
:1019B00062E972E0C5010E94A70AC501E9960FB667
:1019C000F894DEBF0FBECDBFDF91CF911F910F9175
:1019D000FF90EF90DF90CF90BF90AF907F906F908F
:1019E0005F904F900895C701B6010E941D212B0101
:1019F0003C010E94531EA70196010E944C1E8111BA
:101A000033C020E030E0A901C701B6010E94ED21FA
:101A1000181604F529EF32E045E150E5C701B6019B
:101A20000E944C1E87FF29C0F5011182108213828B
:101A30001282158214822AE0AE014F5F5F4FC3010C
:101A4000B2010E94211ABE016F5F7F4FC5010E9443
:101A50006E0AB3CF29EF32E045E150EDC701B60180
:101A60000E94ED21181604F320E030E0A901C7011F
:101A7000B6010E94ED211816ACF520E034E244E7EF
:101A800059E4C701B6010E94ED2187FD49C01DAA96
:101A90001CAA1FAA1EAA19AE18AE8E010F5F1F4FF7
:101AA00024E046E0C701B6010E94F419BC01CE0152
:101AB000C4960E94780ABE016C5C7F4FC8010E94E8
:101AC0009E0A6BE972E0C8010E941A0ABC01C501B6
:101AD0000E949E0AC8010E94B409CE01C4960E94C9
:101AE000B4096BCF20E034E244E759ECC701B601FA
:101AF0000E944C1E18165CF62FE632E143E85AEBC2
:101B0000C701B6010E94ED211816A4F420E030E0D0
:101B1000A901C701B6010E944C1E882359F0B7CF16
:101B20002FE632E143E85AE3C701B6010E944C1E9A
:101B300087FDADCFF50111821082138212821582CA
:101B400014828E010F5F1F4F26E048E0C701B601E7
:101B50000E94F419BC01C5010E94780A2ECFCF92D1
:101B6000DF92EF92FF920F931F93CF93DF93CDB746
:101B7000DEB762970FB6F894DEBF0FBECDBF6B0124
:101B80007C018A018BE396E00E94CC0860E08BE345
:101B900096E00E949E08F8012481358121313105AB
:101BA00008F092C0B801CE0101960E949E0ABE01C3
:101BB0006F5F7F4F8BE396E00E944D04CE0101964C
:101BC0000E94B40961E08BE396E00E949E08B70191
:101BD000A601CE0107960E94920C6DE972E0CE013B
:101BE00001960E94A70ABE01695F7F4FCE01019650
:101BF0000E94300ABC01CE010D960E949E0ACE01C1
:101C000001960E94B409CE0107960E94B40920E112
:101C100030E050E040E0BE01635F7F4FCE010196AF
:101C20000E94B80ABE016F5F7F4F8BE396E00E946F
:101C30004D04CE0101960E94B4098CE296E00E9408
:101C4000CC0860E08CE296E00E949E086FE972E0AA
:101C50008CE296E00E94BC0961E08CE296E00E9472
:101C60009E08B701A601CE0101960E94920C20E1C8
:101C700030E050E040E0BE016F5F7F4FCE0107963D
:101C80000E94B80ABE01695F7F4F8CE296E00E9415
:101C90004D04CE0107960E94B409CE0101960E9420
:101CA000B409CE010D960E94B40962960FB6F8945D
:101CB000DEBF0FBECDBFDF91CF911F910F91FF907F
:101CC000EF90DF90CF900895A90140515109B801DC
:101CD000CE0101960E94B80A6ACFCF92DF92EF92AE
:101CE000FF920E9491098D32E1F40E9487090E94BF
:101CF000240F6B017C01F7FAF094F7F8F0940E943E
:101D000091098E35B9F40E9487090E946D0E9B01DE
:101D1000AC01C701B601FF90EF90DF90CF900C941B
:101D2000C0228B3211F40E9487090E94240F6B019C
:101D30007C01E5CFC701B601FF90EF90DF90CF9017
:101D400008958F929F92AF92BF92CF92DF92EF92BF
:101D5000FF920E946D0E6B017C012091B0053091C5
:101D6000B10580912406909125062817390720F5A2
:101D70000E9491098A3259F40E9487090E946D0ECF
:101D80009B01AC01C701B6010E94B21EE4CF8F32A5
:101D900099F40E9487090E946D0E4B015C0120E0BE
:101DA00030E0A9010E944C1E811111C081E0809396
:101DB000B205C12CD12C7601C701B601FF90EF907E
:101DC000DF90CF90BF90AF909F908F900895A50126
:101DD0009401C701B6010E947120BDCFCF92DF925E
:101DE000EF92FF920E94A10E6B017C012091B00541
:101DF0003091B10580912406909125062817390766
:101E0000E0F40E9491098B3259F40E9487090E94E4
:101E1000A10E9B01AC01C701B6010E949F1FE4CF38
:101E20008D3259F40E9487090E94A10E9B01AC01DA
:101E3000C701B6010E949E1FD7CFC701B601FF9010
:101E4000EF90DF90CF9008954F925F926F927F92C4
:101E50008F929F92AF92BF92CF92DF92EF92FF92BA
:101E6000CF93DF930E9491098832E9F40E94870999
:101E70000E94EE0E6B017C010E949109893211F4DF
:101E80000E948709C701B601DF91CF91FF90EF90C3
:101E9000DF90CF90BF90AF909F908F907F906F908A
:101EA0005F904F900895D0E08DEC882E8CEC982EAA
:101EB000A92C8DE3B82EC0E0C12CD12C7601209145
:101EC000B0053091B1058091240690912506281720
:101ED000390708F049C00E949109682F80ED860FEC
:101EE0008A30D0F5062E000C770B60537109072E4F
:101EF000000C880B990B0E94531E2B013C01CC2334
:101F0000E1F0AC019B01C501B4010E94B21E9B012E
:101F1000AC01C701B6010E949F1F6B017C012DEC33
:101F20003CEC4CEC5DE3C501B4010E94B21E4B01D8
:101F30005C010E948709D1E0C2CF20E030E040E29E
:101F400051E4C701B6010E94B21EA30192010E9492
:101F50009F1F6B017C01EDCF6E3231F4C11104C0C3
:101F60000E948709C1E0ABCFD1118CCF81E0809373
:101F7000B20588CF4F925F926F927F928F929F921D
:101F8000AF92BF92CF92DF92EF92FF920F931F9387
:101F9000CF93DF93CDB7DEB7A4970FB6F894DEBF2B
:101FA0000FBECDBFD82E8DE4D8125EC080914405FF
:101FB0009091450521E030E0009711F030E020E0FD
:101FC00030934505209344051092B8051092B7054B
:101FD0006CEA72E0892B11F460EB72E0CE01499655
:101FE0000E94A70A66E073E0CE010D960E94A70A40
:101FF000BE01675E7F4FCE010D960E94300ABC0184
:10200000CE0143960E949E0A61E173E0CE010196E3
:102010000E94A70ABE01675E7F4FCE0101960E9413
:10202000300ABC01CE0107960E949E0ABE016D5E79
:102030007F4FCE0107960E94FE0ACE0107960E94AE
:10204000B409CE0101960E94B409CE0143960E94C4
:10205000B409CE010D960E94B4090E94D70BCE019F
:1020600049960E94B40930C083E5D81244C010914B
:10207000B80581E018271093B80562EC72E01123CF
:1020800021F01092B70564EB72E0CE0107960E9432
:10209000A70A69EC72E0111102C067ED72E0CE018F
:1020A00001960E94A70ABE01695F7F4FCE0101968B
:1020B0000E94FE0ACE0101960E94B409CE01079645
:1020C0000E94B4090E94D70BA4960FB6F894DEBF05
:1020D0000FBECDBFDF91CF911F910F91FF90EF9079
:1020E000DF90CF90BF90AF909F908F907F906F9038
:1020F0005F904F90089588E6D81219C01091B705E7
:1021000081E018271093B70562EC72E0112321F0EB
:102110001092B80562EE72E0CE0107960E94A70AFF
:1021200061EF72E01111BBCF6DEF72E0B8CF81E4C7
:10213000D81260C08091B905882341F06CE872E044
:1021400086E296E00E946E0A1092B9054091B305AE
:102150005091B4056091B5057091B605CE01019618
:102160000E94920C4D815E8169817A8186E296E0BF
:102170000E94EE09CE0101960E94B4090E94D70B7D
:102180004091B3055091B4056091B5057091B605C5
:10219000CE010D960E94920C6DE972E0CE01079679
:1021A0000E94A70ABE01635F7F4FCE0107960E947F
:1021B000300ABC01CE0143960E949E0A68E173E09A
:1021C000CE0101960E94A70ABE016D5E7F4FCE012F
:1021D00001960E94FE0ACE0101960E94B409CE012A
:1021E00043960E94B409CE0107960E94B409CE011D
:1021F0000D9637CF8EE2D8121BC08091B905882387
:1022000041F06CE872E086E296E00E946E0A10925D
:10221000B90580912A0690912B068034910508F02B
:1022200053CF6FEE72E086E296E00E94430A4ACFF7
:1022300088E2D81236C08091B905882341F06CE855
:1022400072E086E296E00E946E0A1092B9058091D3
:102250002A0690912B068034910508F035CF63E271
:1022600073E086E296E00E94430A0E94D70B65E283
:1022700073E0CE0107960E94A70A67E373E0CE01E0
:1022800001960E94A70ABE01695F7F4FCE010196A9
:102290000E94FE0ACE0101960E94B409CE01079663
:1022A000E0CE89E2D81219C080912A0690912B06BF
:1022B0008034910508F008CF60E473E086E296E090
:1022C0000E94430A0E94D70B62E473E0CE01079696
:1022D0000E94A70A64E573E0D2CF8EE5D81225C02C
:1022E0008091B905882341F06CE872E086E296E0BF
:1022F0000E946E0A1092B90580912A0690912B06D1
:102300008034910508F0E0CE65E773E086E296E060
:102310000E94430A0E94D70B6DE573E0CE01079639
:102320000E94A70A6BE673E0AACF8CE3D8121EC006
:1023300080912A0690912B06009709F4C5CE01974B
:10234000E0912606F0912706E80FF91F90932B06DF
:1023500080932A0610820E94D70B67E773E0CE01B4
:1023600007960E94A70A67E873E089CF8EE3D81228
:1023700015C06CE872E086E296E00E946E0A109248
:10238000BA051092B9050E94D70B6CE872E0CE0135
:1023900007960E94A70A66E973E071CF8091B9059C
:1023A000811107C0E0902A06F0902B06E114F10499
:1023B000A1F5E090B305F090B4050091B50510913A
:1023C000B6056CE872E0CE0143960E94A70AC09061
:1023D000B705B090B8052BED3FE049E450E4B701F4
:1023E000C8010E94B21E20E030E044E353E40E94A2
:1023F00071202B013C018CE6D81609F4BCC28D1566
:102400000CF462C081E5D81609F476C084E6D816CB
:1024100009F420C1CE01439624CE87010150110951
:1024200017FD3DC0B80186E296E00E940E04982F89
:102430009D7F9D3241F096ED980F923020F08E35C1
:1024400011F0883259F7A8014F5F5F4F970166E29C
:1024500076E0CE0101960E94B80A8D819E81892B7B
:1024600009F562EA73E0CE010D960E94A70A64EBBB
:1024700073E0CE0107960E94A70ABE01635F7F4FFB
:10248000CE0107960E94FE0ACE0107960E94B4096B
:10249000CE010D960E94B409CE010196E2CD0FEF58
:1024A0001FEFD1CF89819A81009749F00E94121ABB
:1024B0007B018C01CE0101960E94B40982CFE12CF0
:1024C000F12C00E010E0F6CF83E7D816E1F184E7C5
:1024D000D81609F424C18EE6D8129CCFBB2009F48B
:1024E00072C269E774E0CE0143960E946E0AB7019A
:1024F000C8010E94EB2024C0BB2069F065EC73E0AA
:10250000CE0143960E946E0A9701A801B701C80147
:102510000E94B21E15C069EC73E0CE0143960E9482
:102520006E0A20E030E0A901B701C8010E944C1EEC
:102530006EEC73E087FD52C0B701C8010E944423CE
:102540004B015C014EC1CC2051F1BB20E9F06CED98
:1025500073E0CE0143960E946E0A9701A801B7016D
:10256000C8010E94B21E20E030E040E85FE30E9414
:102570009F1F0E9444239B01AC01B701C8010E9428
:102580009F1F0E944422DCCF6DED73E0CE01439685
:102590000E946E0AB701C8010E941023D1CFBB2050
:1025A00009F445C062EE73E0CE0143960E946E0AC4
:1025B00020E030E040E85FEBB701C8010E944C1E0C
:1025C00087FD0AC020E030E040E85FE3B701C801C2
:1025D0000E94ED2118167CF469EE73E0CE0101969D
:1025E0000E94A70ACE0101960E94520BCE010196CD
:1025F0000E94B4090FCFB701C8010E940B204B0104
:102600005C018091440590914505892B09F0E9C052
:1026100020E030E044E353E4C501B4010E94B21E5F
:102620002BED3FE049E450E40E94712089CF65EE34
:1026300073E0CE0143960E946E0A8091440590910A
:102640004505892B11F027013801B201C3010E9411
:10265000362376CFCC2061F1BB20F9F06CEF73E02C
:10266000CE0143960E946E0A20E030E040E85FE32E
:10267000B701C8010E944C1E62E074E087FDAECF36
:102680009701A801B701C8010E94B21E20E030E006
:1026900040E85FE30E949E1F6CCF6DEF73E0CE01B8
:1026A00043960E946E0AB701C8010E94552048CF88
:1026B000BB2011F165E174E0CE0143960E946E0AE1
:1026C00020E030E040E85FEBB701C8010E944C1EFB
:1026D00087FD0AC020E030E040E85FE3B701C801B1
:1026E0000E94ED2118161CF46CE174E077CFB7015D
:1026F000C8010E948D1F83CF68E174E0CE0143962C
:102700000E946E0A8091440590914505892B11F035
:1027100027013801B201C3010E946C2011CFCC20E7
:1027200009F449C0BB20E1F16FE274E0CE014396A9
:102730000E946E0A20E030E040E85FEBB701C8017C
:102740000E944C1E181654F420E030E040E85FE38D
:10275000B701C8010E94ED2187FD03C065E374E065
:102760003DCF20E030E040E85FE3B701C8010E94C0
:102770009F1F4B015C019701A80160E070E080E8B9
:102780009FE30E949E1F9B01AC01C501B4010E9402
:1027900071200E94442220E030E040E05FE3B8CEA8
:1027A00060E374E0CE0143960E946E0AB701C8014F
:1027B0000E948823C5CEC0904405D0904505BB201B
:1027C00009F4A4C069E474E0CE0143960E946E0A45
:1027D000B701C8010E9426204B015C01CD2809F4F5
:1027E00017CF8092B3059092B405A092B505B09230
:1027F000B60581E08093B9051092B8051092B7052F
:10280000B501A401CE0149960E94920C66E276E0E1
:10281000CE014F960E949E0ABE01675E7F4F86E200
:1028200096E00E94870AA701B801CE0107960E9490
:10283000920CBE016D5E7F4FCE0101960E949E0AF2
:1028400063E273E0CE0101960E941A0ABE01695F3D
:102850007F4F0E94300A60E473E00E941A0ABC01B4
:10286000CE010D960E949E0AAE01435F5F4FC501E7
:10287000B4010E94AF0DCE010D960E94B409CE01A5
:1028800001960E94B409CE0107960E94B409809176
:102890004405909145056CEA72E0892B11F060EBDC
:1028A00072E0CE010D960E94A70ABE016D5E7F4FB9
:1028B000CE0101960E949E0A6DE972E0CE0101965A
:1028C0000E941A0ABE01675E7F4F0E94300ABC0157
:1028D000CE0107960E949E0ABE01635F7F4FCE0124
:1028E00007960E94FE0ACE0107960E94B409CE0107
:1028F00001960E94B409CE010D960E94B409CE0142
:102900004F960E94B409CE01499672CE6CE474E0F1
:10291000CE0143960E946E0ACD2811F0270138019E
:10292000B201C3010E94BC234B015C01B201C3018F
:102930000E946C202B013C0120E030E0A9010E94A4
:10294000ED2118166CF42FEF36EE4BED5EE2C3016D
:10295000B2010E944C1E87FF44CF60E574E03ECE7A
:102960002FEF36EE4BED5EEAC301B2010E94ED217E
:1029700018169CF336CFBB2079F06EE574E0CE01DB
:1029800043960E946E0A9701A80160E070E080E221
:1029900091E40E94C022D4CD63E674E0CE01439658
:1029A0000E946E0A20E030E0A901B701C8010E9430
:1029B0004C1E69E674E018160CF010CEB701C80181
:1029C0000E943422BDCD6DE774E0CE0143960E9493
:1029D0006E0A20E030E0A901B701C8010E944C1E38
:1029E00018161CF060E874E0F9CDB701C801C9CD34
:1029F0001F920F920FB60F9211242F933F938F9334
:102A00009F93AF93BF938091BC059091BD05A0911A
:102A1000BE05B091BF053091BB0523E0230F2D37D4
:102A200058F50196A11DB11D2093BB058093BC05EF
:102A30009093BD05A093BE05B093BF058091C005DE
:102A40009091C105A091C205B091C3050196A11D49
:102A5000B11D8093C0059093C105A093C205B093AA
:102A6000C305BF91AF919F918F913F912F910F908F
:102A70000FBE0F901F90189526E8230F0296A11DF8
:102A8000B11DD2CF1F920F920FB60F9211240BB629
:102A90000F922F933F934F935F936F937F938F93F7
:102AA0009F93AF93BF93EF93FF938091B900887F7B
:102AB000803609F44DC008F040C0883209F4A9C03E
:102AC00028F5803109F49DC0C8F4882309F4FBC0BF
:102AD000883009F496C0FF91EF91BF91AF919F911B
:102AE0008F917F916F915F914F913F912F910F90B7
:102AF0000BBE0F900FBE0F901F901895883109F4F0
:102B000088C0803241F78093E80514C0803409F40E
:102B10009DC040F48033B9F38833E9F68093E8052B
:102B200085ECB0C0803509F485C0883509F496C0BD
:102B3000883489F60E945A0CCECF883909F48CC0AB
:102B400038F5883729F050F4883611F0803719F6B7
:102B500083E08093EA051092A90557C0883809F4EC
:102B60007BC0803919F0803809F0B5CF8091A90574
:102B7000803208F071C0E091A90581E08E0F80934A
:102B8000A9058091BB00F0E0E757FA4F80833DC074
:102B9000803B39F0E0F4803A09F479C0883A09F0D2
:102BA0009ACF84E08093EA051092880510928705F9
:102BB000E091AC05F091AD051995809187058111E3
:102BC0000FC081E0809387051092670509C0803CA3
:102BD00009F4A6CF883C09F4A3CF883B09F07BCF4A
:102BE000E091880581E08E0F80938805F0E0E95937
:102BF000FA4F80818093BB00909188058091870572
:102C000029C08091C5058093BB0085EC8093BC00F2
:102C100062CF9091E7058091E605981758F5E0910D
:102C2000E70581E08E0F8093E705F0E0EA53FA4F65
:102C30008081E9CFE091E70581E08E0F8093E70581
:102C40008091BB00F0E0EA53FA4F80839091E70552
:102C50008091E6059817C8F285E8D8CFE091E7059E
:102C600081E08E0F8093E7058091BB00F0E0EA538E
:102C7000FA4F80838091E90581115CCF81E08093D8
:102C8000C40584EA8093BC001092EA0524CF85EC49
:102C90008093BC001092EA058091A905803230F43F
:102CA000E091A905F0E0E757FA4F10826091A9057D
:102CB00070E0E091AA05F091AB0589E895E01995DF
:102CC0001092A90508CF1092E80534CF109217068C
:102CD0001092160688EE93E0A0E0B0E0809318060C
:102CE00090931906A0931A06B0931B068AE392E00C
:102CF00090931506809314061092BB061092BF069F
:102D00001092BE061092C00688E592E09093BA0633
:102D10008093B906E5EDF6E01082148213821582E5
:102D2000369687E0E131F807B9F78CE192E09093AD
:102D30001C0780931B0788E192E090931E07809305
:102D40001D0784E080931F078093200780E292E0B4
:102D500090931A07809319078AE090E090932207D6
:102D60008093210784EF91E09093240780932307B9
:102D70001092270710922607109215071092160737
:102D800010921707109218071092250710924C0600
:102D90001092500610924F061092510688E592E06C
:102DA00090934B0680934A06E6E6F6E082EA96E0C8
:102DB000108214821382158236968E179F07C1F7F0
:102DC00084E092E09093AD068093AC0680E092E0C0
:102DD0009093AF068093AE0684E08093B006809314
:102DE000B10688E092E09093AB068093AA068AE051
:102DF00090E09093B3068093B20684EF91E09093B5
:102E0000B5068093B4061092B8061092B7061092D9
:102E1000A6061092A7061092A8061092A906109274
:102E2000B60610923E0610923D064CE452E05093D6
:102E30003C0640933B0622E02093450690E69093A3
:102E4000460687E28093470680E180934806109209
:102E50002F0610922E0650932D0640932C06209399
:102E600036069093370691E29093380680933906A0
:102E70006CE872E086E296E00E94A70A6CE872E0D5
:102E800080E296E00C94A70ACF93DF93CDB7DEB72C
:102E9000A4970FB6F894DEBF0FBECDBF789484B56B
:102EA000826084BD84B5816084BD85B5826085BD46
:102EB00085B5816085BD80916E00816080936E00D4
:102EC00010928100809181008260809381008091C6
:102ED0008100816080938100809180008160809377
:102EE00080008091B10084608093B1008091B00037
:102EF00081608093B0008091910082608093910006
:102F00008091910081608093910080919000816018
:102F1000809390008091A10082608093A1008091B5
:102F2000A10081608093A1008091A00081608093C6
:102F3000A000809121018260809321018091210174
:102F40008160809321018091200181608093200124
:102F500080917A00846080937A0080917A00826008
:102F600080937A0080917A00816080937A008091CA
:102F70007A00806880937A001092C1001092AF05A9
:102F80001092AE051092F105109213060E94CA0627
:102F90008CE094E09093AD058093AC058DE094E0D7
:102FA0009093AB058093AA0564EF71E080E090E018
:102FB0000E94DA038BE396E00E941C092FEF4FEF8B
:102FC0006FEF8BE396E00E9403098CE296E00E948B
:102FD0001C092FEF46E960E08CE296E00E940309AD
:102FE0008BE396E00E94CC0860E08BE396E00E94C1
:102FF0009E086FE874E08BE396E00E94BC0961E0F4
:103000008BE396E00E949E086FE974E08BE396E004
:103010000E94BC098CE296E00E94CC0860E08CE241
:1030200096E00E949E086EEA74E08CE296E00E94B0
:10303000BC0961E08CE296E00E949E086EEB74E0B1
:103040008CE296E00E94BC0964EC79E080E090E0BC
:103050000E94DA038BE396E00E94CC088CE296E0B3
:103060000E94CC080E94D70B6EEC74E0CE01019652
:103070000E94A70A62EE74E0CE0143960E94A70A5E
:10308000BE016F5F7F4FCE0143960E94FE0ACE01C4
:1030900043960E94B409CE0101960E94B40980E0D3
:1030A000E82E80E0F82EDD24D39489EB96E00E9490
:1030B000FD04182F8AE496E00E94FD04C82E112317
:1030C00009F18091BA05882341F1133441F167EE8B
:1030D00074E0CE0101960E94A70A69EF74E0CE0168
:1030E00043960E94A70ABE016F5F7F4FCE014396B1
:1030F0000E94FE0ACE0143960E94B409CE010196B9
:103100000E94B409CC2019F08C2D0E94BA0FE11452
:10311000F10459F20E940000C8CF1334C9F46CE8DE
:1031200072E086E296E00E946E0A1092BA05109252
:10313000B9051092B8051092B7050E94D70B61E04F
:1031400075E0CE0101960E94A70A62E175E0C7CF43
:103150001D3309F086C080912A0690912B06892B99
:1031600089F266E276E0CE0149960E949E0A6CE8FA
:1031700072E0CE0143960E94A70A10E000E08D8D18
:103180009E8D08171907A8F4B801CE0149960E9430
:103190000E04803259F089831A8241E050E0BE016A
:1031A0006F5F7F4FCE0143960E94EE090F5F1F4F66
:1031B000E6CFBE016D5E7F4FCE0101960E949E0A52
:1031C000BE016F5F7F4F80E296E00E94870A1092F7
:1031D000B1051092B0051092B205CE0101960E9481
:1031E000B4090E94EE0E4B015C018091B205882368
:1031F00029F0D092BA05812C912C5401CE0143962E
:103200000E94B409CE0149960E94B4098091BA0582
:10321000882359F069E175E0CE0101960E94A70A62
:10322000CE0101960E94520B69CF8092B305909215
:10323000B405A092B505B092B60566E276E0CE017F
:1032400001960E949E0AAE014F5F5F4FC501B40117
:103250000E94AF0DCE0101960E94B409D092B9052B
:1032600051CF8091B905882391F0812F8D7F8D32C8
:1032700009F45CC086ED810F823008F457C06CE819
:1032800072E086E296E00E946E0A1092B905809183
:103290002A0690912B068034910508F48FC01C8A71
:1032A0001B8A1E8A1D8A188E1F8A4AE0BE016F5F24
:1032B0007F4F80E490E00E94161ABE016F5F7F4F3F
:1032C000CE0143960E946E0A67E275E0CE014996F0
:1032D0000E94A70ABE016D5E7F4FCE0149960E94F3
:1032E000300A6CE275E00E941A0ABC01CE01019618
:1032F0000E949E0A68E375E0CE014F960E94A70ADD
:10330000BE016F5F7F4FCE014F960E94FE0ACE0135
:103310004F960E94B409CE0101960E94B409CE01D5
:1033200049960E94B409CE014396EACE4091B30576
:103330005091B4056091B5057091B605CE01019626
:103340000E94920C80912606909127060097F9F032
:1033500069817A8161157105C1F04091280650910B
:1033600029062D813E814217530778F00E941226CC
:103370008D819E8190932B0680932A061E821D824A
:10338000CE0101960E94B40980CF0E949F248981BA
:103390009A8190932706809326068B819C81909337
:1033A0002906809328068D819E8190932B06809319
:1033B0002A061A8219821C821B82E0CF19831A8284
:1033C00041E050E0BE016F5F7F4F86E296E00E94D1
:1033D000EE090E94D70B96CE80E296E00E94B409D7
:1033E00086E296E00C94B409EF920F931F93CF936B
:1033F000DF93E80134E047FD34E1042E000C550B67
:1034000057FF03C0519541955109E32E022F242FF8
:10341000AE010E946C1ACE01DF91CF911F910F91E6
:10342000EF900895662777270C94E51BBB274A3059
:1034300031F4992322F4BDE2909581959F4F0C942D
:10344000531ABB272A3051F4992342F4BDE29095D8
:103450008095709561957F4F8F4F9F4F0C94311AD7
:10346000BB27FA01A62F6217710581059105330B61
:1034700030FB66F0AA27660F771F881F991FAA1FC7
:10348000A21710F0A21B63953850A9F7A05DAA33CC
:1034900008F0A95DA19336F7B111B1931082CA016A
:1034A0000C943C1EBB27FB015527AA27880F991FA8
:1034B000AA1FA41710F0A41B83955051B9F7A05D63
:1034C000AA3308F0A95DA193009779F7B111B193E0
:1034D0001192CB010C943C1E8F929F92AF92BF929F
:1034E000CF92DF92EF92FF920F931F93CF93DF93D0
:1034F00000D000D000D0CDB7DEB76A01F22EB02EDA
:10350000102FFBE3AF2EA01608F41BE31F5F012F63
:1035100027E0AE014F5F5F4F0E94431DBC018981D0
:10352000982F9970913009F44EC09BE2E1FC04C0E1
:103530009E2D9170E0FC49C05E2D5071E82FE8701F
:1035400083FF55C084E0911101C083E0EF2DE81B9B
:103550008F1508F0E0E0D6018E2F20E25523C9F147
:10356000992329F0D6019C93C60101966C0196011E
:103570002D5F3F4FE2FE33C08EE4D6018C9391E481
:1035800011969C93119712968C93D9018E2F90E2ED
:1035900081112AC0E20FF32FF11D10828EEF9FEFF1
:1035A00029960FB6F894DEBF0FBECDBFDF91CF9145
:1035B0001F910F91FF90EF90DF90CF90BF90AF9051
:1035C0009F908F9008959DE2B7CF90E2B5CF2D9355
:1035D00081508111FCCFCE0ED11CE0E0C1CF8EE630
:1035E000D6018C9391E6CCCF9D938150D1CF482FBB
:1035F000447082FF3DC084E0911101C083E08F15CB
:1036000010F4EF2DE81BD6018E2F20E2552309F18F
:10361000992329F0D6019C93C60101966C0196016D
:103620002D5F3F4FE2FE1BC089E4D6018C938EE4F0
:1036300011968C93119786E412968C93D9018E2F54
:1036400090E2882309F4A6CF9D938150FACF2D9361
:1036500081508111FCCFCE0ED11CE0E0D9CF89E69C
:10366000D6018C938EE611968C93119786E6E4CF63
:103670009B0177FF02C030E020E0A1E0B0E09111B3
:1036800002C0B0E0A0E0F9013196AE0FBF1F8B2C55
:10369000912CBB2009F461C05401EFEFAE1ABE0AB1
:1036A000AA0DBB1DFA161B0619F014F04F2D4A1B6C
:1036B000511188C0E3FC59C07601A42FB0E2A111DA
:1036C0004FC0C40ED11C992309F45BC040E0D60161
:1036D0001196F60190836D01552309F448C0012F1E
:1036E000060F9A81582F507184FF03C0913309F45B
:1036F000015010160CF047C0093008F008E0EEE267
:10370000FE2E5B01A01AB108850191948194910865
:103710002F3F320729F4D601FC92F60131966F0152
:103720006217730794F1021713077CF5DB01A21BE4
:10373000B30BAA24A394B12CAC0EBD1EAA0DBB1DC5
:1037400011968C9121503109D60111962815390511
:10375000F4F0F60180836D01DBCFB12CA12CA0CF5A
:10376000F701B1937F01A150AACF9111B0CFD6013B
:10377000942F50E302C05D9391509111FCCFC40E81
:10378000D11C40E0ACCF01E0BACF80E3DBCF6217C1
:10379000730731F4963388F4953311F4552369F0A7
:1037A000F6018083FD01842F90E2811108C0A40FEF
:1037B000B11D1C9290E080E0F3CE81E3F1CF9193B4
:1037C0008150F3CF911183CF8ACF8F929F92AF9286
:1037D000BF92CF92DF92EF92FF920F931F93CF93FE
:1037E000DF935C017B016115710519F0DB018D939D
:1037F0009C9385010F5F1F4FF501D0818D2F90E0C5
:103800000E941B1E6C01892BB9F5DD32B9F50F5FE3
:103810001F4FD5011196DC91C1E05801F1E0AF1ABC
:10382000B10843E050E06EEB72E0C5010E94241E37
:10383000892B69F5680182E0C80ED11C45E050E093
:1038400069EB72E0C6010E94241E892B21F46801F5
:1038500097E0C90ED11CE114F10419F0D701CD9203
:10386000DC9260E070E080E89FEFC111FFC060E093
:1038700070E080E89FE7FAC05801BBCFDB3229F443
:1038800085010E5F1F4FF501D181C0E0C6CF43E037
:1038900050E066EB72E0C5010E94241E892BE9F01E
:1038A000F80110E000E020E030E0A9015F01B0ED98
:1038B0008B2E8D0E89E08815C8F19C2E689491F8A6
:1038C0008C2F8870C2FF16C0811102C00F5F1F4F7E
:1038D0003196D501DC91C92DE9CFE114F10429F02D
:1038E0000E5F1F4FF7011183008360E070E080ECF2
:1038F0009FE7BCC0882311F001501109A5E0B0E09A
:103900000E94731F9B01AC01220F331F441F551FE0
:10391000280D311D411D511D283999E939074907E5
:1039200099E15907A8F2C6609C2ED2CFAEEF8A1259
:1039300006C0C3FD3CC09C2E689493F8C9CFDF7DC0
:10394000D534A9F580818D3239F4C061DF0112963A
:10395000818162E070E006C0DF018B32C1F3119615
:1039600061E070E080535D01A61AB70A8A30F8F46E
:10397000E0E8CE16ECE0DE065CF4B601660F771FD9
:10398000660F771FC60ED71ECC0CDD1CC80ED11CCF
:103990005D01FFEFAF1ABF0A8C9180538A30A8F106
:1039A000C4FF03C0D194C194D1080C0D1D1DC1FFEB
:1039B00009C0E114F10431F081E0A81AB108D7017F
:1039C000AD92BC92CA01B9010E94511EC370C330AE
:1039D00009F490584B015C0120E030E0A9010E94FD
:1039E0004C1E882309F440C0CDEED2E017FF05C07D
:1039F000119501951109C5EDD2E06E01B8E1CB1A20
:103A0000D10880E2E82EF12C0FC0D501B1CFFE0124
:103A100025913591459154910E191F09C501B401A5
:103A20000E94B21E4B015C01D501C4010E151F0599
:103A300074F72497F594E794CC16DD06A9F78A2F3E
:103A4000880F8B2F881F8F3F49F020E030E0A901BD
:103A5000C501B4010E944C1E811106C082E290E0B3
:103A60009093290780932807C501B401DF91CF9176
:103A70001F910F91FF90EF90DF90CF90BF90AF908C
:103A80009F908F900895283008F027E03327DA01BF
:103A9000990F311D87FD916000966105710539F41C
:103AA00032602E5F3D9330E32A95E1F708959F3F02
:103AB00030F080387105610509F03C5F3C5F3D9353
:103AC000913008F08068911DDF93CF931F930F937F
:103AD000FF92EF92192F987F9695E92F96959695DC
:103AE000E90FFF27E55BFC4F99273327EE24FF24DE
:103AF000A701E70105900894079428F4360FE71E04
:103B0000F81E491F511D660F771F881F991F0694C5
:103B1000A1F70590079428F4E70EF81E491F561FD9
:103B2000C11D770F881F991F661F0694A1F7059086
:103B3000079428F4F80E491F561FC71FD11D880F80
:103B4000991F661F771F0694A1F70590079420F42C
:103B5000490F561FC71FD81F990F661F771F881F51
:103B60000694A9F784911095177041F0D695C795E2
:103B700057954795F794E7941A95C1F7E1EFF2E06E
:103B800068941590159135916591959105907FE216
:103B90007395E118F10A430B560BC90BD009C0F716
:103BA000E10CF11E431F561FC91FD01D7EF4703358
:103BB00011F48A95E6CFE894015030F0080F0AF42A
:103BC0000027021708F4202F2395022F7A3328F0BC
:103BD00079E37D932A95E9F710C07D932A9589F6BC
:103BE000069497956795379517951794E118F10AFC
:103BF000430B560BC90BD00998F023957E91739512
:103C00007A3308F070E37C932013B8F77E917061EB
:103C10007D9330F0839571E37D9370E32A95E1F70E
:103C20001124EF90FF900F911F91CF91DF91992771
:103C300087FD9095089591110C941F1F803219F003
:103C400089508550C8F70895FB01DC014150504070
:103C500088F08D9181341CF08B350CF4805E659179
:103C600061341CF06B350CF4605E861B611171F3DE
:103C7000990B0895881BFCCFDC01FC01672F719123
:103C80007723E1F7329704C07C916D937083629142
:103C9000AE17BF07C8F308950E948E1E08F481E096
:103CA0000895E89409C097FB3EF49095809570952F
:103CB00061957F4F8F4F9F4F9923A9F0F92F96E978
:103CC000BB279395F695879577956795B795F111ED
:103CD000F8CFFAF4BB0F11F460FF1BC06F5F7F4F8A
:103CE0008F4F9F4F16C0882311F096E911C077239C
:103CF00021F09EE8872F762F05C0662371F096E8A5
:103D0000862F70E060E02AF09A95660F771F881F73
:103D1000DAF7880F9695879597F90895990F000817
:103D2000550FAA0BE0E8FEEF16161706E807F9078D
:103D3000C0F012161306E407F50798F0621B730B28
:103D4000840B950B39F40A2661F0232B242B252BA9
:103D500021F408950A2609F4A140A6958FEF811D4C
:103D6000811D08950E94C51E0C94391F0E942B1FAF
:103D700038F00E94321F20F0952311F00C94221F7E
:103D80000C94281F11240C946D1F0E944A1F70F37D
:103D9000959FC1F3950F50E0551F629FF001729FF0
:103DA000BB27F00DB11D639FAA27F00DB11DAA1FFF
:103DB000649F6627B00DA11D661F829F2227B00D4C
:103DC000A11D621F739FB00DA11D621F839FA00DD7
:103DD000611D221F749F3327A00D611D231F849F27
:103DE000600D211D822F762F6A2F11249F5750407E
:103DF0009AF0F1F088234AF0EE0FFF1FBB1F661FF9
:103E0000771F881F91505040A9F79E3F510580F0C1
:103E10000C94221F0C946D1F5F3FE4F3983ED4F383
:103E2000869577956795B795F795E7959F5FC1F765
:103E3000FE2B880F911D9695879597F908959927E0
:103E40008827089597F99F6780E870E060E00895FB
:103E50009FEF80EC089500240A94161617061806A2
:103E60000906089500240A9412161306140605067E
:103E70000895092E0394000C11F4882352F0BB0F0F
:103E800040F4BF2B11F460FF04C06F5F7F4F8F4F72
:103E90009F4F089557FD9058440F551F59F05F3FAD
:103EA00071F04795880F97FB991F61F09F3F79F05C
:103EB00087950895121613061406551FF2CF4695DE
:103EC000F1DF08C0161617061806991FF1CF869560
:103ED0007105610508940895E894BB276627772744
:103EE000CB0197F908950E947E1FA59F900DB49F66
:103EF000900DA49F800D911D11240895A29FB001E3
:103F0000B39FC001A39F700D811D1124911DB29F0D
:103F1000700D811D1124911D08959F939F770E941C
:103F200053210F90002042F49058A2EA2AED3FE07E
:103F300049E450E40E94B61F0C94391F5058BB2727
:103F4000AA270E94B61F0C94391F0E942B1F38F01D
:103F50000E94321F20F039F49F3F19F426F40C948C
:103F6000281F0EF4E095E7FB0C94221FE92F0E9416
:103F70004A1F58F3BA17620773078407950720F0A2
:103F800079F4A6F50C946C1F0EF4E0950B2EBA2F65
:103F9000A02D0B01B90190010C01CA01A00111244F
:103FA000FF27591B99F0593F50F4503E68F11A16FB
:103FB000F040A22F232F342F4427585FF3CF46958C
:103FC00037952795A795F0405395C9F77EF41F16AE
:103FD000BA0B620B730B840BBAF09150A1F0FF0F78
:103FE000BB1F661F771F881FC2F70EC0BA0F621F64
:103FF000731F841F48F4879577956795B795F79554
:104000009E3F08F0B0CF9395880F08F09927EE0FE8
:104010009795879508959F939F77EEE389379E073D
:1040200028F4E4EEF0E00E949A210CC00E94532193
:104030009058A2EA2AED3FE049EC5FE30E94B61FE8
:104040000E94391F0F9007FC90580895DF93DD27D9
:10405000B92FBF7740E85FE31616170648075B07DE
:1040600018F4D92F0E94F2219F938F937F936F931F
:104070000E948423E8EFF0E00E9473210E94391F20
:104080002F913F914F915F910E94C51EDD2351F00A
:104090009058A2EA2AED3FE049EC5FE3D0785D2733
:1040A0000E94B61FDF910C94391F90680E94EB208C
:1040B0004FEF5FEF0E94FE219F938F937F936F934B
:1040C00042E050E00E94FE210E94F2212F913F9198
:1040D0004F915F910C949F1F0E94B021E3950C9427
:1040E000D9210E9485200C94391F0E94321F58F05C
:1040F0000E942B1F40F029F45F3F29F00C94221FEF
:1041000051110C946D1F0C94281F0E944A1F68F3D4
:104110009923B1F3552391F3951B550BBB27AA2780
:1041200062177307840738F09F5F5F4F220F331FBA
:10413000441FAA1FA9F335D00E2E3AF0E0E832D082
:1041400091505040E695001CCAF72BD0FE2F29D085
:10415000660F771F881FBB1F261737074807AB0757
:10416000B0E809F0BB0B802DBF01FF2793585F4FCC
:104170003AF09E3F510578F00C94221F0C946D1F6D
:104180005F3FE4F3983ED4F3869577956795B795AE
:10419000F7959F5FC9F7880F911D9695879597F9B9
:1041A0000895E1E0660F771F881FBB1F6217730732
:1041B0008407BA0720F0621B730B840BBA0BEE1F47
:1041C00088F7E095089529F416F00C94221F0C94BA
:1041D0006C1F0C94281F0E94521FA8F39638A0F75A
:1041E00007F80F92E8942BE33AEA48EB5FE70E9466
:1041F000C81E0F920F920F924DB75EB70F920E949A
:104200008C22E5E2F1E00E9473214F915F91EF91E2
:10421000FF91E595EE1FFF1F49F0FE57E068442728
:10422000EE0F441FFA95E1F74195550B0E94FE21D0
:104230000F9007FE0C94F22108950E9424216894A7
:10424000B1110C946D1F08950E94521F88F09F5762
:1042500098F0B92F9927B751B0F0E1F0660F771FAA
:10426000881F991F1AF0BA95C9F714C0B13091F0A0
:104270000E946C1FB1E008950C946C1F672F782F7B
:104280008827B85F39F0B93FCCF386957795679565
:10429000B395D9F73EF490958095709561957F4FD1
:1042A0008F4F9F4F0895DF93CF931F930F938B01F1
:1042B000EC01EDE4F1E00E9473210E94391F9801A6
:1042C000AE018B01EC0160E070E080E89FE30E94AA
:1042D0009E1F0E9444239801AE010F911F91CF9120
:1042E000DF910C94C51EDF93CF931F930F93FF9222
:1042F000EF92DF927B018C01689406C0DA2EEF0109
:104300000E94C51EFE01E894A59125913591459125
:104310005591A6F3EF010E94B61FFE019701A80177
:10432000DA9469F7DF90EF90FF900F911F91CF9192
:10433000DF9108959F938F937F936F93FF93EF93F4
:104340009B01AC010E94B21EEF91FF910E9473216C
:104350002F913F914F915F910C94B21E0C94281FA6
:104360000E94521FD8F3E894E0E0BB279F57F0F07B
:104370002AED3FE049EC06C0EE0FBB0F661F771F2A
:10438000881F28F0B23A62077307840728F0B25AF0
:10439000620B730B840BE3959A9572F7803830F4B7
:1043A0009A95BB0F661F771F881FD2F790480C9411
:1043B000E823EF93E0FF07C0A2EA2AED3FE049ECD3
:1043C0005FEB0E94B61F0E94391F0F90039401FCFF
:1043D0009058E5E7F1E00C949A210E948E1E08F4B3
:1043E0008FEF08959B01AC0160E070E080E89FE3EF
:1043F0000C9471200C94221F0C94E6230E94521FEF
:10440000D8F39923C9F3940F511DA3F39150504051
:1044100094F059F0882332F0660F771F881F91506F
:104420005040C1F79E3F51052CF7880F911D96957E
:10443000879597F908955F3FACF0983E9CF0BB27B5
:10444000869577956795B79508F4B1609395C1F710
:10445000BB0F58F711F460FFE8CF6F5F7F4F8F4FAE
:104460009F4FE3CF0C946D1F0E94442229ED3BE542
:104470004EED5EE30C94B21E16F00C94E6230C9401
:10448000281F68940C94221F0E94521FA8F399239E
:10449000C1F3AEF3DF93CF931F930F93FF92C92F16
:1044A000DD2788232AF02197660F771F881FDAF708
:1044B00020E030E040E85FEB9FE3883920F0803E69
:1044C00038F021968F770E949F1FE3E9F1E004C046
:1044D0000E949F1FE0ECF1E00E9473218B01BE015E
:1044E000EC01FB2E6F5771097595771F880B990B9F
:1044F0000E94531E28E132E741E35FE30E94C51E9C
:10450000AF2D9801AE01FF900F911F91CF91DF91D8
:104510000E94B61F0C94391FFA01DC01AA0FBB1FC1
:104520009B01AC01BF5728F422273327442750783A
:1045300020C0B75190F4AB2F0024469537952795AE
:10454000011CA395D2F3002071F0220F331F441FEA
:10455000B395DAF30ED00C949E1F61307105A0E87C
:104560008A07B94630F49B01AC0166277727882774
:104570009078309621F020833183428353830895CD
:10458000FA01EE0FFF1F309621053105A1F16115EB
:10459000710561F48038BFE39B0749F16894903856
:1045A000810561F08038BFEF9B0741F099234AF500
:1045B000FF3FE1053105210519F1E8940894E795DD
:1045C000D901AA2329F4AB2FBE2FF85FD0F310C076
:1045D000FF5F70F4A695E0F7F73950F019F0FF3A55
:1045E00038F49F779F930DD00F9007FC9058089553
:1045F00046F00C94281F60E070E080E89FE3089587
:104600004FE79F775F934F933F932F930E944422EE
:104610002F913F914F915F910E94B21E0C94EB201D
:104620009F939F77FEE3803A9F0728F4EDEEF1E039
:104630000E949A2117C090680E94EB204FEF5FEF15
:104640000E94FE219F938F937F936F9342E050E0EF
:104650000E94FE210E94F2212F913F914F915F9184
:104660000E949E1F0F9007FC906808959F930E94E0
:10467000B0210F9007FCEE5F0C94D92119F416F4C9
:104680000C94281F0C94E6230E94521FB8F3992320
:10469000C9F3B6F39F57550B87FF0E94F4230024FC
:1046A000A0E640EA900180585695979528F4805CE2
:1046B000660F771F881F20F026173707480730F44A
:1046C000621B730B840B202931294A2BA695179462
:1046D0000794202531254A2758F7660F771F881F32
:1046E00020F026173707480730F4620B730B840B52
:1046F000200D311D411DA09581F7B901842F9158DE
:10470000880F9695879508959B01AC010C94B21E75
:104710009F939F77FEE380319F0728F4ECEFF1E051
:104720000E949A2125C0906841E050E00E94FE213D
:104730000E94EB209F938F937F936F9320E030E054
:1047400040E85FE30E949F1F2F913F914F915F913F
:104750009F938F937F936F9360E070E080E89FE377
:104760000E949E1F2F913F914F915F910E94712057
:104770000F9007FC90580895DF93D92F0E94B02125
:10478000E695D7952AED3FE049E45FE3B33A620747
:10479000730784079507D7953AF0A2EA49EC906829
:1047A0000E94B61F0E94391FEBE0F2E00E949A219E
:1047B000DD0F13F00E94F221DD0F0BF49058DF9112
:1047C00008950E948E1E880B990B08959F3F31F02B
:1047D000915020F4879577956795B795880F911D2F
:1047E0009695879597F9089591505040660F771FD9
:1047F000881FD2F70895EE0FFF1F881F8BBF079009
:10480000F691E02D19940F931F93CF93DF9382308D
:10481000910510F482E090E0E0912C07F0912D07D3
:1048200030E020E0B0E0A0E0309799F421153105A8
:1048300009F44AC0281B390B24303105D8F58A8188
:104840009B816115710589F1FB0193838283FE01D0
:1048500011C0408151810281138148175907E0F04E
:104860004817590799F4109761F012960C93129714
:1048700013961C933296CF01DF91CF911F910F9128
:10488000089500932C0710932D07F4CF21153105BF
:1048900051F04217530738F0A901DB019A01BD011D
:1048A000DF01F801C1CFEF01F9CF90932D0780937D
:1048B0002C07CDCFFE01E20FF31F8193919322507D
:1048C000310939832883D7CF20912A0730912B07CC
:1048D000232B41F4209132023091330230932B0785
:1048E00020932A07209130023091310221153105A1
:1048F00041F42DB73EB74091340250913502241B4C
:10490000350BE0912A07F0912B07E217F307A0F48B
:104910002E1B3F0B2817390778F0AC014E5F5F4F15
:104920002417350748F04E0F5F1F50932B07409315
:104930002A07819391939FCFF0E0E0E09CCFCF9343
:10494000DF930097E9F0FC01329713821282A09165
:104950002C07B0912D07ED0130E020E01097A1F475
:1049600020813181820F931F20912A0730912B07DC
:104970002817390709F061C0F0932B07E0932A0745
:10498000DF91CF910895EA01CE17DF07E8F54A815C
:104990005B819E0141155105B1F7E901FB83EA8373
:1049A00049915991C40FD51FEC17FD0761F480811F
:1049B00091810296840F951FE901998388838281F2
:1049C00093819B838A83F0E0E0E012968D919C9125
:1049D00013970097B9F52D913C911197CD0102964F
:1049E000820F931F20912A0730912B072817390730
:1049F00039F6309751F510922D0710922C07B0938D
:104A00002B07A0932A07BCCFD383C2834081518157
:104A1000840F951FC817D90761F44E5F5F4F8881D7
:104A20009981480F591F518340838A819B819383C9
:104A300082832115310509F0B0CFF0932D07E09363
:104A40002C079ECFFD01DC01C0CF13821282D7CF8D
:104A50004F925F926F927F928F929F92AF92BF928E
:104A6000CF92DF92EF92FF920F931F93CF93DF933A
:104A70008C01009799F4CB01DF91CF911F910F9199
:104A8000FF90EF90DF90CF90BF90AF909F908F906E
:104A90007F906F905F904F900C940324FC01E60F81
:104AA000F71F9C0122503109E217F30708F4AEC04A
:104AB000D901CD91DC911197C617D70720F1C530E8
:104AC000D10578F0CE0104978617970750F0C61BE2
:104AD000D70B2297C193D1936D937C93CF010E9402
:104AE0009F24C801DF91CF911F910F91FF90EF900C
:104AF000DF90CF90BF90AF909F908F907F906F90FE
:104B00005F904F9008955B01AC1ABD0A4C018C0E6A
:104B10009D1EA0912C07B0912D07512C412CF12CFA
:104B2000E12C109731F580912A0790912B07881579
:104B3000990509F05CC04616570608F058C08091E8
:104B4000300290913102009741F48DB79EB74091A9
:104B5000340250913502841B950BE817F90708F0D1
:104B600055C0F0932B07E0932A07F9017183608306
:104B7000B8CF8D919C91119712966C9012971396C5
:104B80007C901397A815B90559F56C0142E0C40E45
:104B9000D11CCA14DB0420F1AC014A195B09DA010B
:104BA0001296159780F06282738251834083D901F7
:104BB0006D937C93E114F10471F0D7011396FC938B
:104BC000EE9312978ECF22968C0F9D1FF901918341
:104BD0008083F301EFCFF0932D07E0932C0781CF73
:104BE0004816590608F42C017D01D3019ACFCB0158
:104BF0000E9403247C01009749F0AE01B8010E9495
:104C00000926C8010E949F2487016BCF10E000E0B5
:104C100068CFFB01DC0102C001900D924150504071
:104C2000D8F70895FB01DC0101900D920020E1F717
:104C3000089512E0C7E8D2E000E006C0802FFE0130
:104C40000E94FB232196011DC838D10780E0080788
:064C5000A9F7F894FFCF64
:104C5600222324251E1F2021515E28296E6C2E41F9
:104C6600687364744D533C3E1A1B1C1D16171819A5
:104C76003738392F3435362A3132332D43303D2BF0
:104C860000002E0780000000000047081A0884096B
:104C9600F00713080008F10700000000D4082004FC
:104CA60084091F0400000000F204F604FA0421211E
:104CB6002120455252455552202121210041707034
:104CC60075796572205B435D0052005B0020534896
:104CD600002048590020202020202020002B496E4B
:104CE60066002D496E66004E614E007E003D003E18
:104CF6003E20526573756C7461743A0044454700F2
:104D060052414400496E7665727365206163746929
:104D160066004E6F726D616C0053686966743A2066
:104D26004143544956450053686966743A204F46D4
:104D36004600466F6E6374696F6E73206879702ED5
:104D4600004879703A2041435449564500487970E5
:104D56003A204F464600416E676C657320656E20AB
:104D6600004D6F64653A2000414E5320696E7365AD
:104D760072650028004F75767269722070617265DF
:104D86006E7468657365002820696E7365726500C8
:104D960029004665726D657220706172656E746871
:104DA600657365002920696E736572650065783ADA
:104DB60020325E38203D20323536005075697373D7
:104DC600616E6365205E005375707072696D652053
:104DD60031206361722E005265746F7572206172A4
:104DE600726965726500546F7574206566666163E5
:104DF60065006176616E74206C6120666F6E637407
:104E0600696F6E00456E7472657220756E206E6FE6
:104E16006D62726500785E32007371727400737130
:104E26007274206E65676174696621006173696ECC
:104E3600680061726373696E0061726373696E20E4
:104E4600686F7273205B2D312C315D0061636F7367
:104E5600680061636F73683A20783E3D3120726561
:104E66007175697300617263636F73006172636366
:104E76006F7320686F7273205B2D312C315D00617A
:104E860074616E68006174616E683A207C787C3C5F
:104E960031207265717569730061726374616E00A9
:104EA60074616E20696E646566696E6921003130D1
:104EB6005E78006C6F673130006C6F673A20783E21
:104EC600302072657175697300655E78006C6E00DE
:104ED6006C6E3A20783E30207265717569730020D9
:104EE6002043454E4445525320204941202000206E
:104EF60043616C63756C6174726963652000202080
:104F060056657273696F6E20322E30202000204D58
:104F16006F64653A204445472020202020004D6FCD
:104F260064653A20444547207C205B435D3D4566E9
:104F36006600507265740041707075796572205B09
:104F4600435D207265736574004552524555522182
:104F56000045787072657373696F6E207669646553
:104F66006500456666616365004572726575722007
:104F760063616C63756C004D61782000206361721B
:104F8600616374657265730054726F70206C6F6E26
:044F9600672100008F
:00000001FF
