:100000000C9425010C9456010C9456010C94560145
:100010000C9456010C9456010C9456010C94560104
:100020000C9456010C9456010C9456010C945601F4
:100030000C9456010C9456010C9456010C945601E4
:100040000C9456010C9456010C9456010C945601D4
:100050000C9456010C9456010C9456010C94AF0468
:100060000C9456010C9456010C9456010C945601B4
:100070000C9456010C9456010C9456010C945601A4
:100080000C9456010C9456010C9456010C94560194
:100090000C9456010C9456010C9456010C94F904DE
:1000A0000C9456010C9456010C9456010C94560174
:1000B0000C9456010C9456010C9456010C94560164
:1000C0000C9456010C9456010C9456010C94560154
:1000D0000C9456010C9456010C9456010C94560144
:1000E0000C9456010C946A020C94D1020C94C60133
:1000F0000C94D2020C943E040C943D020C943C02ED
:100100000C94DE010C94C2010C943B020C94B801D7
:100110000C948D010C94D0010C9471040C94F40295
:100120000C941D060C94BE010C94AB010C94AE0112
:100130000C94D4010C94A3010C94FB020C94DA01EE
:100140000C9428030C94B4010C94CC010C94A701DA
:100150000C9488010C949F010C94E1020000220091
:10016000250028002B002E00310034000201000081
:10017000050108010B010505050507050808080824
:10018000020202020A0A080804040404010101012F
:10019000010101010303030303030303040707072A
:1001A0000C0C0C0C0C0C0C0C0202020206060606CF
:1001B000060606060B0B0B0B0B0B0B0B010210209C
:1001C000200808102040102040800201020108048D
:1001D0000201010204081020408080402010080421
:1001E000020180040201804020100804020108047A
:1001F00002010102040810204080010204081020BE
:10020000408000000A0B02090C0D0E0807030401D0
:1002100000000000000000000000000000000000DE
:1002200000000000000000000000000000001211AB
:1002300010000000000000000000000000000000AE
:1002400000000000000000001D0611241FBECFEFBB
:10025000D1E2DEBFCDBF00E00CBF12E0A0E0B2E013
:10026000E8EDFEE000E00BBF02C007900D92A8325F
:10027000B107D9F723E0A8E2B2E001C01D92AF3088
:10028000B207E1F711E0C5E2D1E000E006C0219736
:100290000109802FFE010E946207C432D10780E06D
:1002A0000807A9F70E9448060C946A070C940000FE
:1002B000282F30E0F901EE5FFD4F9491F901E454ED
:1002C000FE4F44912A583E4FF9012491222309F40C
:1002D00035C0992311F191509231F8F4E92FF0E0F3
:1002E0008827EA58FE4F8F4F0C946207A701AB0195
:1002F00088019F01A3018D01AE01B401B801BE01C7
:10030000C201C601CC01D0018D01D401DA01DE01A8
:10031000809180008F7780938000E22FF0E0EE0FD5
:10032000FF1FE45AFE4FA591B4918FB7F894EC915A
:10033000611148C040954E234C938FBF0895809122
:1003400080008F7DE8CF80918000877FE4CF84B5E7
:100350008F7784BDE2CF84B58F7DFBCF8091B000D5
:100360008F778093B000D9CF8091B0008F7DF9CF87
:10037000809190008F7780939000CFCF80919000F4
:100380008F7DF9CF80919000877FF5CF8091A0007D
:100390008F778093A000C1CF8091A0008F7DF9CF8F
:1003A0008091A000877FF5CF809120018F77809387
:1003B0002001B3CF809120018F7DF9CF8091200162
:1003C000877FF5CF4E2BB8CF3FB7F8948091E702E7
:1003D0009091E802A091E902B091EA0226B5A89BAB
:1003E00005C02F3F19F00196A11DB11D3FBFBA2FC7
:1003F000A92F982F8827BC01CD01620F711D811D87
:10040000911D42E0660F771F881F991F4A95D1F70B
:1004100008958F929F92AF92BF92CF92DF92EF9208
:10042000FF924B015C010E94E4016B017C010E9480
:10043000E4016C197D098E099F09683E73408105AE
:100440009105A8F321E0821A9108A108B10888EE6D
:10045000C80E83E0D81EE11CF11C81149104A10494
:10046000B10429F7FF90EF90DF90CF90BF90AF904D
:100470009F908F90089508950895AF92BF92CF9264
:10048000DF92EF92FF920F931F93CF93DF936C0154
:100490007B018B01040F151FEB015E01AE18BF0835
:1004A000C017D10759F06991D601ED91FC910190E7
:1004B000F081E02DC6011995892B79F7C501DF91EF
:1004C000CF911F910F91FF90EF90DF90CF90BF9051
:1004D000AF900895089520916902260F3327331FA6
:1004E00021323105ECF42091B202FC0190E080E071
:1004F000243069F082E00895A09169022191AC0155
:10050000475B5D4FA40FB52FB11D2C930196861745
:1005100098F380916902680F6093690280E0089502
:1005200081E008951092B20281E08093B1021092AE
:100530008C0261E084E10E94580161E085E10E9443
:100540005801E9EBF0E080818E7F808380818D7F90
:10055000808388E48093B80085E48093BC0008958C
:10056000CF93DF9391E0909348028823B9F0C09134
:10057000B800D091BA008091BC008A7B8093BC0007
:1005800060E084E10E94580160E085E10E9458012A
:100590000E949202D093BA00C093B800DF91CF912D
:1005A00008950895E091E1028091E002E81730F4A7
:1005B000F0E0E85DFD4F808190E008958FEF9FEFC0
:1005C00008959091E1028091E0022FEF3FEF98179C
:1005D00048F4E92FF0E0E85DFD4F208130E09F5FB7
:1005E0009093E102C90108958091E0029091E102A7
:1005F000891B990B0895CF92DF92EF92FF920F9390
:100600001F93CF93DF937C01CB018A012091B80225
:10061000222389F0EB016B01C40ED51ECC15DD053C
:1006200069F06991D701ED91FC910190F081E02D85
:10063000C7011995F3CF642F0E946B02C801DF91A7
:10064000CF911F910F91FF90EF90DF90CF90089581
:10065000CF93DF931F92CDB7DEB769832091B802A5
:100660002223F9F02091DE02203258F021E030E020
:10067000FC013383228390E080E00F90DF91CF91E3
:1006800008958091DF02E82FF0E0E754FD4F998153
:1006900090838F5F8093DF028093DE0281E090E0A1
:1006A000ECCF61E0CE0101960E946B02F7CFCF92B2
:1006B000DF92EF92FF920F931F93CF93DF93FC0192
:1006C000C48121E02093B802C093D9021092DF02C6
:1006D0001092DE028385682B8BEE92E00E94280345
:1006E000D091DE02D13208F092C00E94E4016B0189
:1006F0007C018091B202811165C082E08093B202D8
:1007000081E08093B1028FEF8093B0021092AF022C
:10071000D093AE02A9EBB2E0EEE8F2E080E0D813AD
:1007200085C010928D0280918D02CC0FC82BC09392
:100730008D0280918C02813009F07CC010928C0275
:100740000E94E4016B017C0180918D028093BB00CB
:100750008091B4029091B502A091B602B091B70217
:10076000892B8A2B8B2B99F00E94E4010091B40213
:100770001091B5022091B6023091B7026C197D0933
:100780008E099F090617170728073907E0F180919E
:10079000BC0083FDD9CF85EC8093BC000E94E401AE
:1007A0006B017C018091B202823009F445C08091D6
:1007B000B0028F3F61F18091B002803241F18091AF
:1007C000B00225C08091B4029091B502A091B6020A
:1007D000B091B702892B8A2B8B2B09F48ACF0E9408
:1007E000E4010091B4021091B5022091B60230915B
:1007F000B7026C197D098E099F090617170728078C
:10080000390708F076CF8091B3020E94B0021092AF
:10081000DF021092DE021092B802DF91CF911F9199
:100820000F91FF90EF90DF90CF9008959D9191935D
:100830008F5F75CF85EEB0CF8091B4029091B502F5
:10084000A091B602B091B702892B8A2B8B2B09F4A9
:10085000A9CF0E94E4010091B4021091B502209149
:10086000B6023091B7026C197D098E099F090617EF
:1008700017072807390708F095CFC5CF90E080E02B
:1008800008950F931F93CF938C01C62F0E94570397
:100890006C2F6460C8010E9457036C2F6B7FC801E6
:1008A0000E94570383EC90E00197F1F7CF911F91DD
:1008B0000F9108950F931F93CF93DF938C01D62F41
:1008C000C42F607F642B0E94410480E1D89FB00157
:1008D00011246C2BC801DF91CF911F910F910C94C3
:1008E000410441E00E945A0481E090E0089585EDC2
:1008F0008093BC008091B4029091B502A091B602A1
:10090000B091B7020796A11DB11D23E0B695A7953A
:10091000979587952A95D1F72091BC0024FD03C0B7
:100920001092B20208954091B4025091B5026091C4
:10093000B6027091B702452B462B472B69F30097FF
:10094000A105B10541F02AE22A95F1F700C001970F
:10095000A109B109E1CF8091B3020C94B0021F92BA
:100960000F920FB60F9211242F933F938F939F9363
:10097000AF93BF938091E3029091E402A091E502CE
:10098000B091E6023091E20223E0230F2D3758F5B3
:100990000196A11DB11D2093E2028093E302909382
:1009A000E402A093E502B093E6028091E702909101
:1009B000E802A091E902B091EA020196A11DB11DE1
:1009C0008093E7029093E802A093E902B093EA02D1
:1009D000BF91AF919F918F913F912F910F900FBE3B
:1009E0000F901F90189526E8230F0296A11DB11DA8
:1009F000D2CF1F920F920FB60F9211240BB60F9207
:100A00002F933F934F935F936F937F938F939F9316
:100A1000AF93BF93EF93FF938091B900887F8036A7
:100A200009F44DC008F040C0883209F4A9C028F587
:100A3000803109F49DC0C8F4882309F4FBC08830D4
:100A400009F496C0FF91EF91BF91AF919F918F9163
:100A50007F916F915F914F913F912F910F900BBEBE
:100A60000F900FBE0F901F901895883109F488C021
:100A7000803241F78093B00214C0803409F49DC0E5
:100A800040F48033B9F38833E9F68093B00285EC03
:100A9000B0C0803509F485C0883509F496C0883423
:100AA00089F60E947704CECF883909F48CC038F5D6
:100AB000883729F050F4883611F0803719F683E032
:100AC0008093B20210928B0257C0883809F47BC021
:100AD000803919F0803809F0B5CF80918B028032CF
:100AE00008F071C0E0918B0281E08E0F80938B0241
:100AF0008091BB00F0E0E559FD4F80833DC0803B15
:100B000039F0E0F4803A09F479C0883A09F09ACFD4
:100B100084E08093B20210926A0210926902E0911E
:100B2000DA02F091DB0219958091690281110FC000
:100B300081E0809369021092490209C0803C09F467
:100B4000A6CF883C09F4A3CF883B09F07BCFE09186
:100B50006A0281E08E0F80936A02F0E0E75BFD4F4E
:100B600080818093BB0090916A028091690229C0C4
:100B700080918D028093BB0085EC8093BC0062CF96
:100B80009091AF028091AE02981758F5E091AF02B4
:100B900081E08E0F8093AF02F0E0E257FD4F80813D
:100BA000E9CFE091AF0281E08E0F8093AF02809198
:100BB000BB00F0E0E257FD4F80839091AF0280913F
:100BC000AE029817C8F285E8D8CFE091AF0281E075
:100BD0008E0F8093AF028091BB00F0E0E257FD4F93
:100BE00080838091B10281115CCF81E080938C027F
:100BF00084EA8093BC001092B20224CF85EC8093EB
:100C0000BC001092B20280918B02803230F4E091ED
:100C10008B02F0E0E559FD4F108260918B0270E08D
:100C2000E091DC02F091DD028BE692E019951092E2
:100C30008B0208CF1092B00234CFEBEEF2E01382B9
:100C4000128288EE93E0A0E0B0E084839583A683CF
:100C5000B78384E092E091838083E3E0F3E0138242
:100C6000128226E132E03183208387E2848390E19F
:100C7000918782E082871386E7EFF2E01382128287
:100C80003183208321E2248391878287138608950C
:100C9000789484B5826084BD84B5816084BD85B557
:100CA000826085BD85B5816085BD80916E00816063
:100CB00080936E0010928100809181008260809309
:100CC000810080918100816080938100809180000B
:100CD0008160809380008091B10084608093B10036
:100CE0008091B00081608093B0008091910082601B
:100CF0008093910080919100816080939100809118
:100D000090008160809390008091A1008260809328
:100D1000A1008091A10081608093A1008091A0003A
:100D200081608093A00080912101826080932101E5
:100D30008091210181608093210180912001816057
:100D40008093200180917A00846080937A00809162
:100D50007A00826080937A0080917A00816080932B
:100D60007A0080917A00806880937A001092C100A6
:100D70001092E1021092E0021092DF021092DE0265
:100D80000E9492028BE392E09093DB028093DA025E
:100D90008CE392E09093DD028093DC0260E47FE1DB
:100DA00080E090E00E9409020E94920210920803E3
:100DB00080910D03823018F098E09093080380939F
:100DC0000B0362E370E080E090E00E940902609112
:100DD0000E0383E093E00E94570368EE73E080E027
:100DE00090E00E94090260E383E093E00E944104E6
:100DF000CBE4D6E4CE010197F1F760E383E093E022
:100E00000E9441042197F1F760E383E093E00E94A0
:100E1000410483E592E00197F1F760E283E093E01B
:100E20000E94410460910803606240E083E093E027
:100E30000E945A0484E08093090340E06CE083E060
:100E400093E00E945A0440E061E083E093E00E9456
:100E50005A04CBE3DFE1CE010197F1F782E0809302
:100E60000A0340E066E083E093E00E945A0440E019
:100E700062E083E093E00E945A042197F1F768EE64
:100E800073E080E090E00E94090288E080930E0306
:100E900060E083E093E00E94570340E060E883E075
:100EA00093E00E945A0448E050E06EE172E083E073
:100EB00093E00E943D02C0E0D0E02097F1F30E9451
:100EC0000000FBCFEE0FFF1F881F8BBF0790F6912E
:080ED000E02D1994F894FFCF06
:100ED800000000002803FB023E04D102F402E102F4
:100EE800D2020000000071043D023E046A0254452B
:080EF800535420435055000043
:00000001FF
