:100000000C9425010C9456010C9456010C94560145
:100010000C9456010C9456010C9456010C94560104
:100020000C9456010C9456010C9456010C945601F4
:100030000C9456010C9456010C9456010C945601E4
:100040000C9456010C9456010C9456010C945601D4
:100050000C9456010C9456010C9456010C94B30464
:100060000C9456010C9456010C9456010C945601B4
:100070000C9456010C9456010C9456010C945601A4
:100080000C9456010C9456010C9456010C94560194
:100090000C9456010C9456010C9456010C94FD04DA
:1000A0000C9456010C9456010C9456010C94560174
:1000B0000C9456010C9456010C9456010C94560164
:1000C0000C9456010C9456010C9456010C94560154
:1000D0000C9456010C9456010C9456010C94560144
:1000E0000C9456010C946A020C94D1020C94C60133
:1000F0000C94D2020C943E040C943D020C943C02ED
:100100000C94DE010C94C2010C943B020C94B801D7
:100110000C948D010C94D0010C94F4020C942106E3
:100120000C94BE010C94AB010C94AE010C94D40160
:100130000C94A3010C94FB020C94DA010C9475044A
:100140000C9428030C94B4010C94CC010C94A701DA
:100150000C9488010C949F010C94E1020000220091
:10016000250028002B002E00310034000201000081
:10017000050108010B010505050507050808080824
:10018000020202020A0A080804040404010101012F
:10019000010101010303030303030303040707072A
:1001A0000C0C0C0C0C0C0C0C0202020206060606CF
:1001B000060606060B0B0B0B0B0B0B0B010210209C
:1001C000200808102040102040800201020108048D
:1001D0000201010204081020408080402010080421
:1001E000020180040201804020100804020108047A
:1001F00002010102040810204080010204081020BE
:10020000408000000A0B02090C0D0E0807030401D0
:1002100000000000000000000000000000000000DE
:1002200000000000000000000000000000001211AB
:1002300010000000000000000000000000000000AE
:100240000000000000000000210611241FBECFEFB7
:10025000D1E2DEBFCDBF00E00CBF12E0A0E0B2E013
:10026000E2E2FFE000E00BBF02C007900D92A8336E
:10027000B107D9F723E0A8E3B2E001C01D92AF3186
:10028000B207E1F711E0C5E2D1E000E006C0219736
:100290000109802FFE010E948707C432D10780E048
:1002A0000807A9F70E944C060C948F070C940000D5
:1002B000282F30E0F901EE5FFD4F9491F901E454ED
:1002C000FE4F44912A583E4FF9012491222309F40C
:1002D00035C0992311F191509231F8F4E92FF0E0F3
:1002E0008827EA58FE4F8F4F0C948707A701AB0170
:1002F00088019F01A3018D01AE01B401B801BE01C7
:10030000C201C601CC01D0018D01D401DA01DE01A8
:10031000809180008F7780938000E22FF0E0EE0FD5
:10032000FF1FE45AFE4FA591B4918FB7F894EC915A
:10033000611148C040954E234C938FBF0895809122
:1003400080008F7DE8CF80918000877FE4CF84B5E7
:100350008F7784BDE2CF84B58F7DFBCF8091B000D5
:100360008F778093B000D9CF8091B0008F7DF9CF87
:10037000809190008F7780939000CFCF80919000F4
:100380008F7DF9CF80919000877FF5CF8091A0007D
:100390008F778093A000C1CF8091A0008F7DF9CF8F
:1003A0008091A000877FF5CF809120018F77809387
:1003B0002001B3CF809120018F7DF9CF8091200162
:1003C000877FF5CF4E2BB8CF3FB7F8948091F702D7
:1003D0009091F802A091F902B091FA0226B5A89B7B
:1003E00005C02F3F19F00196A11DB11D3FBFBA2FC7
:1003F000A92F982F8827BC01CD01620F711D811D87
:10040000911D42E0660F771F881F991F4A95D1F70B
:1004100008958F929F92AF92BF92CF92DF92EF9208
:10042000FF924B015C010E94E4016B017C010E9480
:10043000E4016C197D098E099F09683E73408105AE
:100440009105A8F321E0821A9108A108B10888EE6D
:10045000C80E83E0D81EE11CF11C81149104A10494
:10046000B10429F7FF90EF90DF90CF90BF90AF904D
:100470009F908F90089508950895AF92BF92CF9264
:10048000DF92EF92FF920F931F93CF93DF936C0154
:100490007B018B01040F151FEB015E01AE18BF0835
:1004A000C017D10759F06991D601ED91FC910190E7
:1004B000F081E02DC6011995892B79F7C501DF91EF
:1004C000CF911F910F91FF90EF90DF90CF90BF9051
:1004D000AF900895089520917902260F3327331F96
:1004E00021323105ECF42091C202FC0190E080E061
:1004F000243069F082E00895A09179022191AC0145
:10050000475A5D4FA40FB52FB11D2C930196861746
:1005100098F380917902680F6093790280E00895E2
:1005200081E008951092C20281E08093C10210928E
:100530009C0261E084E10E94580161E085E10E9433
:100540005801E9EBF0E080818E7F808380818D7F90
:10055000808388E48093B80085E48093BC0008958C
:10056000CF93DF9391E0909358028823B9F0C09124
:10057000B800D091BA008091BC008A7B8093BC0007
:1005800060E084E10E94580160E085E10E9458012A
:100590000E949202D093BA00C093B800DF91CF912D
:1005A00008950895E091F1028091F002E81730F487
:1005B000F0E0E85CFD4F808190E008958FEF9FEFC1
:1005C00008959091F1028091F0022FEF3FEF98177C
:1005D00048F4E92FF0E0E85CFD4F208130E09F5FB8
:1005E0009093F102C90108958091F0029091F10277
:1005F000891B990B0895CF92DF92EF92FF920F9390
:100600001F93CF93DF937C01CB018A012091C80215
:10061000222389F0EB016B01C40ED51ECC15DD053C
:1006200069F06991D701ED91FC910190F081E02D85
:10063000C7011995F3CF642F0E946B02C801DF91A7
:10064000CF911F910F91FF90EF90DF90CF90089581
:10065000CF93DF931F92CDB7DEB769832091C80295
:100660002223F9F02091EE02203258F021E030E010
:10067000FC013383228390E080E00F90DF91CF91E3
:1006800008958091EF02E82FF0E0E753FD4F998144
:1006900090838F5F8093EF028093EE0281E090E081
:1006A000ECCF61E0CE0101960E946B02F7CFCF92B2
:1006B000DF92EF92FF920F931F93CF93DF93FC0192
:1006C000C48121E02093C802C093E9021092EF0296
:1006D0001092EE028385682B8BEF92E00E94280334
:1006E000D091EE02D13208F092C00E94E4016B0179
:1006F0007C018091C202811165C082E08093C202B8
:1007000081E08093C1028FEF8093C0021092BF02FC
:10071000D093BE02A9ECB2E0EEE9F2E080E0D8139B
:1007200085C010929D0280919D02CC0FC82BC09372
:100730009D0280919C02813009F07CC010929C0245
:100740000E94E4016B017C0180919D028093BB00BB
:100750008091C4029091C502A091C602B091C702D7
:10076000892B8A2B8B2B99F00E94E4010091C40203
:100770001091C5022091C6023091C7026C197D0903
:100780008E099F090617170728073907E0F180919E
:10079000BC0083FDD9CF85EC8093BC000E94E401AE
:1007A0006B017C018091C202823009F445C08091C6
:1007B000C0028F3F61F18091C002803241F180918F
:1007C000C00225C08091C4029091C502A091C602CA
:1007D000B091C702892B8A2B8B2B09F48ACF0E94F8
:1007E000E4010091C4021091C5022091C60230912B
:1007F000C7026C197D098E099F090617170728077C
:10080000390708F076CF8091C3020E94B00210929F
:10081000EF021092EE021092C802DF91CF911F9169
:100820000F91FF90EF90DF90CF9008959D9191935D
:100830008F5F75CF85EEB0CF8091C4029091C502D5
:10084000A091C602B091C702892B8A2B8B2B09F489
:10085000A9CF0E94E4010091C4021091C502209129
:10086000C6023091C7026C197D098E099F090617CF
:1008700017072807390708F095CFC5CF90E080E02B
:1008800008950F931F93CF938C01C62F0E94570397
:100890006C2F6460C8010E9457036C2F6B7FC801E6
:1008A0000E94570383EC90E00197F1F7CF911F91DD
:1008B0000F9108950F931F93CF93DF938C01D62F41
:1008C000C42F607F642B0E94410480E1D89FB00157
:1008D00011246C2BC801DF91CF911F910F910C94C3
:1008E000410440E060E80C945A0441E00E945A043C
:1008F00081E090E0089585ED8093BC008091C40272
:100900009091C502A091C602B091C7020796A11DA1
:10091000B11D23E0B695A795979587952A95D1F7B0
:100920002091BC0024FD03C01092C20208954091A2
:10093000C4025091C5026091C6027091C702452B56
:10094000462B472B69F30097A105B10541F02AE238
:100950002A95F1F700C00197A109B109E1CF809173
:10096000C3020C94B0021F920F920FB60F92112483
:100970002F933F938F939F93AF93BF938091F302F5
:100980009091F402A091F502B091F6023091F2023A
:1009900023E0230F2D3758F50196A11DB11D20939B
:1009A000F2028093F3029093F402A093F502B093C5
:1009B000F6028091F7029091F802A091F902B091AD
:1009C000FA020196A11DB11D8093F7029093F802DF
:1009D000A093F902B093FA02BF91AF919F918F91CA
:1009E0003F912F910F900FBE0F901F90189526E802
:1009F000230F0296A11DB11DD2CF1F920F920FB6E9
:100A00000F9211240BB60F922F933F934F935F9346
:100A10006F937F938F939F93AF93BF93EF93FF93C6
:100A20008091B900887F803609F44DC008F040C03D
:100A3000883209F4A9C028F5803109F49DC0C8F4B2
:100A4000882309F4FBC0883009F496C0FF91EF9128
:100A5000BF91AF919F918F917F916F915F914F91D6
:100A60003F912F910F900BBE0F900FBE0F901F90D4
:100A70001895883109F488C0803241F78093C0020C
:100A800014C0803409F49DC040F48033B9F3883336
:100A9000E9F68093C00285ECB0C0803509F485C0CA
:100AA000883509F496C0883489F60E947B04CECF3D
:100AB000883909F48CC038F5883729F050F4883625
:100AC00011F0803719F683E08093C20210929B02E6
:100AD00057C0883809F47BC0803919F0803809F094
:100AE000B5CF80919B02803208F071C0E0919B02EB
:100AF00081E08E0F80939B028091BB00F0E0E5586F
:100B0000FD4F80833DC0803B39F0E0F4803A09F42A
:100B100079C0883A09F09ACF84E08093C20210929B
:100B20007A0210927902E091EA02F091EB021995B3
:100B30008091790281110FC081E080937902109237
:100B4000590209C0803C09F4A6CF883C09F4A3CF20
:100B5000883B09F07BCFE0917A0281E08E0F809391
:100B60007A02F0E0E75AFD4F80818093BB009091BC
:100B70007A028091790229C080919D028093BB0006
:100B800085EC8093BC0062CF9091BF028091BE0241
:100B9000981758F5E091BF0281E08E0F8093BF0255
:100BA000F0E0E256FD4F8081E9CFE091BF0281E0A5
:100BB0008E0F8093BF028091BB00F0E0E256FD4FA4
:100BC00080839091BF028091BE029817C8F285E899
:100BD000D8CFE091BF0281E08E0F8093BF02809159
:100BE000BB00F0E0E256FD4F80838091C10281118D
:100BF0005CCF81E080939C0284EA8093BC001092D9
:100C0000C20224CF85EC8093BC001092C202809176
:100C10009B02803230F4E0919B02F0E0E558FD4FFA
:100C2000108260919B0270E0E091EC02F091ED0285
:100C30008BE792E0199510929B0208CF1092C002A8
:100C400034CFEBEFF2E01382128288EE93E0A0E063
:100C5000B0E084839583A683B78384E092E0918398
:100C60008083E3E1F3E01382128226E132E03183F4
:100C7000208380E2848390E1918782E082871386DB
:100C8000E7E0F3E0138212823183208321E22483A0
:100C90009187828713860895789484B5826084BD95
:100CA00084B5816084BD85B5826085BD85B5816070
:100CB00085BD80916E00816080936E0010928100EE
:100CC00080918100826080938100809181008160A9
:100CD000809381008091800081608093800080916A
:100CE000B10084608093B1008091B00081608093F6
:100CF000B00080919100826080939100809191007A
:100D00008160809391008091900081608093900039
:100D10008091A10082608093A1008091A1008160F8
:100D20008093A1008091A00081608093A0008091B9
:100D30002101826080932101809121018160809353
:100D400021018091200181608093200180917A00AF
:100D5000846080937A0080917A00826080937A0028
:100D600080917A00816080937A0080917A00806817
:100D700080937A001092C1001092F1021092F0025A
:100D80001092EF021092EE020E9492028BE392E028
:100D90009093EB028093EA028CE392E09093ED0251
:100DA0008093EC0268EE73E080E090E00E9409021C
:100DB0000E9492021092180380911D03823018F055
:100DC00098E09093180380931B0362E370E080E047
:100DD00090E00E94090260911E0383E193E00E946B
:100DE000570368EE73E080E090E00E94090260E340
:100DF00083E193E00E944104CBE4D6E4CE01019765
:100E0000F1F760E383E193E00E9441042197F1F759
:100E100060E383E193E00E94410483E592E001975F
:100E2000F1F760E283E193E00E94410460911803CE
:100E3000606240E083E193E00E945A0484E0809382
:100E4000190340E06CE083E193E00E945A0440E023
:100E500061E083E193E00E945A04CBE3DFE1CE013D
:100E60000197F1F782E080931A0340E066E083E1A6
:100E700093E00E945A0440E062E083E193E00E9424
:100E80005A042197F1F768EE73E080E090E00E9449
:100E90000902C8E0C0931E0360E083E193E00E9472
:100EA000570383E193E00E9471044CE050E06EE14F
:100EB00072E083E193E00E943D02C093120360E080
:100EC00087E093E00E94570387E093E00E9471045B
:100ED0004CE050E06BE272E087E093E00E943D025C
:100EE000C0E0D0E04CE050E06EE172E083E193E0DE
:100EF0000E943D024CE050E06BE272E087E093E03C
:100F00000E943D02209771F30E940000EBCFEE0F8C
:100F1000FF1F881F8BBF0790F691E02D1994F8945E
:020F2000FFCF01
:100F2200000000002803FB023E04D102F402E102A9
:100F3200D2020000000075043D023E046A025445DC
:100F4200535420656372616E20310054455354201E
:080F5200656372616E2032003C
:00000001FF
