:100000000C9458000C9480000C9480000C94800098
:100010000C9480000C9480000C9480000C94800060
:100020000C9480000C9480000C9480000C94800050
:100030000C9480000C9480000C9480000C94800040
:100040000C9477040C9480000C9480000C94800035
:100050000C9480000C9480000C9480000C94800020
:100060000C94C1040C9480000000000025002800BE
:100070002B00040404040404040402020202020229
:10008000030303030303010204081020408001025C
:1000900004081020010204081020000000080002DB
:1000A0000100000304070000000000000000E0055C
:1000B00011241FBECFEFD8E0DEBFCDBF11E0A0E01E
:1000C000B1E0E2E8FDE002C005900D92AA36B1076A
:1000D000D9F722E0AAE6B1E001C01D92A735B20728
:1000E000E1F710E0C8E5D0E004C02197FE010E94CE
:1000F000B906C735D107C9F70E940B060C94BF0695
:100100000C94000090E0FC01E656FF4F2491FC01A6
:10011000EA57FF4F3491FC01EE58FF4FE491EE2374
:10012000C9F0222339F0233001F1A8F4213019F16C
:10013000223029F1F0E0EE0FFF1FE859FF4FA591A3
:10014000B4918FB7F894EC91611126C030953E239D
:100150003C938FBF08952730A9F02830C9F0243090
:1001600049F7809180008F7D03C0809180008F7758
:1001700080938000DFCF84B58F7784BDDBCF84B5DB
:100180008F7DFBCF8091B0008F778093B000D2CF6E
:100190008091B0008F7DF9CF3E2BDACF3FB7F89436
:1001A0008091D9019091DA01A091DB01B091DC013D
:1001B00026B5A89B05C02F3F19F00196A11DB11DC2
:1001C0003FBFBA2FA92F982F8827BC01CD01620FFE
:1001D000711D811D911D42E0660F771F881F991FB9
:1001E0004A95D1F708958F929F92AF92BF92CF9286
:1001F000DF92EF92FF924B015C010E94CE006B01F7
:100200007C010E94CE006C197D098E099F09683E11
:10021000734081059105A8F321E0821A9108A10895
:10022000B10888EEC80E83E0D81EE11CF11C8114D1
:100230009104A104B10429F7FF90EF90DF90CF90D3
:10024000BF90AF909F908F900895AF92BF92CF9242
:10025000DF92EF92FF920F931F93CF93DF936C0186
:100260007B018B01040F151FEB015E01AE18BF0867
:10027000C017D10759F06991D601ED91FC91019019
:10028000F081E02DC6010995892B79F7C501DF9131
:10029000CF911F910F91FF90EF90DF90CF90BF9083
:1002A000AF9008950895089508952091AB01260F09
:1002B0003327331F21323105ECF420910302FC0176
:1002C00090E080E0243069F082E00895A091AB01D5
:1002D0002191AC0145575E4FA40FB52FB11D2C9352
:1002E0000196861798F38091AB01680F6093AB017C
:1002F00080E0089581E008951092030281E08093E8
:1003000002021092DD0161E082E10E94820061E060
:1003100083E10E948200E9EBF0E080818E7F8083A0
:1003200080818D7F808388E48093B80085E480930A
:10033000BC000895CF93DF9391E090938A018823C6
:10034000B9F0C091B800D091BA008091BC008A7B0E
:100350008093BC0060E082E10E94820060E083E163
:100360000E9482000E947C01D093BA00C093B80022
:10037000DF91CF910895CF92DF92EF92FF920F938A
:100380001F93CF93DF93D0912C0281E0D13208F0FC
:100390009CC0C0912B020E94CE006B017C01809119
:1003A000030281116CC082E08093030281E080939C
:1003B00002028FEF8093010210920002D093FF019E
:1003C000ABE0B2E0EFEDF1E080E0D8138DC0109229
:1003D000DE018091DE01CC0FC82BC093DE0180913D
:1003E000DD01813009F084C01092DD010E94CE0051
:1003F0006B017C018091DE018093BB00809105023E
:1004000090910602A0910702B0910802892B8A2BD5
:100410008B2BA1F00E94CE000091050210910602E4
:1004200020910702309108026C197D098E099F09FD
:10043000061717072807390708F442C08091BC0047
:1004400083FDD8CF85EC8093BC000E94CE006B0169
:100450007C0180910302823009F44CC0809101023A
:100460008F3F09F469C080910102803209F466C0AF
:1004700080910102803309F463C084E026C080913A
:10048000050290910602A0910702B0910802892B03
:100490008A2B8B2B09F483CF0E94CE00009105029A
:1004A0001091060220910702309108026C197D0913
:1004B0008E099F09061717072807390708F06FCF1D
:1004C000809104020E949A0185E010920A02109223
:1004D0002C0210920902DF91CF911F910F91FF9092
:1004E000EF90DF90CF9008959D9191938F5F6DCFA6
:1004F00085EEA9CF8091050290910602A091070296
:10050000B0910802892B8A2B8B2B09F4A2CF0E9471
:10051000CE00009105021091060220910702309151
:1005200008026C197D098E099F090617170728070D
:10053000390708F08ECFC4CF80E0C7CF82E0C5CFA7
:1005400083E0C3CF0895E091D3018091D201E817F1
:1005500030F4F0E0E659FE4F808190E008958FEF8F
:100560009FEF08959091D3018091D2012FEF3FEF3B
:10057000981748F4E92FF0E0E659FE4F208130E06B
:100580009F5F9093D301C90108958091D20190910A
:10059000D301891B990B0895CF92DF92EF92FF92BE
:1005A0000F931F93CF93DF937C01CB018A0120919E
:1005B0000902222389F0EB016B01C40ED51ECC1574
:1005C000DD0569F06991D701ED91FC910190F08111
:1005D000E02DC7010995F3CF642F0E945501C80192
:1005E000DF91CF911F910F91FF90EF90DF90CF900F
:1005F0000895CF93DF931F92CDB7DEB76983209123
:1006000009022223F9F020912C02203258F021E037
:1006100030E0FC013383228390E080E00F90DF9193
:10062000CF91089580910A02E82FF0E0E55FFD4F39
:10063000998190838F5F80930A0280932C0281E0DE
:1006400090E0ECCF61E0CE0101960E945501F7CF1A
:10065000CF93DF93EB01FC01828591E09093090237
:1006600080932B0210920A0210922C0268818DE274
:1006700092E00E94F90265E070E080E090E00E9464
:10068000F30069818DE292E00E94F90265E070E07A
:1006900080E090E00E94F300DF91CF910C94BB01C9
:1006A000CF93DF9300D01F92CDB7DEB79C0190ECC3
:1006B000611101C090E81B8280E889839A83BE01A2
:1006C0006F5F7F4FC9010E9428030F900F900F901A
:1006D000DF91CF910895CF93DF9300D01F92CDB7D4
:1006E000DEB71B8220E829836A83BE016F5F7F4FDC
:1006F0000E9428030F900F900F90DF91CF910895E3
:10070000CF93DF9300D01F92CDB7DEB71B8220E4DA
:1007100029836A83BE016F5F7F4F0E94280381E0B7
:1007200090E00F900F900F90DF91CF910895CF93AD
:10073000C42FFC01838591E09093090280932B02E2
:1007400010920A0210922C028DE292E00E94F902AD
:100750006C2F8DE292E00E94F902CF910C94BB01C4
:100760001F93CF93DF93EC01142F462F64E00E9478
:100770009703412F63E0CE010E9497034FEF62E0A1
:10078000CE01DF91CF911F910C949703CF93DF930C
:10079000EC011092D3011092D20110920A02109231
:1007A0002C020E947C0182E591E09093D10180931C
:1007B000D00183E591E09093CF018093CE011C821C
:1007C0008D85823010F098E09C838887198662E3DB
:1007D00070E080E090E00E94F3006C816062CE01E6
:1007E0000E946B0365E070E080E090E00E94F300FF
:1007F0006C816062CE010E946B0365E070E080E076
:1008000090E00E94F3006C816062CE010E946B0355
:1008100084E08D836CE0CE010E946B0361E0CE0129
:100820000E946B038BE39FE10197F1F782E08E83D7
:1008300066E0CE010E946B0340E060E0CE010E94C2
:1008400097034FEF68E0CE010E94970340E261E01A
:10085000CE010E9497034FEF6FEFCE01DF91CF9152
:100860000C94B00390E080E00895FB01019000201B
:10087000E9F73197AF01461B570B0C94250185ED25
:100880008093BC008091050290910602A09107021E
:10089000B09108020796A11DB11D23E0B695A7955A
:1008A000979587952A95D1F72091BC0024FD03C028
:1008B0001092030208954091050250910602609142
:1008C000070270910802452B462B472B69F30097CE
:1008D000A105B10541F02AE22A95F1F700C0019780
:1008E000A109B109E1CF809104020C949A011F92F1
:1008F0000F920FB60F9211242F933F938F939F93D4
:10090000AF93BF938091D5019091D601A091D7016B
:10091000B091D8013091D40123E0230F2D3758F541
:100920000196A11DB11D2093D4018093D501909310
:10093000D601A093D701B093D8018091D9019091AD
:10094000DA01A091DB01B091DC010196A11DB11D7E
:100950008093D9019093DA01A093DB01B093DC017D
:10096000BF91AF919F918F913F912F910F900FBEAB
:100970000F901F90189526E8230F0296A11DB11D18
:10098000D2CF1F920F920FB60F9211242F933F9345
:100990004F935F936F937F938F939F93AF93BF9387
:1009A000EF93FF938091B900887F803609F44AC0A5
:1009B000F0F5883209F4A7C018F5803109F49BC01E
:1009C000B8F4882309F4F9C0883009F494C0FF9181
:1009D000EF91BF91AF919F918F917F916F915F91B7
:1009E0004F913F912F910F900FBE0F901F90189530
:1009F000883109F488C0803251F78093010214C015
:100A0000803409F49DC040F48033B9F38833F9F69B
:100A10008093010285ECB0C0803509F485C088352B
:100A200009F496C0883499F60E943F04D0CF8839E3
:100A300009F48CC038F5883729F050F4883611F065
:100A4000803729F683E0809303021092CD0157C0CE
:100A5000883809F47BC0803919F0803809F0B7CFA5
:100A60008091CD01803208F071C0E091CD0181E02C
:100A70008E0F8093CD018091BB00F0E0E355FE4FD7
:100A800080833DC0803B39F0E0F4803A09F479C0BE
:100A9000883A09F09CCF84E0809303021092AC0165
:100AA0001092AB01E091D001F091D10109958091B4
:100AB000AB0181110FC081E08093AB0110928B01DB
:100AC00009C0803C09F4A6CF883C09F4A3CF883B39
:100AD00009F07DCFE091AC0181E08E0F8093AC01F5
:100AE000F0E0E557FE4F80818093BB009091AC0110
:100AF0008091AB0129C08091DE018093BB0085EC21
:100B00008093BC0064CF909100028091FF01981700
:100B100058F5E091000281E08E0F80930002F0E032
:100B2000E152FE4F8081E9CFE091000281E08E0F1B
:100B3000809300028091BB00F0E0E152FE4F808381
:100B4000909100028091FF019817C8F285E8D8CFF4
:100B5000E091000281E08E0F809300028091BB0043
:100B6000F0E0E152FE4F80838091020281115CCF60
:100B700081E08093DD0184EA8093BC00109203023F
:100B800026CF85EC8093BC00109203028091CD01AA
:100B9000803230F4E091CD01F0E0E355FE4F108259
:100BA0006091CD0170E0E091CE01F091CF018DEA2E
:100BB00091E009951092CD010ACF1092010234CF35
:100BC000EDE2F2E01382128288EE93E0A0E0B0E062
:100BD00084839583A683B78384E091E091838083A7
:100BE000E8E4F2E01382128246E151E0518340834F
:100BF0003EE3328720E6238790E1948782E0858771
:100C0000E9E3F2E013821282518340833287238723
:100C1000948785870895789484B5826084BD84B56F
:100C2000816084BD85B5826085BD85B5816085BDE7
:100C300080916E00816080936E001092810080919F
:100C40008100826080938100809181008160809327
:100C50008100809180008160809380008091B1004C
:100C600084608093B1008091B00081608093B00077
:100C700080917A00846080937A0080917A0082600B
:100C800080937A0080917A00816080937A008091CD
:100C90007A00806880937A001092C10088E492E024
:100CA0000E94C6034FEF6FEF88E492E00E94B0030A
:100CB00060E088E492E00E9450036EE171E088E415
:100CC00092E00E94350489E392E00E94C60344E664
:100CD00060E089E392E00E94B00361E089E392E082
:100CE0000E946B038BE39FE10197F1F760E089E3DA
:100CF00092E00E9450036DE271E089E392E00E946D
:100D0000350461E089E392E00E9450036BE371E0F7
:100D100089E392E00E94350460ED77E080E090E0A6
:100D20000E94F300C0E0D0E061E088E492E00E941D
:100D300050034FE050E069E471E088E492E00E94E3
:100D4000250161E089E392E00E94500340E150E018
:100D500069E571E089E392E00E94250164EF71E0AA
:100D600080E090E00E94F3002097F1F20E940000E2
:100D7000DBCFEE0FFF1F0590F491E02D0994F8945E
:020D8000FFCFA3
:100D820000000000F902CC023204A202C502B20243
:100D9200A3020000000080032501320454014365D0
:100DA2006E646572736F6E2043616C63004941200B
:100DB20043656E646572736F6E3A0053797374653E
:100DC2006D6520507265742E0043616C63756C3AD8
:100DD200203135202B203235004164646974696FFB
:0A0DE2006E2073696D706C652000CF
:00000001FF
